:020000040800F2
:1000000070B9002055020008FB2700082D0D0008DC
:10001000F9270008C9030008553A0008000000004D
:100020000000000000000000000000009D0100082A
:100030007107000800000000F1010008D538000831
:100040006F0200086F0200086F0200086F020008CC
:100050006F0200086F0200086F0200086F020008BC
:100060006F0200086F0200086F0200086F020008AC
:100070006F0200086F0200086F0200086F0200089C
:100080006F0200086F0200086F0200086F0200088C
:100090006F0200086F0200086F0200086F0200087C
:1000A0006F0200086F0200086F0200086F0200086C
:1000B0006F0200086F0200086F0200086F0200085C
:1000C0006F0200086F0200086F0200086F0200084C
:1000D0006F0200086F0200086F0200086F0200083C
:1000E0006F0200086F0200086F0200086F0200082C
:1000F0006F0200086F0200086F0200086F0200081C
:100100006F020008F12A00086F0200086F02000861
:100110006F0200086F0200086F0200086F020008FB
:100120006F0200086F0200086F02000859050008FE
:100130006F0200086F0200086F0200086F020008DB
:100140006F0200086F0200086F0200086F020008CB
:100150006F0200086F0200086F0200086F020008BB
:100160006F0200086F0200086F0200086F020008AB
:100170006F0200086F0200086F0200086F0200089B
:100180006F0200086F020008DFF80CD000F0D6F80C
:1001900000480047C155000870B900202A4B196873
:1001A0000868B0E8F04F80F30988BFF36F8F4FF015
:1001B000000080F3118870470000000006480068C6
:1001C000006880F3088862B661B6BFF34F8FBFF353
:1001D0006F8F00DF00BF00BF08ED00E0DFF80C000C
:1001E000016841F470010160704700BF88ED00E0D4
:1001F000EFF30980BFF36F8F134B1A681EF0100FD7
:1002000008BF20ED108A20E9F04F106008B44FF0CD
:10021000500080F31188BFF34F8FBFF36F8F06F04C
:100220009BF94FF0000080F3118808BC196808683A
:10023000B0E8F04F1EF0100F08BFB0EC108A80F34A
:100240000988BFF36F8F7047A0000020EFF305808F
:10025000704700000648804706480047FEE7FEE773
:10026000FEE7FEE7FEE7FEE7FEE7FEE7FEE7FEE766
:10027000E9380008890100082DE9F05F05460020F3
:1002800092469B4688460646814640241BE0284607
:1002900041464746224600F041F853465A46C01AA6
:1002A000914110D311461846224600F028F82D1A25
:1002B00067EB01084F4622460120002100F01FF89D
:1002C00017EB00094E41201EA4F10104DFDC484673
:1002D00031462A464346BDE8F09F40EA01039B07AA
:1002E00003D009E008C9121F08C0042AFAD203E0AB
:1002F00011F8013B00F8013B521EF9D27047202A49
:1003000004DB203A00FA02F1002070479140C2F16C
:10031000200320FA03F3194390407047202A04DB9E
:10032000203A21FA02F00021704721FA02F3D0406E
:10033000C2F120029140084319467047064C074D10
:1003400006E0E06840F0010394E8070098471034A5
:10035000AC42F6D3FFF71CFF94380308B438030807
:100360001CB505F097FE0C490220CDE90001020200
:1003700000230AA10C4806F059FC012802D10BA069
:1003800003F06AFB0448001F006805F08BFFBDE81E
:100390001C4005F0BBBE00002800002054657374AB
:1003A0005F5461736B00000045390008B4B4BDA808
:1003B000546573745F5461736BC8CECEF1B3C9B921
:1003C000A6210D0A00000000FEE7000070B53749C5
:1003D00005460024086810F0450FFBD0410702D500
:1003E0000324042003E0C00704D00124204602F0C7
:1003F00019FB59E002F052FBA8422BD140F2FF500A
:1004000002F010FB002002F06BFB294908424BD0A0
:10041000002801DA1C2070BD410001D5092070BD03
:10042000810001D50A2070BDC10001D50B2070BD2F
:10043000010101D50C2070BD410101D50D2070BD19
:10044000C10101D50E2070BD010201D50F2070BD84
:10045000410201D5102070BD810201D5112070BD6F
:10046000C10201D5122070BD010301D5132070BD5A
:10047000410301D5142070BD810301D5152070BD45
:10048000C10301D5162070BD010401D5172070BD30
:10049000410401D5182070BD810401D5192070BD1B
:1004A000000701D51A2070BD204670BD342C0140D4
:1004B00008E0FFFD10B50B4A0024116811F0450F4C
:1004C000FBD0480702D50324042003E0C80705D069
:1004D0000124204602F0A6FA204610BD40F2FF504B
:1004E000F8E70000342C014070B50C461949064667
:1004F0000025086810F0450FFBD0410702D5032402
:10050000042003E0C00705D00124204602F08AFA47
:10051000204670BD02F0C2FAB04212D140F2FF5044
:1005200002F080FA002002F0DBFA10F4604F03D0F2
:10053000810404D5132070BD000C208007E0410425
:1005400001D5102070BD000401D50F2070BD2846D4
:1005500070BD0000342C014010B55020EFF3118421
:1005600080F31188BFF34F8FBFF36F8F02F05AFFF4
:1005700084F3118810BD0000074A904201D2074859
:1005800001E005481038064A8B0001EA020101D556
:10059000C160704781607047106402400060024093
:1005A0007D0F7D0F0029016802D041F0010101E0BB
:1005B00021F00101016070472DE9F043016821F04D
:1005C000010101600021016041608160C160016141
:1005D000212141613C493C4A3D251039904202D1DC
:1005E0008D60BDE8F083384A4FF47466183290424B
:1005F00001D18E60F5E7344A4FF4741730329042DF
:1006000001D18F60EDE7304A4FF0746C4832904270
:1006100002D1C1F808C0E4E72B4B2C4A6033984262
:1006200001D1CA60DDE7284C294B7834A04201D1C2
:10063000CB60D6E7DFF89080264C08F19008404563
:1006400001D1CC60CDE7DFF880804FF03D5908F153
:10065000A808404502D1C1F80C90C2E71E49DFF856
:1006600078800839404501D10D60BAE71A4D183538
:10067000A84201D10E60B4E7174D3035A84201D130
:100680000F60AEE7144D4835A84202D1C1F800C052
:10069000A7E7114D10496035091FA84201D10A6032
:1006A0009FE70D4A7832904201D10B6099E70A4AE0
:1006B0009032904201D10C6093E7074AA8329042F1
:1006C0008FD1C1F800908CE7106002403D000020FF
:1006D000400F002000003D20106402400029016806
:1006E00002D041F0200101E021F0200101607047BB
:1006F0000B0607D5436912B143F0800301E023F0F4
:1007000080034361802908D0002A026801F01E019D
:1007100001D00A4300E08A430260704730B50368A5
:10072000124ACC6813400A682243D1E905452C439C
:100730002243CC6922430C6A22434C6A22438C6ACE
:1007400022434C6B22438C6B22431A430260426962
:1007500022F00703D1E90B2422431A4342610A69BC
:1007600042604A6882608968C16030BD3F801CF089
:1007700070470000F0B5012187B0084602F07AF812
:100780000121102002F08EF8012500248DF806408A
:100790008DF8075002266802254F8DF805600090FD
:1007A0008DF804606946384600F074FAA80200909B
:1007B0008DF804606946384600F06CFA07220A2179
:1007C000384600F0A3FA07220921384600F09EFAC5
:1007D0004FF4E1300290ADF810400C20154EADF80A
:1007E0000C40ADF81200ADF80E40ADF8144002A96F
:1007F000304603F0D5F84FF4A06002F031F8252020
:100800008DF818008DF819508DF81A408DF81B508E
:1008100006A801F0F3FF012240F22551304603F013
:10082000A7F80121304603F092F807B0F0BD0000B0
:1008300000000240001001408000A0F1C0400029EB
:10084000016802D041F0010101E0024A114001605B
:1008500070470000FEFF0F0070B501688900A1F12C
:10086000C0410B68334A1340D0E901242243D0E948
:1008700003452C4322434469224384692243C469CB
:100880002243046A2243446A2243846A2243C46A9C
:100890002243046B22431A430A608168082907D166
:1008A00001688900A1F1C0410A6842F040020A6073
:1008B00001688A00A2F1C042516801F04043416BD7
:1008C000D1E9004544EA05148D688E892D0245EA78
:1008D00006452C430D8A44EA05540D7D896944EA96
:1008E00005640C431C435460C16AB1F5804F08D0C5
:1008F00000686FF070418000A0F1C040C0F80411A2
:1009000070BD01688900A1F1C041D1F80421806B5C
:10091000094B1A40D0E9003443EA041384688589FE
:10092000240244EA05448069234303431343C1F886
:10093000043170BD8000F7FF0000F0CF10B51EA09D
:1009400003F08AF8012227A1274804F047F9274C31
:100950000D28207009D0002829D0014624A003F0DA
:100960007BF82CA003F078F8FEE733A003F074F8CE
:10097000002211461BA003F079FE207038B13949DE
:100980004FF40070088038A003F066F8FEE73CA042
:1009900003F062F8012213A1002004F01FF9207077
:1009A000012210A1104804F019F9207010BDBDE813
:1009B00010403BA003F050B80D0A2A2A2A2A2A2AFE
:1009C00020D5E2CAC7D2BBB8F65344BFA820CEC4D4
:1009D000BCFECFB5CDB3CAB5D1E9202A2A2A2A2A2E
:1009E0002A0D0A00303A0000D40100204400002003
:1009F000A3A1A3A15344BFA8B9D2D4D8CEC4BCFEEE
:100A0000CFB5CDB3CAA7B0DCA1A3282564290D0AB0
:100A100000000000A3A1A3A1BFC9C4DCD4ADD2F2E1
:100A2000A3BA5344BFA8B3F5CABCBBAFB2BBB3C9EA
:100A3000B9A6A1A30D0A0000A1B75344BFA8BBB932
:100A4000C3BBD3D0CEC4BCFECFB5CDB3A3ACBCB476
:100A5000BDABBDF8D0D0B8F1CABDBBAF2E2E2E0DA8
:100A60000A0000001A140240A1B6A1B6B8F1CABD2E
:100A7000BBAFCAA7B0DCA1A3A1B7A1B70D0A000004
:100A8000A1B75344BFA8D2D1B3C9B9A6B8F1CABD62
:100A9000BBAFCEC4BCFECFB5CDB3A1A30D0A000041
:100AA000A1B7CEC4BCFECFB5CDB3B9D2D4D8B3C9EB
:100AB000B9A6A3ACBFC9D2D4BDF8D0D0B6C1D0B40A
:100AC000B2E2CAD40D0A000010B510A002F0C4FFB3
:100AD0000A2219A11E4804F0BBF81E4C207040B138
:100AE0001D494FF400700880BDE81040184803F01D
:100AF000ABBD184B44221B1D191D154804F0A5F968
:100B00002070134803F0A0FDEEE700000D0A2A2A2A
:100B10002A2A2A2A20BCB4BDABBDF8D0D0CEC4BC92
:100B2000FED0B4C8EBB2E2CAD42E2E2E202A2A2A36
:100B30002A2A2A0D0A000000303A4661744673B62C
:100B4000C1D0B4B2E2CAD4CEC4BCFE2E7478740054
:100B500008120020440000201A1402402DE9FC5F16
:100B60000024494F00944FF4806801944025C7F851
:100B70001080C7E902540E464FF0080B1021C7E958
:100B800000B1A146384601F0EBFF1020FFF71EFC34
:100B900000284ED13D48AA464D46008900043860E1
:100BA0003720C7E9010AC7E90398384601F0D8FFA2
:100BB0003720FFF70BFC00283BD1411E07F1140042
:100BC000C0E9001B302181600221C0E90315012129
:100BD000416101F03FFF3320C7F808A0C7E900508A
:100BE000C7E90358384601F0BBFF3320FFF7EEFB9F
:100BF00005001ED1DFF898804FF4001A6F4640F2CE
:100C00002A69D8F8000010EA090F0AD1504601F00D
:100C10004BFF0028F5D001F09DFF47F82400641C2D
:100C2000EFE7082001F040FF28B1082001F0FAFEAC
:100C30000420BDE8FC9F022001F036FF20B1022015
:100C400001F0F0FE0220F4E7202001F02DFF20B19A
:100C5000202001F0E7FE0620EBE74FF40074204669
:100C600001F022FF20B1204601F0DCFE0720E0E782
:100C700040F2FF5001F0D6FE009800BA7060019873
:100C800000BA30602846D4E7A80100202C000020DC
:100C9000342C0140F0B5002201274FF0030C0B6803
:100CA00007FA02F52B40AB422CD1066853000CFA30
:100CB00003F4A64306600E79D0F800E09E4046EAB1
:100CC0000E0606600E79012E01D0022E12D1866822
:100CD000A64386604E79D0F808E09E4046EA0E06AC
:100CE00086604668AE43466045688E799640B6B2E7
:100CF00035434560C568A543C560CC799C40C36851
:100D00001C43C460521C102AC9D3F0BD4B07DB0E34
:100D10009A40C90810B500EB8100016A0F249C407D
:100D2000A1430162016A1143016210BDFEE70000A8
:100D30001CB50121052001F09DFD0120009000203F
:100D40008DF804008DF8070069460548FFF7A2FFFB
:100D50004FF40050009069460248FFF79BFF1CBD0E
:100D600000000240000802402DE9F043184F0646FB
:100D7000002438887D884543B888A0F5D0410439DF
:100D800002D1B879012808D00021084601F0B0FB53
:100D900001F0FEFC4FF0D84016E00020B8714FF093
:100DA0002A09A7F80A904FF02B08A7F80C800146F3
:100DB00001F09EFB0120B871A7F80A80A7F80C90FB
:100DC000E6E7A0F88060641CAC42FAD3BDE8F0838B
:100DD0002C2200202DE9F04F4A492A232B24898810
:100DE00045F2105A4FF4305B4FF4285E4FF44875CB
:100DF0004FF0F00C49F241394FF4A07745F210362C
:100E00004FF4F07280B13F484FF00108494580F837
:100E100006800780A0F802C001D0B1423ED12C2547
:100E200005814381848157E036484FF000084945E9
:100E300080F80680A0F800C0478006D0A1F5D04C0D
:100E4000BCF1040C01D0B1420CD12C2505814381A9
:100E5000A1F5D0438481043B01D0B14244D1078045
:100E6000428041E0514507D1A0F808B0A0F80AE05F
:100E70004FF42C5181810EE0A1F5C856633E06D097
:100E80002221018120214181212181812CE02C21FD
:100E90000181448183810280458025E0A1F5D04C09
:100EA000BCF1040C09D051450BD1A0F808B0A0F852
:100EB0000AE04FF42C53838121E02C2505814481E5
:100EC00009E0A1F5C85CBCF1630C12D022230381B8
:100ED0002123438120238381A1F5D043043B01D00A
:100EE000B14201D102804780BDE8F04F002001F0FF
:100EF000FDB94FF02C0CA0F808C043818481058017
:100F00004280E9E72C2200202DE9F043414D914633
:100F10000C460246060AA9882846A1F513434089D3
:100F20004FEA1428413B17D0A1F5A643103B13D03C
:100F3000A1F5AA43103B13D02E46A1F5C857B379AB
:100F40003688B61A761E633F23D0A1F5D047043FFA
:100F50003AD0012B4DD04DE001F00EFC304639E087
:100F600001F00AFC304601F0FBFB6889401C80B2AE
:100F700001F002FCD0B201F0F3FBA88901F0FCFB08
:100F8000404601F0EDFBA889401C80B201F0F4FB63
:100F90002BE003B9B2B201F0EFFB160A304601F0C4
:100FA000DFFBD0B201F0DCFB304601F0D9FBD0B260
:100FB00001F0D6FBA88901F0DFFB404601F0D0FB31
:100FC000E0B201F0CDFB0DE0012B00D1B2B201F097
:100FD000D3FB100A01F0C4FBD0B201F0C1FBA88919
:100FE00001F0CAFB404601F0BBFBE0B201F0B8FBE8
:100FF00007E0B2B2114601F0D5FBA889214601F005
:10100000D1FB4FF0D840298920F87E1FA0F802902C
:10101000BDE8F0832C2200202DE9F04FA1B0002480
:1010200001217A201F9401F025FC0121084601F0DE
:101030002DFC4FF001098DF804908DF80640022632
:101040004FF4004A8DF805604D46CDF800A08DF8AC
:1010500007906946FE48FFF71DFE8DF804604CF2CC
:1010600033708DF80640032700908DF805708DF8D9
:1010700007506946F748FFF70DFE8DF804604FF6FC
:1010800080708DF80640DFF8D0B300908DF80570C1
:101090008DF8075069465846FFF7FCFD8DF804604F
:1010A0008DF806404FF480588DF80570CDF800801B
:1010B0008DF807506946E948FFF7ECFD8DF80460AC
:1010C0008DF806408DF805708DF80750E44DCDF889
:1010D000008069462846FFF7DDFD0C220021DD482F
:1010E000FFF714FE0C220121DA48FFF70FFE0C2255
:1010F0000421D848FFF70AFE0C220521D548FFF746
:1011000005FE0C220821D348FFF700FE0C2209211E
:10111000D048FFF7FBFD0C220A21CE48FFF7F6FD71
:101120000C220E21CB48FFF7F1FD0C220F21C948FC
:10113000FFF7ECFD0C2207215846FFF7E7FD0C22D4
:1011400008215846FFF7E2FD0C2209215846FFF717
:10115000DDFD0C220A215846FFF7D8FD0C220B2199
:101160005846FFF7D3FD0C2211465846FFF7CEFD37
:101170000C220D215846FFF7C9FD0C220E215846BE
:10118000FFF7C4FD0C220F215846FFF7BFFD0C22CC
:101190001146B248FFF7BAFD0C2211462846FFF768
:1011A000B5FD0F20CDE911043C20CDE913041594C1
:1011B00009201694CDE917400820CDE919401B9469
:1011C0001C940620CDE902041D941E941020CDE944
:1011D00004400894079480020694CDE90C40CDE9C0
:1011E0000A48099411A8CDE90E4018A8109002A849
:1011F000FFF732FB01210620FFF71EFB4CF25033B4
:101200001846401E0004000CFBD1012101F0CAFA6F
:101210005B1E1B041B0CFBD1002001F05DF8914C00
:1012200041F6631749F24136A08045F210384FF677
:10123000FF7545F21052FF2804D3A84202D0B0F542
:10124000134F76D1D32001F097FA01F03BF8A0803C
:1012500001F038F8A08001F035F805EA0020A08000
:1012600001F030F8A1880843A080B04261D0BF20CF
:1012700001F082FA01F026F8A08001F023F8A080A6
:1012800001F020F8A08001F01DF805EA0020A08000
:1012900001F018F8A1880843A0F5D041A0800439D6
:1012A00047D0D42001F068FA01F00CF8A08001F0DA
:1012B00009F8A08001F006F805EA0020A08001F0FE
:1012C00001F8A1880843A080404532D04FF45A402D
:1012D00001F052FA00F0F6FFA0804FF45B4001F0FD
:1012E0004BFA00F0EFFF05EA0020A0804FF45C40CD
:1012F00001F042FA00F0E6FFA1880843A0805045C3
:1013000001D1A2801EE0904213D0A12001F034FA56
:1013100000F0D8FFA08000F0D5FF05EA0020A080F3
:1013200000F0D0FFA1880843A0F5AE41A08061394C
:101330007ED080B2B04205D0404503D0904201D06B
:10134000B84219D14FF02040D0F81C1121F00F0104
:10135000C0F81C11D0F81C1121F47061C0F81C11E8
:10136000D0F81C1141F00301C0F81C11D0F81C1179
:1013700041F40071C0F81C11A088904267D14FF46D
:1013800070435521184601F00DFA4FF20106AA21CB
:10139000304601F007FA771C5221384601F002FA74
:1013A0004FF203080821404601F0FCF94FF2040A0D
:1013B0000121504601F0F6F90D214FF4304001F0C3
:1013C000F1F90D214BF2010001F0ECF90D214BF286
:1013D000020001F0E7F94FF4364B3421584601F092
:1013E000E1F934214BF2016001F0DCF934214BF2D8
:1013F000026001F0D7F90D214FF4314001F0D2F92C
:101400000D214BF2011001F0CDF90D214BF202102C
:1014100001F0C8F934214FF4374001F0C3F9342109
:101420004BF2017001F0BEF934214BF2027000E082
:10143000FEE301F0B7F900214FF4324001F0B2F9B8
:1014400000214BF2012001F0ADF900210CE0F0E3A6
:1014500000040240000C0240001002400014024050
:10146000001802402C2200204BF2022001F09AF9D1
:1014700024214FF4384001F095F924214BF6010066
:1014800001F090F924214BF6020001F08BF90121C3
:101490004FF43F4001F086F90F214FF4334001F043
:1014A00081F90F214BF2013001F07CF90F214BF251
:1014B000023001F077F934214FF4394001F072F92C
:1014C00034214BF6011001F06DF934214BF6021076
:1014D00001F068F908214FF4354001F063F9082163
:1014E0004BF2015001F05EF908214BF2025001F07D
:1014F00059F903214FF4424001F054F924214FF4EB
:101500003A4001F04FF924214BF6012001F04AF94D
:1015100024214BF6022001F045F900214FF43C4014
:1015200001F040F978214BF6014001F03BF9002130
:101530004BF6024001F036F900214FF43D4001F036
:1015400031F978214BF6015001F02CF900214BF6CE
:10155000025001F027F900214FF43E4001F022F93A
:1015600064214BF6016001F01DF900214FF4514058
:1015700001F018F933214DF2011001F013F90021A7
:101580004DF2021001F00EF934214DF2031001F07A
:1015900009F900214DF2041001F004F93A214DF24D
:1015A000051001F0FFF800214DF2061001F0FAF8E5
:1015B0004A214DF2071001F0F5F800214DF2081014
:1015C00001F0F0F85C214DF2091001F0EBF8002178
:1015D0004DF20A1001F0E6F881214DF20B1001F0F6
:1015E000E1F800214DF20C1001F0DCF8A6214DF2DB
:1015F0000D1001F0D7F800214DF20E1001F0D2F8D5
:10160000E5214DF20F1001F0CDF801214DF210103F
:1016100001F0C8F813214DF2111001F0C3F80121B7
:101620004DF2121001F0BEF854214DF2131001F0EA
:10163000B9F801214DF2141001F0B4F882214DF2F5
:10164000151001F0AFF801214DF2161001F0AAF8C3
:10165000CA214DF2171001F0A5F802214DF2181021
:1016600001F0A0F800214DF2191001F09BF80221C1
:101670004DF21A1001F096F801214DF21B1001F005
:1016800091F802214DF21C1001F08CF834214DF23A
:101690001D1001F087F802214DF21E1001F082F8B2
:1016A00067214DF21F1001F07DF802214DF220104C
:1016B00001F078F884214DF2211001F073F8022135
:1016C0004DF2221001F06EF8A4214DF2231001F02A
:1016D00069F802214DF2241001F064F8B7214DF2AF
:1016E000251001F05FF802214DF2261001F05AF8A2
:1016F000CF214DF2271001F055F802214DF22810AC
:1017000001F050F8DE214DF2291001F04BF80221D2
:101710004DF22A1001F046F8F2214DF22B1001F0A3
:1017200041F802214DF22C1001F03CF8FE214DF25F
:101730002D1001F037F803214DF22E1001F032F890
:1017400010214DF22F1001F02DF803214DF2301031
:1017500001F028F833214DF2311001F023F8032174
:101760004DF2321001F01EF86D214DF2331001F0F0
:1017700019F800214FF4524001F014F833214DF2D2
:10178000012001F00FF800214DF2022001F00AF8CB
:1017900034214DF2032001F005F800214DF2042020
:1017A00001F000F83A214DF2052000F0FBFF002186
:1017B0004DF2062000F0F6FF4A214DF2072000F01E
:1017C000F1FF00214DF2082000F0ECFF5C214DF20A
:1017D000092000F0E7FF00214DF20A2000F0E2FFAF
:1017E00081214DF20B2000F0DDFF00214DF20C2095
:1017F00000F0D8FFA6214DF20D2000F0D3FF00210C
:101800004DF20E2000F0CEFFE5214DF20F2000F04A
:10181000C9FF01214DF2102000F0C4FF13214DF249
:10182000112000F0BFFF01214DF2122000F0BAFF9D
:1018300054214DF2132000F0B5FF01214DF2142088
:1018400000F0B0FF82214DF2152000F0ABFF012126
:101850004DF2162000F0A6FFCA214DF2172000F02D
:10186000A1FF02214DF2182000F09CFF00214DF253
:10187000192000F097FF02214DF21A2000F092FF8C
:1018800001214DF21B2000F08DFF02214DF21C20A2
:1018900000F088FF34214DF21D2000F083FF02216B
:1018A0004DF21E2000F07EFF67214DF21F2000F058
:1018B00079FF02214DF2202000F074FF84214DF2C7
:1018C000212000F06FFF02214DF2222000F06AFF7C
:1018D000A4214DF2232000F065FF02214DF22420C7
:1018E00000F060FFB7214DF2252000F05BFF0221E0
:1018F0004DF2262000F056FFCF214DF2272000F0B8
:1019000051FF02214DF2282000F04CFFDE214DF264
:10191000292000F047FF02214DF22A2000F042FF6B
:10192000F2214DF22B2000F03DFF02214DF22C2040
:1019300000F038FFFE214DF22D2000F033FF03218F
:101940004DF22E2000F02EFF10214DF22F2000F03E
:1019500029FF03214DF2302000F024FF33214DF206
:10196000312000F01FFF03214DF2322000F01AFF5A
:101970006D214DF2332000F015FF00214FF453404C
:1019800000F010FF33214DF2013000F00BFF002179
:101990004DF2023000F006FF34214DF2033000F02A
:1019A00001FF00214DF2043000F0FCFE3A214DF21F
:1019B000053000F0F7FE00214DF2063000F0F2FE97
:1019C0004A214DF2073000F0EDFE00214DF20830C3
:1019D00000F0E8FE5C214DF2093000F0E3FE00214A
:1019E0004DF20A3000F0DEFE81214DF20B3000F0A6
:1019F000D9FE00214DF20C3000F0D4FEA6214DF2AC
:101A00000D3000F0CFFE00214DF20E3000F0CAFE86
:101A1000E5214DF20F3000F0C5FE01214DF21030EE
:101A200000F0C0FE13214DF2113000F0BBFE012189
:101A30004DF2123000F0B6FE54214DF2133000F09A
:101A4000B1FE01214DF2143000F0ACFE82214DF2C6
:101A5000153000F0A7FE01214DF2163000F0A2FE75
:101A6000CA214DF2173000F09DFE02214DF21830D0
:101A700000F098FE00214DF2193000F093FE022193
:101A80004DF21A3000F08EFE01214DF21B3000F0B5
:101A900089FE02214DF21C3000F084FE34214DF20B
:101AA0001D3000F07FFE02214DF21E3000F07AFE64
:101AB00067214DF21F3000F075FE02214DF22030FB
:101AC00000F070FE84214DF2213000F06BFE022107
:101AD0004DF2223000F066FEA4214DF2233000F0DA
:101AE00061FE02214DF2243000F05CFEB7214DF280
:101AF000253000F057FE02214DF2263000F052FE54
:101B0000CF214DF2273000F04DFE02214DF228305A
:101B100000F048FEDE214DF2293000F043FE0221A4
:101B20004DF22A3000F03EFEF2214DF22B3000F053
:101B300039FE02214DF22C3000F034FEFE214DF230
:101B40002D3000F02FFE03214DF22E3000F02AFE42
:101B500010214DF22F3000F025FE03214DF23030E0
:101B600000F020FE33214DF2313000F01BFE032146
:101B70004DF2323000F016FE6D214DF2333000F0A0
:101B800011FE00214FF4544000F00CFE33214DF2C1
:101B9000014000F007FE00214DF2024000F002FE7D
:101BA00034214DF2034000F0FDFD00214DF20440D0
:101BB00000F0F8FD3A214DF2054000F0F3FD002160
:101BC0004DF2064000F0EEFD4A214DF2074000F0D4
:101BD000E9FD00214DF2084000F0E4FD5C214DF2EA
:101BE000094000F0DFFD00214DF20A4000F0DAFD6F
:101BF00081214DF20B4000F0D5FD00214DF20C404B
:101C000000F0D0FDA6214DF20D4000F0CBFD0021EB
:101C10004DF20E4000F0C6FDE5214DF20F4000F000
:101C2000C1FD01214DF2104000F0BCFD132101E087
:101C300043E335E34DF2114000F0B4FD01214DF2D4
:101C4000124000F0AFFD54214DF2134000F0AAFD08
:101C500001214DF2144000F0A5FD82214DF2154006
:101C600000F0A0FD01214DF2164000F09BFDCA21BD
:101C70004DF2174000F096FD02214DF2184000F0A1
:101C800091FD00214DF2194000F08CFD02214DF232
:101C90001A4000F087FD01214DF21B4000F082FD4B
:101CA00002214DF21C4000F07DFD34214DF21D401B
:101CB00000F078FD02214DF21E4000F073FD672117
:101CC0004DF21F4000F06EFD02214DF2204000F069
:101CD00069FD84214DF2214000F064FD02214DF2A6
:101CE000224000F05FFDA4214DF2234000F05AFD98
:101CF00002214DF2244000F055FDB7214DF2254060
:101D000000F050FD02214DF2264000F04BFDCF21A6
:101D10004DF2274000F046FD02214DF2284000F030
:101D200041FDDE214DF2294000F03CFD02214DF243
:101D30002A4000F037FDF2214DF22B4000F032FD39
:101D400002214DF22C4000F02DFDFE214DF22D40E0
:101D500000F028FD03214DF22E4000F023FD10215C
:101D60004DF22F4000F01EFD03214DF2304000F0F7
:101D700019FD33214DF2314000F014FD03214DF2E5
:101D8000324000F00FFD6D214DF2334000F00AFDAE
:101D900000214FF4554000F005FD33214DF2015074
:101DA00000F000FD00214DF2025000F0FBFC342158
:101DB0004DF2035000F0F6FC00214DF2045000F00B
:101DC000F1FC3A214DF2055000F0ECFC00214DF2FF
:101DD000065000F0E7FC4A214DF2075000F0E2FC0B
:101DE00000214DF2085000F0DDFC5C214DF209505D
:101DF00000F0D8FC00214DF20A5000F0D3FC812104
:101E00004DF20B5000F0CEFC00214DF20C5000F0D2
:101E1000C9FCA6214DF20D5000F0C4FC00214DF28A
:101E20000E5000F0BFFCE5214DF20F5000F0BAFC5F
:101E300001214DF2105000F0B5FC13214DF211506C
:101E400000F0B0FC01214DF2125000F0ABFC542127
:101E50004DF2135000F0A6FC01214DF2145000F099
:101E6000A1FC82214DF2155000F09CFC01214DF2A5
:101E7000165000F097FCCA214DF2175000F092FC6A
:101E800002214DF2185000F08DFC00214DF2195046
:101E900000F088FC02214DF21A5000F083FC012171
:101EA0004DF21B5000F07EFC02214DF21C5000F060
:101EB00079FC34214DF21D5000F074FC02214DF2EA
:101EC0001E5000F06FFC67214DF21F5000F06AFCBD
:101ED00002214DF2205000F065FC84214DF221508A
:101EE00000F060FC02214DF2225000F05BFCA421C6
:101EF0004DF2235000F056FC02214DF2245000F028
:101F000051FCB7214DF2255000F04CFC02214DF25E
:101F1000265000F047FCCF214DF2275000F042FC44
:101F200002214DF2285000F03DFCDE214DF22950F7
:101F300000F038FC02214DF22A5000F033FCF2216F
:101F40004DF22B5000F02EFC02214DF22C5000F0EF
:101F500029FCFE214DF22D5000F024FC03214DF20E
:101F60002E5000F01FFC10214DF22F5000F01AFCF3
:101F700003214DF2305000F015FC33214DF2315069
:101F800000F010FC03214DF2325000F00BFC6D21EB
:101F90004DF2335000F006FC00214FF4564000F0A3
:101FA00001FC33214DF2016000F0FCFB00214DF2F9
:101FB000026000F0F7FB34214DF2036000F0F2FB09
:101FC00000214DF2046000F0EDFB3A214DF2056076
:101FD00000F0E8FB00214DF2066000F0E3FB4A212F
:101FE0004DF2076000F0DEFB00214DF2086000F0CA
:101FF000D9FB5C214DF2096000F0D4FB00214DF2C9
:102000000A6000F0CFFB81214DF20B6000F0CAFBAB
:1020100000214DF20C6000F0C5FBA6214DF20D60D1
:1020200000F0C0FB00214DF20E6000F0BBFBE5218B
:102030004DF20F6000F0B6FB01214DF2106000F090
:10204000B1FB13214DF2116000F0ACFB01214DF208
:10205000126000F0A7FB54214DF2136000F0A2FBC8
:1020600001214DF2146000F09DFB82214DF21560BC
:1020700000F098FB01214DF2166000F093FBCA219D
:102080004DF2176000F08EFB02214DF2186000F057
:1020900089FB00214DF2196000F084FB02214DF212
:1020A0001A6000F07FFB01214DF21B6000F07AFB0B
:1020B00002214DF21C6000F075FB34214DF21D60D1
:1020C00000F070FB02214DF21E6000F06BFB6721F7
:1020D0004DF21F6000F066FB02214DF2206000F01F
:1020E00061FB84214DF2216000F05CFB02214DF286
:1020F000226000F057FBA4214DF2236000F052FB58
:1021000002214DF2246000F04DFBB7214DF2256015
:1021100000F048FB02214DF2266000F043FBCF2186
:102120004DF2276000F03EFB02214DF2286000F0E6
:1021300039FBDE214DF2296000F034FB02214DF223
:102140002A6000F02FFBF2214DF22B6000F02AFBF9
:1021500002214DF22C6000F025FBFE214DF22D6096
:1021600000F020FB03214DF22E6000F01BFB10213C
:102170004DF22F6000F016FB03214DF2306000F0AD
:1021800011FB33214DF2316000F00CFB03214DF2C5
:10219000326000F007FB6D214DF2336000F002FB6E
:1021A0005521184600F0FEFAAA21304600F0FAFA4E
:1021B0005221384600F0F6FA0821404600F0F2FAC3
:1021C0000021504600F0EEFACC214FF4314000F0EF
:1021D000E9FA00214BF2011000F0E4FA052158461B
:1021E00000F0E0FA70214FF4374000F0DBFA702184
:1021F0004BF2017000F0D6FA01214FF4384000F0A4
:10220000D1FA03214BF6010000F0CCFA03214BF682
:10221000020000F0C7FA03214BF6030000F0C2FAF7
:1022200002214FF43C4000F0BDFA00214BF6014082
:1022300000F0B8FA00214BF6024000F0B3FAD021CA
:102240004FF4494000F0AEFA02214CF6011000F0C4
:10225000A9FA50214CF6021000F0A4FA50214CF6D5
:10226000031000F09FFA50214CF6041000F09AFA87
:1022700000214FF4545000F095FA55214FF4685066
:1022800000F090FA4FF4885000F076FA42F6E060E1
:10229000401E0004000CFBD14FF4245000F06CFAF7
:1022A0000020FEF797FD0649C1F8BC922846FEF7CC
:1022B0005BFDA08821B0BDE8F08FA780FFF742B892
:1022C0000080404208B54FF0D840B0F88000ADF82B
:1022D0000000BDF8000008BD00B50A2200F04CFA6D
:1022E000521EFDD25DF804EBFFF7ECBFF0B57F4D59
:1022F00000232946AA79898846F6040741F6631423
:10230000012A01D02AB11DE0B9421BD0A14202D15D
:1023100018E0A14216D1082814D2DFE800F0040624
:10232000080A0C0E101206200CE007200AE0042018
:1023300008E0052006E0012004E0002002E0032080
:1023400000E00220A1F5134C45F2103245F2105680
:10235000BCF1410C07D0B94205D0914203D0B14243
:1023600001D0A1427BD1082812D2DFE800F011048D
:1023700006080A0C0E1080230AE0402308E0C02360
:1023800006E0202304E0602302E0A02300E0E02335
:10239000B14202D14FF4585000E03620914205D0AE
:1023A000B14203D0A14201D043F00803B94201D1A8
:1023B00043F00203194600F0F5F9AA88A2420AD0B8
:1023C00098062888698802D5884202D303E08842AB
:1023D00001D9298068806889B24241D100F0CCF9E6
:1023E000002000F0BDF96889401C80B200F0C4F9FB
:1023F000002000F0B5F96889801C80B200F0BCF9BB
:102400002888401EC0F30F2000F0AAF96889C01C7C
:1024100080B200F0B1F92878401EC0B200F0A0F9F7
:10242000A88900F0A9F9002000F09AF9A889401CB9
:1024300080B200F0A1F9002000F092F9A889801C78
:1024400080B200F099F96888401EC0F30F2000F0B8
:1024500087F9A889C01C80B200F08EF922E028E03C
:1024600000F08AF9002000F07BF9002000F078F9F4
:102470002888401EC0F30F2000F072F92878401E13
:10248000C0B200F06DF9A88900F076F9002000F0E4
:1024900067F9002000F064F96888401EC0F30F203F
:1024A00000F05EF9A878BDE8F040401EC0B200F030
:1024B00057B9082812D2DFE800F0040608110A0C08
:1024C0000E1030230AE0102308E0202306E0382312
:1024D00004E0282302E0182300E00823BDE8F040D0
:1024E000032043F4805100F05DB900002C2200204D
:1024F0002DE9F043DFF844810C460246050AB8F89E
:1025000004104046A1F5134340894FEA1429413B8A
:1025100017D0A1F5A643103B13D04646A1F5D047EE
:10252000B3793688B61A761E043F0ED0A1F5C85787
:10253000633F1ED0A1F5AA47103F57D0012B72D0A0
:1025400072E000F019F9284605E0012B00D1B2B283
:1025500000F012F9100A00F003F9D0B200F000F90F
:10256000B8F80C0000F008F9484600F0F9F8E0B2BD
:102570002AE06BB300F000F9284600F0F1F8D0B281
:1025800000F0EEF8B8F80000401EC0F30F2000F095
:10259000E7F898F80000401EC0B200F0E1F8B8F883
:1025A0000C0000F0E9F8484600F0DAF8E0B200F07C
:1025B000D7F8B8F80200401EC0F30F2000F0D0F8A2
:1025C00098F80200401EC0B2BDE8F04300F0C8B861
:1025D000B2B200F0D1F8002000F0C2F8002000F004
:1025E000BFF8100A00F0BCF8D0B2D6E700F0C4F88B
:1025F000284600F0B5F8B8F80A00401C80B200F098
:10260000BBF8D0B200F0ACF8B8F80C0000F0B4F8A9
:10261000484600F0A5F8B8F80C00401C80B200F065
:10262000ABF8A4E7FFE7B2B2114600F0BBF8B8F888
:102630000C002146BDE8F04300F0B4B82C22002085
:102640002DE9F84F82461F460C468B46580700D0AE
:10265000012000EBD700790810FB01F0203AC0B24E
:1026600002F0FF090026009041E00C2F10D0102F3F
:1026700012D0182F3ED1204909EBC90001EB800090
:102680004FF00008855D28060AD51C4802880BE03B
:1026900009EB49001A49F1E71A4901EB0910EFE784
:1026A0000A9828B91548428821465046FEF72CFC66
:1026B0006806050E1448641CA4B24088A04219D9CB
:1026C000A4EB0B00B84209D10AF101001FFA80FA0D
:1026D0000D485C46018851450CD906E008F101001F
:1026E00000F0FF08B8F1080FCDD3761CF6B20098C1
:1026F0008642BAD3BDE8F88F3C7A000890000020EB
:10270000D86F00084C7400082C2200202DE9F84FE7
:10271000044600F0FF0810190D46DDE90A761FFA9D
:1027200080FA58191FFA80F94FF0000B11E0544558
:1027300002D3E819444685B24D450FD23B4629469F
:102740002046CDF800B0FFF77BFF04EB570084B2C2
:10275000761C3278A2F120005E28E8D9BDE8F88F17
:1027600001B5BDF80000ADF80000BDF800004FF065
:10277000D841A1F8800008BD01B5BDF80000ADF852
:102780000000BDF800004FF0D841A1F87E0008BD60
:1027900003484FF0D8410089A1F87E00704700003F
:1027A0002C2200204FF0D84222F87E0F5180704733
:1027B0007CB50121202000F05DF801218DF8041086
:1027C00000208DF806008DF807100A4E4FF40074B3
:1027D0008DF80500009469463046FEF75BFA650007
:1027E000694630460095FEF755FA02481A300480D3
:1027F00005807CBD00140240FEE7704730B50F2312
:10280000C27801780125FAB1144A126801F1E02179
:1028100002F4E062C2F5E062C2F30722C2F10404EE
:10282000D3404278A24084781C401443220181F8AE
:102830000024007800F01F018D404009800000F165
:10284000E020C0F8005130BD01F01F00854048096C
:10285000800000F1E020C0F8805130BD0CED00E0B8
:102860000249084302490860704700000000FA0569
:102870000CED00E0044A0029116801D0014300E09A
:10288000814311607047000030380240044A00293B
:10289000116801D0014300E08143116070470000DE
:1028A00038380240044A0029116801D0014300E091
:1028B000814311607047000044380240044A0029F7
:1028C000116801D0014300E08143116070470000AE
:1028D0002438024070B5204B1968204C11F00C01CF
:1028E00004D06610042903D0082903D004601BE03B
:1028F000066019E0184A121F1168C1F3805511686B
:1029000001F03F0115B1B6FBF1F101E0B4FBF1F1CB
:1029100014681268C4F388146143C2F30142521C64
:102920005200B1FBF2F1016019680F2202EA1111A5
:102930000B4A545C0168E14041601C68072505EAC8
:102940009424145D21FA04F484601B6805EA53336F
:10295000D25CD140C16070BD083802400024F40050
:10296000140000202DE9FC470024814600942046F5
:10297000019400F0B5F8800102D50E20BDE8FC8777
:10298000264D6946288980B2FEF7E8F80028F5D17F
:102990003720234E01994FF0060A4FF040084FF4BC
:1029A0008067B9F1010F1ED0C90334D52989C6F853
:1029B00008800904C6E90010C6E90347304600F064
:1029C000CFF83720FDF702FD0028D7D1C6F80880E0
:1029D000C6E9004AC6E90347114800F0C1F80620DD
:1029E000FDF7F4FCCAE7490315D52989C6F8088024
:1029F0000904C6E90010C6E90347094800F0B0F829
:102A00003720FDF7E3FC0028B8D10220C6F8088083
:102A1000C6E9000ADEE72520B0E700002C00002010
:102A2000A80100200149086070470000382C0140CF
:102A30000149086070470000382C01400149C1F885
:102A4000A0007047008025420149086070470000DF
:102A50008C85254210B50A4A01681160121D416833
:102A60001160131D1968D0E902242243D0E9044003
:102A7000044321F0F70122430A431A6010BD00000D
:102A8000242C014010B50121CC022046FFF716FF8F
:102A90002046BDE810400021FFF710BF0148006844
:102AA000C0B27047102C0140034A01460020126852
:102AB0000A4200D001207047342C0140034A0146ED
:102AC000002012680A4200D001207047342C0140D7
:102AD0000248006800F0030070470000002C01402D
:102AE00008B5024908440090006808BD142C014054
:102AF00010B55020EFF3118480F31188BFF34F8F8E
:102B0000BFF36F8F00F0A2FC84F3118810BD0000AA
:102B1000044A0029116801D0014300E0814311609B
:102B2000704700003C2C014030B5094B1A6847F64D
:102B3000FF618A43017D8468C568214344682C4352
:102B4000214304680069214301431143196030BDEA
:102B5000042C01400148006870470000802C0140AF
:102B600010B5084A01681160131D1968D0E90124E5
:102B70002243D0E9034004436FF30A0122430A438E
:102B80001A6010BD082C0140014908607047000020
:102B9000002C01402DE9F04101461948002440680D
:102BA000032813D018B1012801D0022825D1B1F58E
:102BB000805F0BD04FF400670025124EB9420ED152
:102BC0000120FFF7CFFE040003D016E02720BDE868
:102BD000F081357535607560C6E9025709E000205F
:102BE000FFF7C0FE040008D1357535607560B5602B
:102BF000F56004483561FFF797FF2046E7E70000DE
:102C00002C000020900100202DE9F0439549DFF8C9
:102C100058924F6880F856700989A0F85410D9F876
:102C200000100A0E94090470C2F38304447002F089
:102C3000030282700A0CC2700A0A02714171D9F84B
:102C40000430190E0901C180C288C3F3074142EA6A
:102C50001112C28001F00F010172C3F30721CA09EA
:102C60004272C1F380128272C1F34012C272C1F388
:102C700000120273002545734A464FF0010892681E
:102C8000140EC2F30746C2F3072C27B1012F02D05E
:102C9000022F39D050E08907090D0161D9B20369CB
:102CA00043EA81010161016941EA94110161C4F3C0
:102CB000C201017504F00701417571098175C6F300
:102CC0008201C175B107490F0176037E614643EA6F
:102CD000D11303760469067EB61C08FA06F3DF17E3
:102CE000641CA4FB036C05FB03C304FB0734077AD5
:102CF00008FA07F3A6FB037C036504FB03C306FB8A
:102D00000533C0E9127317E09906890A0161016968
:102D100041EA0421016101693143016103696146AE
:102D20005B1C45F10004E40444EA5334DB04C0E9CD
:102D300012344FF400730365C1F3801343768906A0
:102D4000490E00F81A1FD1B2027842EAD11200F8F7
:102D5000012B01F07F0100F8011BD9F80C20110EA6
:102D6000CB0900F8013BC1F3411300F8013BC1F36B
:102D7000820300F8013B8907090F01700378C2F351
:102D8000074143EA911300F8013BC1F3401303707C
:102D9000457001F001018170C2F30721CB09C370B6
:102DA000C1F380130371C1F340134371C1F30013E6
:102DB0008371C1F38103C37101F003010172C2F396
:102DC0004601417280F80A80274A103211680B0EC2
:102DD00003730B0C1B02C381C489C1F307231C437B
:102DE000C48109060161516804690B0E44EA03437A
:102DF00003610469C1F3074344EA032303610469DF
:102E0000C1F307231C430461017591680B0E4375E0
:102E10000B0C1B0683618469C1F3072344EA034357
:102E200083618369C9B243EA01218161D168836901
:102E300043EA11638361037FC1F3074243EA12133C
:102E400003771207120DC283C38BC1F3072213430A
:102E5000C383C1F3460180F8201080F82180284602
:102E6000BDE8F0832C000020080100201CB50020E4
:102E7000009001208DF804009DF80400012803D182
:102E8000684600F0A5FB08B1FF201CBD0098C0F308
:102E900043201CBD10B5FFF7E9FF042803D0FF282D
:102EA00003D0012010BD002010BD022010BD000085
:102EB0001CB500248DF800404FF44070FFF7D0FCA3
:102EC00031208DF8040006208DF805008DF80640AD
:102ED00001208DF8070001A8FFF790FC3B208DF83A
:102EE000040005208DF8050001A8FFF787FC00F01D
:102EF00043F9FFF7C7FD00F091F98DF800009DF848
:102F0000000058BB00F030F88DF800009DF800007C
:102F100020BB14480475046044608460C46004618C
:102F2000FFF702FE0F485838FFF76EFE8DF80000DD
:102F30009DF8000048B90B4800215838B0F85400FB
:102F4000000400F02FFB8DF800009DF8000028B968
:102F50004FF40060FFF71EFE8DF800009DF80000A2
:102F60001CBD0000900100202DE9F84F0120002435
:102F7000ADF80000FFF7ACFDA8B3DFF8E090D9F89A
:102F80000400042868D0364D4FF0C00A0026022005
:102F9000C5F808A0C5E900604FF48068C5E903687A
:102FA0002846FFF7DDFDFDF785FA04001DD1FFF788
:102FB00097FDA5F1900738600420FFF791FD786038
:102FC0000820FFF78DFDB8600C20FFF789FDF86041
:102FD000D9F804004F4650B1012808D0062806D081
:102FE000022804D013E0FFE72520BDE8F88F032076
:102FF000E5E80260402085E841011948083DFFF7F7
:10300000AFFD69460320FDF76FFA0400EDD1786843
:10301000042821D0BDF80000B86000042860092011
:10302000C5E9010AC5E903680D48FFF799FDFDF7F9
:1030300041FA0400D9D1FFF753FD094DA03D2860A6
:103040000420FFF74DFD68600820FFF749FDA860E8
:103050000C20FFF745FDE8602046C6E72C00002065
:10306000A801002030B51F4D04468FB04FF0FA5133
:103070002846FDF781FA00212846FDF793FA2846F5
:10308000FDF79AFA4FF0006000901748CDE901046F
:1030900000200121CDE903018902CDE90501890064
:1030A00007918900CDE908104FF440300A900420C0
:1030B0000B9003200C9048020D9080100E906946F2
:1030C0002846FDF72BFB012210212846FDF710FBB7
:1030D00020212846FDF702FB01212846FDF762FA70
:1030E0000FB030BD58640240802C014030B5204DF7
:1030F00004468FB04FF0FA512846FDF73DFA002103
:103100002846FDF74FFA2846FDF756FA4FF00060C3
:1031100000901848CDE9010440200390012004905C
:1031200000202915CDE90501890007918900CDE925
:1031300008104FF440300A9004200B9003200C90AC
:1031400048020D9080100E9069462846FDF7E6FA79
:10315000012210212846FDF7CBFA20212846FDF751
:10316000BDFA01212846FDF71DFA0FB030BD000061
:1031700058640240802C01407CB501210C20FFF7EF
:1031800079FB244D0C2208212846FDF7BFFD0C22B7
:1031900009212846FDF7BAFD0C220A212846FDF731
:1031A000B5FD0C220B212846FDF7B0FD0C2211467F
:1031B0002846FDF7ABFD184E0C2202213046FDF7E4
:1031C000A5FD4FF47060009002208DF805008DF889
:1031D000040000248DF8064001208DF807006946A0
:1031E0002846FDF757FD0420009069463046FDF75C
:1031F00051FDA81400908DF8074069462846FDF758
:1032000049FD0121C802FFF74DFB01218805FFF7A9
:1032100031FB7CBD00080240000C02402DE9FC5F40
:1032200000248DF800407B48762127460175046014
:1032300044608460C46025462646A0460461FFF7CA
:1032400073FC0320FFF7A0FC0120FFF7F7FBDFF87A
:10325000C4A14FF480610AF1180A5046CAF8004030
:10326000CAF80440CAF80840CAE90341FFF778FCED
:10327000A1464FF4803401E0641E11D08020FFF796
:1032800013FC0028F8D05CB140F2FF50FFF7CAFBF6
:1032900048468DF800009DF8000000285FD101E04D
:1032A0000320F6E74FF4D5705446CAF80000082012
:1032B0004FF0400BC4E9010B4FF00009C001C4E915
:1032C000039054481830FFF74BFC534B00224FF447
:1032D000803019689A4602E0DAF80010401E11F0BA
:1032E000450F06D008B1480706D5032204200192F5
:1032F00007E00028F0D1F8E7480605D50022402075
:103300000192FFF78FFB019A8DF800209DF80000D5
:1033100030B34846372184E803084FF48060C4E99D
:1033200003903C481830FFF71BFC3720FDF74EF8A0
:103330008DF800003748D94618300021372280E840
:1033400006024FF4806BC0E9031BFFF709FC37202E
:10335000FDF73CF88DF800009DF8000098B355E0AB
:103360002E4801214FF080484160E3E7294C0026B8
:1033700018343720C4F80890C4E90060C4E9036B2E
:103380005F462046FFF7ECFB3720FDF71FF88DF86E
:1033900000009DF8000090BB214948EA0100206030
:1033A0002920C4E90109C4E903672046FFF7D8FBD7
:1033B00000245146086810F0450FFBD0400703D5A4
:1033C0000324042002E00EE040F2FF50FFF72AFB46
:1033D0008DF800409DF8000088B90020FFF780FBC1
:1033E000C60F07466D1C1EB94FF6FF708542BDD350
:1033F0004FF6FF70854203D31B208DF8000005E0D7
:1034000017F0804F02D00548022141609DF800006E
:10341000BDE8FC9F90010020342C01402C000020CE
:10342000000010800748006810F0C05F08D006490F
:103430000120486103484FF0C2515830FDF79CB855
:1034400070470000006402402C00002070B54FF46B
:1034500080752846FFF732FB1F4C38B100202070E2
:103460002846FFF7E5FA012020612EE00220FFF751
:1034700025FB20B10220FFF7DBFA022024E0082020
:10348000FFF71CFB20B10820FFF7D2FA04201BE055
:103490002020FFF713FB20B12020FFF7C9FA0620F8
:1034A00012E01020FFF70AFB20B11020FFF7C0FA4E
:1034B000052009E04FF400752846FFF7FFFA20B118
:1034C0002846FFF7B5FA0720207000214CF23A3069
:1034D000FFF71EFB207870BD2C0000202DE9F05F67
:1034E0002D4FDDE90A464FF0000815469946824601
:1034F00087F80080C7F810804FF0010BC7F80CB0B8
:103500002649C1F80080594640F22A30FFF700FBF7
:1035100006FB04F15046FFF7A5FD0120FFF794FAE2
:103520007868022803D104026D0A45EAC9551C4F88
:103530004FF0400A1020C7F808A0C7E900404FF438
:1035400080693846C7E90389FFF70AFB1020FCF7BA
:103550003DFF00281ED1411E07F114006643E0E83C
:103560000216902102C00221444680E8120807F1A9
:103570001400FFF76FFA1220C7F808A0C7E900503F
:10358000C7E903493846FFF7EBFABDE8F05F1220C0
:10359000FCF71CBFBDE8F09F2C0000202C2C014044
:1035A000A8010020094910B50860072048604020A4
:1035B00088600020C8604FF4806008610846FFF70B
:1035C000CFFABDE810400720FCF700BFA80100209B
:1035D00070B5050019D00E48008901040D4801603E
:1035E0000D214160402181600021C1604FF4806164
:1035F0000161FFF7B5FA0D20FCF7E8FE040003D1E6
:10360000FFF76EFA2860204670BD262070BD0000CE
:103610002C000020A8010020084810B500210C2231
:10362000C0E900124022C0E9022111010161FFF747
:1036300097FABDE810400C20FCF7C8BEA801002096
:103640002DE9F04100256C1E2146154E00E0491E73
:10365000706928B9306918B9307808B90029F6D1ED
:10366000002777610F4800E0641E0168890401D5D6
:10367000002CF9D1F068012803D1FFF7CDFF0546F2
:10368000F7602C4300D1042540F2FF50FFF7CAF940
:10369000307810B13078BDE8F0812846FBE70000B3
:1036A0002C000020342C01402DE9F04100256C1E37
:1036B0002146154E00E0491E706928B9306918B9D5
:1036C000307808B90029F6D1002777610F4800E06B
:1036D000641E0168C90401D5002CF9D1F0680128E5
:1036E00003D1FFF799FF0546F7602C4300D104256D
:1036F00040F2FF50FFF796F9307810B13078BDE80E
:10370000F0812846FBE700002C000020342C01400B
:103710002DE9F05F3F4FDDE90A454FF000081646FE
:103720009946824687F80080C7F810800121F96029
:103730003949C1F80080012140F21A30FFF7E8F959
:1037400005FB04F15046FFF7D1FC0120FFF77CF99F
:103750007868022803D10402760A46EAC9562F4F38
:1037600010204FF0400910C7C2464FF4806B87E825
:10377000010E381F3F1FFFF7F3F91020FCF726FE5C
:10378000002844D12348C846391D0089D946000481
:1037900038603720C7F810B081E801053846FFF7D8
:1037A000DFF93720FCF712FE002830D1C7F8088077
:1037B0001720C7E90050C7E903A9C346D0463846D9
:1037C000FFF7CEF91720FCF701FE00281FD11920C2
:1037D000C7F808B0C7E900604646C7E9038938461C
:1037E000FFF7BEF91920FCF7F1FD00280FD107F112
:1037F0001402401E6543C2E900059020C2E902069A
:103800000120C2E904601046FFF724F93046BDE804
:10381000F09F00002C0000202C2C0140A80100206B
:103820000CB50022274900920192086840F48030CC
:1038300008604FF4A043086800F40030019000983D
:10384000401C0090019810B900989842F3D1086884
:10385000800334D5012001901A484030026842F0BC
:10386000805202601848026842F4404202601548E3
:10387000083002680260026842F400420260026896
:1038800042F4A0520260031F104A1A600A6842F014
:1038900080720A600A689201FCD50D4940F20572F7
:1038A0000A60016821F003010160016841F0020132
:1038B00001600168C1F381010229FAD10CBD0192B6
:1038C0000CBD000000380240007000400854400762
:1038D000003C024010B503F0D5F9012803D0BDE843
:1038E000104002F01FBF10BD124810B5016841F42E
:1038F000700101601048016841F0010101600E4A49
:1039000000210832116002680C4B1A400260031D4E
:103910000B4A1A60026822F48022026006480C30CA
:103920000160FFF77DFF03494FF0006080390860B8
:1039300010BD000088ED00E000380240FFFFF6FEF9
:1039400010300024FCF7FAFFFDF7BEF8FCE7002971
:10395000818902D041F4005101E021F400518181BC
:1039600070470246002012880A4200D001207047AA
:1039700010B5C1F3421301F01F040121A140012B36
:1039800007D0022B07D01430002A026805D00A4362
:1039900004E00C30F8E71030F6E78A43026010BD0F
:1039A0007FB50446008A0D46C98820F44050014383
:1039B0002182A08941F20C618843A9882A89114398
:1039C0006A8902431143A181A08A20F44071A88929
:1039D0000843A0826846FEF77DFF1A48844202D061
:1039E0001948844201D1039800E00298A189090492
:1039F00000EBC00101EB0010296801D5490000E08F
:103A00008900B0FBF1F06422B0FBF2F109010B096F
:103A10006FF018056B4300EB8300A3891D044FF082
:103A2000320306D503EBC000B0FBF2F000F0070054
:103A300005E003EB0010B0FBF2F000F00F000843CC
:103A400020817FBD0010014000140140C1F3080136
:103A500081807047FEE700000FB4054B10B503A945
:103A6000044A029800F018F810BC5DF814FB00003E
:103A7000CD5300080001002002E008C8121F08C151
:103A8000002AFAD170477047002001E001C1121FDF
:103A9000002AFBD1704700002DE9FF4F8DB09B46F7
:103AA0000F460446002606E025280BD05A460F99FB
:103AB0009047641C761C20780028F5D111B0304660
:103AC000BDE8F08F0025A8460122984900E0054393
:103AD00014F8013F203B02FA03F00842F7D12078A6
:103AE0002E2817D114F8010F45F004052A280ED00E
:103AF0006FF02F022078A0F1300109290AD808EBD5
:103B0000880102EB410100EB0108641CF2E757F861
:103B1000048B641C20786C280DD004DC4C2812D057
:103B20006A2811D104E074280DD07A280CD10AE05B
:103B300045F4001507E0617845F48015814202D113
:103B4000641C05F58015641C2278692A45D008DCC0
:103B5000002AB3D0582A69D0632A10D0642A08D129
:103B60003BE0702A67D0732A13D0752A5CD0782A7C
:103B70005CD010465A460F999047761CD3E017F850
:103B8000040B8DF8000000208DF80100E9460120AB
:103B900003E057F8049B4FF0FF3069074FF0000532
:103BA00001D40AE06D1C45450DDA8542FADB19F8AF
:103BB00005100029F6D106E06D1C8542FCDB19F8E2
:103BC00005100029F8D12E4404E019F8010B5A46DB
:103BD0000F9990476D1EF8D2A5E00A200021CDE98B
:103BE0000801C5F3025002280DD001CFC117031EF2
:103BF00071F100030DDA4FF0000CD0EB0C006CEB10
:103C000001012D2308E0FF1D27F00707F7E8020157
:103C1000EDE72B0504D52B238DF8283001233BE05D
:103C2000EB0739D02023F7E70A2000E0102000211D
:103C3000CDE9080107E01020002145F00405CDE999
:103C400008014FF00808C5F3025002280FD001CF39
:103C500000214FF0000A2B071FD5702A0DD0DDE997
:103C600008C38CF0100C5CEA030C0CD015E0FF1DAF
:103C700027F00707F7E80201EBE740228DF828203C
:103C80004FF0010A0BE050EA010306D030238DF813
:103C900028308DF8292002239A46582A04D024A2DD
:103CA0000DF120090B9209E026A2F9E7DDE90823CE
:103CB000FCF7E2FA0B9B9B5C09F8013D50EA01021C
:103CC000F4D1ADEB090020300890680701D44FF023
:103CD00001080899884502DDA8EB010000E00020FA
:103CE0008046002506E00AA85A46405D0F99904795
:103CF0006D1C761C5545F6DB04E030205A460F99C2
:103D00009047761CB8F10001A8F10108F5DC05E048
:103D100019F8010B5A460F999047761C0899481ECE
:103D200008900029F4DC641CC5E6000009280100A5
:103D30003031323334353637383961626364656621
:103D400000000000303132333435363738394142E3
:103D5000434445460000000010B504460020207191
:103D6000401E2063204601F0C4FC08B1032010BDB2
:103D7000B4F83202A0F52A41553901D0022010BD15
:103D800094F86A00B4F86B1040EA01210848B0EBDF
:103D9000012F08D094F88610B4F8872041EA022158
:103DA000B0EB012F01D1002010BD012010BD00009B
:103DB0000046415400E0401C02780AB18A42FAD120
:103DC000D0B270478269891E921E8A4201D80020B3
:103DD0007047C26A807801FB002070472DE9F05FD0
:103DE0008146488B884680BB98F80000DFF864A0C5
:103DF00000F03F00401E00EB800101EBC0040120F9
:103E000000254FF6FF7B1AF8052002EB08010E880B
:103E100070B1FF2C19D2304601F044F9074639F849
:103E20001400641C01F03EF987420ED1304601E0D7
:103E30005E450AD16D1C0D2DE5D398F8001049069A
:103E400006D528B139F8140010B10020BDE8F09F64
:103E50000120FBE7988700082DE9F0410F00064696
:103E600006D001F00BFB022809D20120BDE8F08149
:103E7000356915B1B069A84207D8012505E0411C94
:103E8000F4D0B1698142F1D83D462C46B069641C3A
:103E9000A04202D80224022D0AD32146304601F066
:103EA000EDFA38B1411CE1D00128DFD0AC42EDD1B0
:103EB0000020DBE76FF070422146304601F093FEB0
:103EC00030B957B122463946304601F08CFE20B158
:103ED00001280DD001242046C8E734617069411CD7
:103EE000F9D0401E7061707940F001007071F2E706
:103EF0004FF0FF34EFE700002DE9F35F88460E68CE
:103F000000E0761C30782F28FBD05C28F9D0009890
:103F100000242546D0F81CB0705D6D1C202825D3E8
:103F20002F2823D05C2821D0FF2C3FD2A0F1810183
:103F30007D290BD8715D6D1C01EB0020A1F14002C1
:103F400080B23F2A02D380397F292FD2012101F08C
:103F500063F807002AD0802F04D2014667A0FFF73C
:103F600029FF18BB2BF81470641CD5E77219C8F828
:103F70000020202801D2042516E0002514E00BEBD8
:103F8000440030F8020C20280DD02E280BD06CB144
:103F900000212BF8141000980B222021806901F0D9
:103FA000A1FB002706E0641E002CE8D10620BDE836
:103FB000FC9F7F1C3BF817002028FAD02E28F8D051
:103FC0001FB145F0030500E0641E2CB10BEB44006B
:103FD00030F8020C2E28F7D14FF00008C1464FF000
:103FE000080A3BF817607F1C06B3202E03D02E2E44
:103FF00004D1A74202D045F00305F2E7D04501D233
:10400000A74219D1BAF10B0F0ED0A74201D045F04B
:1040100003050BD84FEA896027464FF008084FF098
:104020000B0A4FEA1069DCE745F003050098806948
:104030000178E5293DD03EE0802E08D3304601F0DE
:1040400031F8002100F0E8FF064645F00205FF2E9A
:104050000FD9AAF10100804503D345F00305D046EE
:10406000BFE70098310A826902F8081008F10108D8
:1040700018E026B1314624A0FFF79CFE18B15F2658
:1040800045F003050EE0A6F14100192802D849F0D9
:10409000020907E0A6F16100192803D8203E49F083
:1040A0000109B6B20098816901F8086008F10108B9
:1040B00097E705210170BAF1080F03D14FEA896033
:1040C0004FEA1069C9F38100032803D06FEA0901A0
:1040D000890701D145F00205A90709D409F00301B8
:1040E000012901D145F01005012801D145F008054D
:1040F00000988069C572002059E70000222A3A3CE6
:104100003E3F7C7F000000002B2C3B3D5B5D0000B0
:104110002DE9F0470446002100F0A8F9002857D106
:10412000FF254FF6FF79A846A4F820902169206862
:1041300001F0DFFA07004AD16669307848B1F17AB8
:10414000E52801F03F0139D00A0704D50F2935D100
:1041500005E004273BE00F2901D0D5B11EE0E2695C
:104160007AB3410606D596F80D8020F04000E1882C
:1041700005462184A84209D1717B414506D13146CB
:104180001046FFF72BFE08B16D1E00E0FF25EDB2D3
:1041900017E0304601F09DFE404518D0A069C17A75
:1041A000C9070BD10B210022491E06D316F8012B9B
:1041B00010F8013BD21AF7D000E042B1FF25A4F875
:1041C00020900021204600F005F80700AED03846C8
:1041D000BDE8F0872DE9F041C78804467F1C38040C
:1041E0000E46000C33D0216989B3206842895209F8
:1041F000B7FBF2F302FB1372002A59D1491C21616B
:10420000E16809B3428983785209B7FBF2F25B1E79
:104210001A424DD101F032F9054601281CD9681C1B
:1042200032D020688169A9423CD886B1E168FFF7A5
:1042300013FE05000ED0012D0ED0681C24D020687E
:1042400001F0ACFE00BB09E00089B84230D8042080
:10425000BDE8F0810720FBE70220F9E72068002194
:104260004289343001F03EFA29462068FFF7AAFD62
:10427000216800264FF0010808630CE080F80480F4
:10428000206801F08BFE08B10120E1E72068016B96
:10429000491C761C016320688178B142EED8016B1D
:1042A000891B0163E56029462068FFF78BFD2061CB
:1042B000E780206841894909B7FBF1F201FB1271DF
:1042C000342202EB4111084460610020C0E7000085
:1042D0002DE9FF5F04460C22D4E90676394668468C
:1042E00001F0F8F99DF80B00C00718D00020F87213
:1042F0000125E0612B4632466946384601F078F8E0
:104300002046FFF705FF10B96D1C642DF2D3642D14
:104310000BD004280AD19DF80B00F872E6619DF8D5
:104320000B0080070FD5002004E0072004B0BDE893
:10433000F09F401C36F810100029FAD10D211930D9
:10434000B0FBF1F500E001250021204600F08EF8D9
:1043500088B900272169206801F0CBF958B9616953
:104360000978E5290AD049B1002701212046FFF745
:1043700031FF0028EED0042804D004E07F1CAF42B7
:1043800001D0F2E7072006006BD16D1E50D0E08807
:10439000411B204600F06AF8060062D1A06901F0D6
:1043A00098FD4FF6FF7A03902169206801F0A1F98A
:1043B000060056D16169D4F81C90039848730F2009
:1043C000C872002008738876EEB2C876701E00EBC3
:1043D000800202EBC0030022DFF88CB001F101087B
:1043E00001E0504502D039F813005B1C1BF802C0F5
:1043F00001F80C001BF802704FEA102C07F808C0F7
:1044000000B95046521C0D2AEBD3504502D039F862
:10441000130008B946F040060E70216801200871AB
:1044200000212046FFF7D6FE06001AD16D1EBBD133
:104430002169206801F05DF9060012D120220021D7
:10444000606901F04FF9D4E905010B2201F042F94E
:10445000A0696169C07A00F0180008732168012022
:104460000871304662E700009887000870B5C18087
:1044700083680D460446012B3ED02068816999422D
:104480003AD923B90178032907D1836A2BB141892D
:104490008078490911FB00F610E00189A9422BD967
:1044A000806A11E000F0EAFF0346401C22D0022B94
:1044B00022D32068806998421ED9AD1B2068B5427E
:1044C0001946EFD2FFF77EFCE360A8B121684A8964
:1044D0005209B5FBF2F21044206148894009B5FB4E
:1044E000F0F200FB1250342202EB401008446061ED
:1044F000002070BD012070BD022070BD10B50124E8
:1045000018B9FEF7D5FC00B90024204610BD000004
:1045100010B5144602004FF0040014D191B10129E6
:104520000AD0022902D003290CD103E04FF4007015
:10453000208007E0012004E00349002307C9FBF7BE
:104540009BFE2060002010BD800100202DE9F0417D
:104550000E460100ADF5007D1D4614464FF00400E7
:1045600019D1B1074FF4007019D0002780460FE031
:104570002246641C012369460020FFF7E7FF07007D
:1045800008D1424669463046FBF7A7FE06F500769D
:104590006D1EEDD238460DF5007DBDE8F081CDE908
:1045A0000003520200233046FEF798FF38B9FFF7A8
:1045B00047F80446FEF76EFC0028FBD10CB104203E
:1045C000E9E70020E7E701004FF0010000D10020FB
:1045D0007047F0B50E460146ADF5017D1D0014464D
:1045E0004FF004002CD0002917D1B0074FF400770A
:1045F00016D000200FE03A4631466846FBF76DFEC4
:104600002246641C012369460020FFF7E2FF0028D0
:1046100003D106F500766D1EEDD20DF5017DF0BDDE
:10462000CDE90073520200233046FFF771F838B924
:10463000FFF73AF80446FEF72DFC0028FBD10CB139
:104640000420EAE70020E8E770B5054600F0A8FB83
:10465000040009D1284601F0C1FF040004D1002163
:104660002868296001F0C3FC204670BD2DE9F74F92
:1046700086B090460798012803D9132009B0BDE8F9
:10468000F08F06A800F072FF002801DA0B20F5E792
:10469000F84951F820604EB100213170C0B202904B
:1046A000FFF72CFFC10703D00320E7E70C20E5E765
:1046B000400701D50A20E1E706F10A02022102982B
:1046C000FFF726FF002876D17089B0F5805F72D899
:1046D000B0F5007F6FD303AA01210298FFF718FFFE
:1046E0000028F0D103988028F4D3079909B100215C
:1046F00000E03F218A46A0EB0A01A8F1010218EA76
:10470000020F039102D1B8F1000F13D170894FF459
:10471000FA62400AB2FBF0F0B1FBF0F20020D64B97
:1047200000E0401C33F810509542FAD8D24A1632B5
:1047300032F81080B8F5007F02D37289B8FBF2F826
:10474000B8F1000F12D0B8F1800F01D98020804657
:10475000B1FBF8F0012740F6F672904200D3022731
:104760004FF6F672904203D3032725E00120EEE7CF
:10477000032F21D0012F29D04200121D7089521E13
:104780000244B2FBF0F90125AA03B2FBF0F0049059
:104790000AEB050B049A0BEB0900841804EB0802E2
:1047A000A2EB0A00884244D86A4603210298FFF728
:1047B000AFFEB0B910E0FFE07289072303EB800081
:1047C0001044B0FBF2F920250020E0E700EB4000A8
:1047D000401C4208D21CD1E7009810B1B0F5004F40
:1047E00001D9012000902118401E491E8143081B59
:1047F0000090032F10D0814403980499421BA2EB30
:104800000902521AB2FBF8F10591022F07D0032FCB
:104810000AD0012F11D015E005448344ECE740F69F
:10482000F672914205D30DE008464FF6F6718842C4
:1048300001D20E2022E70C240AE0B0F5803F06D218
:10484000012405E0B0F5803F01D2042400E00624F5
:10485000079808B1F02038E0728906F13400002191
:10486000019000F03FFF06F5F97001214170817061
:104870000022C2700471FE214171039B0AEB030107
:1048800043F6C163B1FBF3F13F2343EA9104009186
:104890008471C171037242728272C2720399017390
:1048A0000A0A42730A0C8273090EC173552086F8F6
:1048B0003202AA2086F83302DDE90110012300222A
:1048C000FFF787FE002877D1F820019006F1340425
:1048D00072890021204600F005FF0B2267A12046C7
:1048E00000F0F8FE7089E072000A207384F80D80F1
:1048F000A573280AE07301202074032F0BD0400217
:104900006074000AA0740398B0F5803F05D2E0748B
:10491000000A20750CE00020F2E784F82000010A6C
:1049200084F82110010C84F82210000E84F8230072
:10493000019860753F20207600206076FF21A176E7
:10494000E07684F81CA04FEA1A2060774FEA1A40FC
:10495000A0774FEA1A60E07700F004FE8021292258
:104960000090032F29D084F82700030A84F8283008
:10497000030C84F82930000E84F82A0084F816907D
:104980004FEA1920E07584F8241084F826201322B9
:104990003DA104F12B0000F09DFE552084F8FE019E
:1049A000AA2084F8FF010123524621460298FFF70E
:1049B00010FE002800D136E0D9E084F84300030A55
:1049C00084F84430030C84F84530000E84F8460027
:1049D00084F824904FEA192084F825004FEA194002
:1049E00084F826004FEA196084F82700022084F832
:1049F0002C00002084F82D0084F82E0084F82F006D
:104A0000012384F8303084F83100062384F83230F2
:104A100084F8330084F8401084F8422013221FA148
:104A200004F14700B7E7032F06D101230AF106027C
:104A300021460298FFF7CDFD5D464FF0000B7289CD
:104A40000021204600F04EFE01980090032F31D047
:104A5000012F2DD06FF0FF010143009121700098CC
:104A6000000A60700098000CA0700098000EE070C2
:104A700037E0000098000020A6870008EBFE904D6C
:104A800053444F53352E30004E4F204E414D45205C
:104A90002020204641542020202020004E4F204E30
:104AA000414D452020202046415433322020200013
:104AB0004949D1E760F0FF00009020700098000A9B
:104AC00060700098000CA0700098000EE070FF204D
:104AD00020716071A071E07120726072A0720F206D
:104AE000E0722A466D1C012321460298FFF771FDF2
:104AF000E8BB72890021204600F0F4FD012009E0A6
:104B00002A466D1C012321460298FFF762FD70BB07
:104B10000098401C00904845F2D30BF101005FEA79
:104B2000000B8CD0032F09D0049E2A466D1C012354
:104B300021460298FFF74DFDC8B901E04646F4E76B
:104B4000761EF2D1032F3CD152202070607061227A
:104B5000A2704120E070722184F8E41184F8E5111C
:104B600084F8E60184F8E7210598401E00E030E073
:104B700084F8E801010A84F8E911010C84F8EA11CB
:104B8000000E84F8EB01022084F8EC01002084F888
:104B9000ED0184F8EE0184F8EF01552084F8FE0160
:104BA000AA2084F8FF0101230AF10102214602989C
:104BB000FFF70FFD01230AF1070221460298FFF7D4
:104BC00008FD002211460298FFF7A2FC00283FF4DE
:104BD0005EAD012052E5000000FFFF002DE9F74126
:104BE00081B0904602980090684600F0BFFC040037
:104BF00003D50B2004B0BDE8F081144E002756F811
:104C0000245025B1E86800F037FA88B12F70019977
:104C100029B101F80C7BE0B200F024FA40B1019810
:104C200046F8240010B1B8F1010F03D00020E1E7ED
:104C30000220DFE7002202A901A800F05BFA044687
:104C40000146019801F0D3F92046D3E798000020EF
:104C50002DE9F747ADF50D7D06000ED04FF00008A9
:104C600002F01F0727F001028EA980A8C6F8008075
:104C700000F040FA050005D08CE009200DF5107D0C
:104C8000BDE8F08789A88690CDF81CD280A88E99BF
:104C900000F068FB859C050001D104B9062517F0DA
:104CA0001C0F4ED055B1042D03D180A8FFF710FB87
:104CB0000546859C47F0080745B16BE0E07A10F0A7
:104CC000110F48D1780701D5082563E0380748D58A
:104CD00000F048FCA073010AE173020C2274030E79
:104CE0006374A075E1752276637684F80B8084F88E
:104CF0001C8084F81D8084F81E8084F81F80214663
:104D0000809800F051FC81460021204601F0D9F83E
:104D100080990120B9F1000F087120D08098494690
:104D2000D0F830A001F09CF8050033D18099A9F1AA
:104D3000010008615146809800F0DBFC05000CD0B2
:104D400028E03DBBE07AC10601D5042522E0B90781
:104D500003D5C00701D007251CE0380701D547F06F
:104D6000200780982146006BC6E90704B77186F8D2
:104D700007804746809800F017FC3061207FD4F808
:104D80001D1040EA0120C6E90270B76180983060CA
:104D9000C088B0802946809801F029F928466DE73F
:104DA00070B5044601F01AFC050048D1A0798106CF
:104DB00045D5400612D52068012304F1240140782E
:104DC000A269FFF706FC28B10121206801F00FF964
:104DD000012070BDA07920F04000A071E169206839
:104DE00000F087FC05002AD1256AE87A40F020000F
:104DF000E872207B2877A089000A6877E068000CB9
:104E0000A877E068000EE8772846216901F059F894
:104E100000F0A8FBA875010AE975010C2976000EBF
:104E200068760020A874E874A07920F02000A071B2
:104E3000216801200871206801F058F805462946CC
:104E4000206801F0D4F8284670BD2DE9F84F894656
:104E500000219A4615460446196001F0BFFB060082
:104E600006D03146206801F0C2F83046BDE8F88F20
:104E7000E17921B1206801F0BAF8E079F6E7A0798C
:104E8000800705D40721206801F0B1F80720EDE77D
:104E9000A06804F1240142194FF0010B00918242F5
:104EA0006AD3A6E02268A0685189B0FBF1F301FB48
:104EB0001303002B7AD1B0FBF1F193785B1E1940FC
:104EC00011F0FF0612D108B1616902E0206928B92A
:104ED00000211046FEF7C0FF00284DD001282DD03C
:104EE000411C58D06061216901B92061A079400658
:104EF0000BD520680123A26940780099FFF769FB70
:104F0000C0BBA07920F04000A07161692068FEF765
:104F100059FF98B100EB060820684189B5FBF1F70D
:104F20004FB38178F2198A4200D98F1B40783B46F3
:104F300042464946FFF74DFBE0B907E00220E07129
:104F40000221206801F053F802208FE7A169A1EB4C
:104F50000800B8420AD221684A8900FB02910098F1
:104F600000F0B8FBA07920F04000A07120684689CD
:104F70007E4334E00FE000E03EE0A269424513D0FA
:104F8000D4E9021291420FD240780123424600999F
:104F9000FFF7DCFA40B184F807B00121206801F086
:104FA00026F8012062E701E0C4F818802068A168B3
:104FB0004089B1FBF0F200FB1212861AAE4200D912
:104FC0002E46B1FBF0F200FB121020443246494657
:104FD000243000F07FFBA07940F04000A071A06871
:104FE000B1443044A060DAF800008119AD1BCAF862
:104FF0000010002D7FF456AFD4E90201884200D999
:10500000E060A079002140F02000A071206800F04D
:10501000EEFF00202AE7000070B580281BD345F280
:10502000205409B10D4D00E00D4D00231022E11A6E
:1050300001EBD17103EB610135F82160864206D0A6
:1050400001D20B4600E00C46521EF0D104E01AB12A
:1050500005EB8100408870BD002070BD56DC010862
:10506000D287000810B50C46012001F071FB2060CA
:10507000002800D0012010BD10B501F0D7F80120A4
:1050800010BD00231A46194601F0CABC10B5002312
:105090004FF47A72194601F0A5FB012800D00020D8
:1050A00010BD000070B5802806D2A0F16101192959
:1050B00001D8203880B270BD0C230C4D00224FF473
:1050C000F774A11A02EB510135F81160864206D03F
:1050D00001D20A4600E00C465B1EF2D170BD002BE7
:1050E000FCD0034830F8110070BD0000DA3003082E
:1050F000B63403082DE9FF474FF0000A0746C0F811
:1051000000A01646084600F031FA050003D50B2032
:1051100004B0BDE8F087904850F82540ACB1204677
:1051200000F04BFA98B13C60207820B16078FFF72E
:105130004AFAC1070DD084F800A0E8B26070FFF70A
:10514000DDF9C1070AD00320E2E70C20E0E70F20D9
:10515000DEE70EB1400704D40020D9E71EB14007B6
:1051600001D50A20D4E7607804F10A020221FFF792
:10517000CFF9A0BB6089B0F5007F31D3B0F5805F77
:105180002ED8002529462046FEF7E6FD012822D12B
:1051900000206E4604EB001191F8F62101F5F9713B
:1051A0002AB10A7AD1F8091042EA012100E000216F
:1051B00046F82010401C0428ECD3002756F827504E
:1051C00025B129462046FEF7C7FD00E0022048B180
:1051D0007F1C042FF2D3032802D0E8BB02E0FFE7D4
:1051E000012095E7B4F83F006289904263D1B4F89A
:1051F0004A0028B994F85800D4F8591040EA012020
:10520000E06194F844708146E770012F01D0022FCD
:1052100051D194F841604743A670EEB1701E06422A
:1052200049D1B4F845104FEA521CB1FBFCF00CFB1D
:105230001010218180B9B4F8470028B994F85400BF
:10524000D4F8553040EA0320B4F8423023B1B1FB22
:10525000FCFC03EB070800E02DE0C44460452AD3C2
:10526000A0EB0C00B0FBF6F028B3012640F6F67870
:10527000404500D302264FF6F678404500D303267A
:10528000801CAC44C4F82CC02B44A061C4E9085372
:10529000032E12D079B1D919A162022E18D000F0D4
:1052A000010100EB400001EB5000401E1044B0FB38
:1052B000F2F149450ED90D202AE70029FBD194F8D7
:1052C0006010D4F86130800041EA0321A162ECE76C
:1052D0004000EAE74FF0FF3060612061802060719C
:1052E000032E30D1B4F8640001282CD12046691C6B
:1052F00000F0FFF938BB84F805A0B4F83202A0F53D
:105300002A4155391FD194F83400D4F8351040EAB9
:1053100001201249884216D194F81802D4F81912C3
:1053200040EA01200E4988420DD194F81C02D4F8BD
:105330001D1240EA0120606194F82002D4F8211285
:1053400040EA0120206104492670091F0888401C9A
:105350000880E08000E70000980000205252614180
:105360007272416173B50446019908782F2801D003
:105370005C2801D1491C01910025A56001980078A5
:10538000202805D200212046FFF770F865617CBD1A
:1053900001A92046FEF7B0FD0028F8D12046FEF70F
:1053A000B7FEA169C97A28B10428F0D14907EED423
:1053B00005207CBD4907FCD46169C87AC006F7D5D1
:1053C000206800F0F1F8A060E2E7000070B5074D3A
:1053D0000446C1B22846FEF739FB80212846FEF775
:1053E000C0FA0028F9D0204670BD0000001001402E
:1053F0007CB516461C4605460B2200F06BF9052CC1
:1054000011D91D4A0CE00021B61C2346044663F363
:105410005F044008E30300D55440491C1029F4D32D
:1054200030880028EFD107226B4604F00F0030309F
:10543000392800D9C01D9854521E2409F5D17E2068
:1054400000219854541E06E081387D2802D8A142DC
:1054500006D0491C491C914202D2685C2028F3D135
:10546000082A02D2985C521C00E020206854491C93
:105470000829F5D37CBD0000211001002DE9F04181
:105480000D46044602290BD3A069A84208D920780A
:105490004FF0FF36012807D0022834D0032846D029
:1054A00001263046BDE8F081608905EB5507B7FB62
:1054B000F0F0616A0144204600F01BF90028F0D1A9
:1054C0006089B7FBF0F100FB11717F1CB7FBF0F0B6
:1054D000214491F83480616A0144204600F009F9C2
:1054E0000028DED16089B7FBF0F100FB1170204489
:1054F00090F8341048EA0120E90701D00609D0E706
:10550000C0F30B06CDE76089616A4008B5FBF0F097
:105510000144204600F0EDF80028C2D161896800FE
:10552000B0FBF1F201FB12002044868EB9E76089DE
:10553000616A8008B5FBF0F00144204600F0D9F81C
:105540000028AED16189A800B0FBF1F201FB120086
:10555000204490F83410D0F8350041EA002020F0C3
:1055600070469EE7004870470000214610B503468C
:105570004FF0FF301C68002C13D0214600E0491C7E
:105580000A78202A0ED33A2AF9D114F8012B303A9E
:105590000A2A06D28C4204D1022A02D2491C1046A1
:1055A000196010BD002010BD0246488B1278032AF6
:1055B00002D1898A40EA01407047C068FFF766BDA2
:1055C0001CB54FF44070FDF74BF9FDF7F1F8FBF710
:1055D000D1F8FBF7ADFBFBF71FFD014615A0FEF769
:1055E0003BFA18494FF47840C8220880182016A1C9
:1055F000CDE90001034632211E20FDF787F814A0F3
:10560000FEF72AFA16A0FEF727FA23A0FEF724FADF
:105610002A490120CDE900014202002328A12C489B
:1056200001F004FB012802D04FF0FF301CBD00F058
:1056300041FFFEE74C4344204944203D2025780D9E
:105640000A000000900000207465737421000000BF
:10565000496E69742066696E6973680D0A000000FE
:10566000D5E2CAC7D2BBB8F65BD2B0BBF05D2D5352
:10567000544D3332C8ABCFB5C1D0BFAAB7A2B0E545
:105680002D4672656552544F53B9CCBCFEBFE2C083
:10569000FDB3CCA3A10A0A00B0B4CFC24B45593127
:1056A000B9D2C6F0C8CECEF1A3ACB0B4CFC24B4590
:1056B0005932BBD6B8B4C8CECEF10A0024000020BF
:1056C0004170705461736B437265617465000000D2
:1056D0006103000803E011F8013B00F8013B521E92
:1056E000F9D27047C9B201E000F8011B521EFBD28B
:1056F000704770B50446006B0E460025B0420FD0CF
:10570000204600F04BFC05000AD1607801233246A8
:1057100004F13401FEF71AFF08B16E1E012526635D
:10572000284670BD2DE9F041184E0F460446F56835
:105730003068001D00F069FC38B9306890F82C1012
:1057400001208840316981433161601C07D137B144
:105750003168BDE8F0410E48091D00F08EBC30688C
:105760002C44AC424460316805D2B06BBDE8F041D6
:10577000091D00F06ABC706B091D00F066FCB06A80
:10578000844200D2B462BDE8F0810000A000002095
:105790005C2500202DE9F041054600F07BFC2D4EF4
:1057A000B068401CB06030682B4F10B1706930B3E6
:1057B0002BE03560B068012827D1002404EB840079
:1057C00007EB800000F033FC641C202CF6D3234848
:1057D00000F02DFC2148143000F029FC1F4828302F
:1057E00000F025FC1D483C3000F021FC1B485030E7
:1057F00000F01DFC194870631430B06305E0306898
:10580000E96AC06A884200D83560706A0121401C8C
:105810007062E86A326981401143316100EB8000B7
:1058200007EB8000291D00F028FC00F06FFC706978
:1058300000280CD03068E96AC06A884207D208495B
:105840004FF080500860BFF34F8FBFF36F8FBDE8FC
:10585000F0810000A00000208C2200200C250020F8
:1058600004ED00E070B5124E124D1CE000F06CFE2D
:10587000306820B1002401F039FBA4B901E0012413
:10588000F9E700F007FCF068C468201D00F0BDFBDC
:10589000A868401EA8606868401E686000F036FC7A
:1058A000204600F052F868680028DFD170BD000083
:1058B00048250020A000002030B4026C0B46002ACE
:1058C0000BD0C1681144C1604468A14201D3016892
:1058D000C16030BC1846FAF700BD30BC70472DE9F6
:1058E000F041856B174604460026026C82B1C7B1B1
:1058F000E068FAF7F2FCE168206C091AE1602268BE
:10590000914202D26168081AE060022F16D017E0B7
:105910002068A8B9606801F03BFA06460020606084
:105920000EE0A068FAF7D9FC216CA0680844A060DA
:105930006168884204D32068A06001E005B16D1E53
:105940006D1CA5633046BDE8F08110B50446006BC0
:1059500000F00EFC2046BDE8104000F009BC00003D
:1059600010484FF41041420706D0C01D0D4920F0E9
:105970000700411AC1F510410B4A00230144C2E956
:1059800000030839103A21F0070111604B600B60E9
:105990000B1AC0E9001393604FF000405360D060D1
:1059A0007047000070250020EC000020074E4FF0EB
:1059B0008054074DFFF756FF30680128FAD92C6054
:1059C000BFF34F8FBFF36F8FF4E700008C220020EE
:1059D00004ED00E02DE9F047DDE909840E4682463A
:1059E0006FF00301206B01EB82010844089D20F059
:1059F00007079946780705D040F22B3219A120A05D
:105A0000FEF72AF800202218315C82F83410315C4D
:105A100011B1401C1028F6D3002684F84360202DD5
:105A200000D31F25E562C4E91156201D00F00AFBD2
:105A300004F1180000F006FB2461C5F12000646247
:105A4000A061E66484F850604A465146384600F04A
:105A5000F1F92060B8F1000F01D0C8F80040BDE8AE
:105A6000F08700002E2E5C2E2E5C46726565525427
:105A70004F535C7372635C7461736B732E630000CD
:105A80004572726F723A25732C25640D0A0000006E
:105A900030B5114900E011460A688242FBD34B68D9
:105AA0005C18844203D14068184448600846436843
:105AB0001C18944209D1084C103C2468A24209D019
:105AC00052681A4442600A6812680260814200D03B
:105AD000086030BD0460F9E7EC00002010B5044612
