:020000040800F2
:1000000030C20020550200088B120008B50E00080F
:1000100089120008C9050008FD260008000000003C
:100020000000000000000000000000009D0100082A
:100030007509000800000000F101000865230008B0
:100040006F0200086F0200086F0200086F020008CC
:100050006F0200086F0200086F0200086F020008BC
:100060006F0200086F0200086F0200086F020008AC
:100070006F0200086F0200086F0200086F0200089C
:100080006F0200086F0200086F0200086F0200088C
:100090006F0200086F0200086F0200086F0200087C
:1000A0006F0200086F0200086F0200086F0200086C
:1000B0006F0200086F0200086F0200086F0200085C
:1000C0006F0200086F0200086F0200086F0200084C
:1000D0006F020008DD240008152500086F020008E3
:1000E0006F0200086F0200086F0200086F0200082C
:1000F0006F0200086F0200086F0200086F0200081C
:100100006F020008811500086F0200086F020008E6
:100110006F0200086F0200086F0200086F020008FB
:100120006F0200086F0200086F02000859070008FC
:100130006F0200086F0200086F0200086F020008DB
:100140006F0200086F0200086F0200086F020008CB
:100150006F0200086F0200086F0200086F020008BB
:100160006F0200086F0200086F0200086F020008AB
:100170006F0200086F0200086F0200086F0200089B
:100180006F0200086F020008DFF80CD000F0FEF8E4
:1001900000480047F142000830C200202A4B19688D
:1001A0000868B0E8F04F80F30988BFF36F8F4FF015
:1001B000000080F3118870470000000006480068C6
:1001C000006880F3088862B661B6BFF34F8FBFF353
:1001D0006F8F00DF00BF00BF08ED00E0DFF80C000C
:1001E000016841F470010160704700BF88ED00E0D4
:1001F000EFF30980BFF36F8F134B1A681EF0100FD7
:1002000008BF20ED108A20E9F04F106008B44FF0CD
:10021000500080F31188BFF34F8FBFF36F8F05F04D
:1002200033F84FF0000080F3118808BC19680868A3
:10023000B0E8F04F1EF0100F08BFB0EC108A80F34A
:100240000988BFF36F8F704770010020EFF30580BE
:10025000704700000648804706480047FEE7FEE773
:10026000FEE7FEE7FEE7FEE7FEE7FEE7FEE7FEE766
:1002700079230008890100082DE9F05F0546002078
:1002800092469B4688460646814640241BE0284607
:1002900041464746224600F069F853465A46C01A7E
:1002A000914110D311461846224600F050F82D1AFD
:1002B00067EB01084F4622460120002100F047F875
:1002C00017EB00094E41201EA4F10104DFDC484673
:1002D00031462A464346BDE8F09F40EA01039B07AA
:1002E00003D009E008C9121F08C0042AFAD203E0AB
:1002F00011F8013B00F8013B521EF9D27047D2B20F
:1003000001E000F8012B491EFBD270470022F6E7FE
:1003100010B513460A4604461946FFF7F0FF20467B
:1003200010BD30B50B46014600202022012409E013
:1003300021FA02F59D4205D303FA02F5491B04FA9E
:1003400002F52844151EA2F10102F1DC30BD202A7D
:1003500004DB203A00FA02F1002070479140C2F11C
:10036000200320FA03F3194390407047202A04DB4E
:10037000203A21FA02F00021704721FA02F3D0401E
:10038000C2F120029140084319467047064C074DC0
:1003900006E0E06840F0010394E807009847103455
:1003A000AC42F6D3FFF7F4FEC0100308E0100308D8
:1003B00070B58C1810F8015B15F0070301D110F827
:1003C000013B2A1106D110F8012B03E010F8016B54
:1003D00001F8016B5B1EF9D12B0705D40023521ED7
:1003E0000DD401F8013BFAE710F8013BCB1A921C3F
:1003F00003E013F8015B01F8015B521EF9D5A1423D
:10040000D8D3002070BD00007CB504F095FC032219
:100410000021012005F046F8294C206110B129A0E7
:1004200002F082F903220021012005F03BF860610F
:1004300010B12FA002F078F903220021012005F06D
:1004400031F8A06110B135A002F06EF91C49052009
:10045000091DCDE900014FF4007500232A4639A19A
:100460003B4805F0D9FA012802D13AA002F05CF924
:10047000134903200C31CDE9000100232A463CA199
:100480003E4805F0C9FA012802D13DA002F04CF91E
:100490000B4904200831CDE9000100232A463FA181
:1004A000414805F0B9FA012802D140A002F03CF918
:1004B000206804F08FFDBDE87C4004F079BC0000AA
:1004C0002400002044454255475F42696E617279BD
:1004D00053656D5F48616E646C65B6FED6B5D0C578
:1004E000BAC5C1BFB4B4BDA8B3C9B9A6210A00003A
:1004F0004D4F444255535F42696E61727953656D49
:100500005F48616E646C65B6FED6B5D0C5BAC5C12C
:10051000BFB4B4BDA8B3C9B9A6210A0053445F4211
:10052000696E61727953656D5F48616E646C65B622
:10053000FED6B5D0C5BAC5C1BFB4B4BDA8B3C9B99C
:10054000A6210A00546573745F5461736B00000048
:10055000D5230008B4B4BDA8546573745F546173A7
:100560006BC8CECEF1B3C9B9A6210D0A00000000B8
:10057000556172745F5461736B000000A926000816
:10058000B4B4BDA8556172745F5461736BC8CECEAC
:10059000F1B3C9B9A6210D0A000000004D4F444235
:1005A00055535F5461736B00F9100008B4B4BDA8D3
:1005B0004D4F444255535F5461736BC8CECEF1B377
:1005C000C9B9A6210D0A0000FEE7000070B5374941
:1005D00005460024086810F0450FFBD0410702D5FE
:1005E0000324042003E0C00704D00124204600F0C7
:1005F00061FF59E000F09AFFA8422BD140F2FF5072
:1006000000F058FF002000F0B3FF294908424BD00A
:10061000002801DA1C2070BD410001D5092070BD01
:10062000810001D50A2070BDC10001D50B2070BD2D
:10063000010101D50C2070BD410101D50D2070BD17
:10064000C10101D50E2070BD010201D50F2070BD82
:10065000410201D5102070BD810201D5112070BD6D
:10066000C10201D5122070BD010301D5132070BD58
:10067000410301D5142070BD810301D5152070BD43
:10068000C10301D5162070BD010401D5172070BD2E
:10069000410401D5182070BD810401D5192070BD19
:1006A000000701D51A2070BD204670BD342C0140D2
:1006B00008E0FFFD10B50B4A0024116811F0450F4A
:1006C000FBD0480702D50324042003E0C80705D067
:1006D0000124204600F0EEFE204610BD40F2FF50FF
:1006E000F8E70000342C014070B50C461949064665
:1006F0000025086810F0450FFBD0410702D5032400
:10070000042003E0C00705D00124204600F0D2FEFB
:10071000204670BD00F00AFFB04212D140F2FF50F7
:1007200000F0C8FE002000F023FF10F4604F03D05B
:10073000810404D5132070BD000C208007E0410423
:1007400001D5102070BD000401D50F2070BD2846D2
:1007500070BD0000342C014010B55020EFF311841F
:1007600080F31188BFF34F8FBFF36F8F01F0A2FBAF
:1007700084F3118810BD0000074A904201D2074857
:1007800001E005481038064A8B0001EA020101D554
:10079000C160704781607047106402400060024091
:1007A0007D0F7D0F0029016802D041F0010101E0B9
:1007B00021F00101016070472DE9F043016821F04B
:1007C000010101600021016041608160C16001613F
:1007D000212141613C493C4A3D251039904202D1DA
:1007E0008D60BDE8F083384A4FF474661832904249
:1007F00001D18E60F5E7344A4FF4741730329042DD
:1008000001D18F60EDE7304A4FF0746C483290426E
:1008100002D1C1F808C0E4E72B4B2C4A6033984260
:1008200001D1CA60DDE7284C294B7834A04201D1C0
:10083000CB60D6E7DFF89080264C08F19008404561
:1008400001D1CC60CDE7DFF880804FF03D5908F151
:10085000A808404502D1C1F80C90C2E71E49DFF854
:1008600078800839404501D10D60BAE71A4D183536
:10087000A84201D10E60B4E7174D3035A84201D12E
:100880000F60AEE7144D4835A84202D1C1F800C050
:10089000A7E7114D10496035091FA84201D10A6030
:1008A0009FE70D4A7832904201D10B6099E70A4ADE
:1008B0009032904201D10C6093E7074AA8329042EF
:1008C0008FD1C1F800908CE7106002403D000020FD
:1008D000400F002000003D20106402400029016804
:1008E00002D041F0200101E021F0200101607047B9
:1008F0000B0607D5436912B143F0800301E023F0F2
:1009000080034361802908D0002A026801F01E019B
:1009100001D00A4300E08A430260704730B50368A3
:10092000124ACC6813400A682243D1E905452C439A
:100930002243CC6922430C6A22434C6A22438C6ACC
:1009400022434C6B22438C6B22431A430260426960
:1009500022F00703D1E90B2422431A4342610A69BA
:1009600042604A6882608968C16030BD3F801CF087
:10097000416070477047000010B5012190B08805B4
:1009800000F0C0FC194C2046FFF716FF4FF0006046
:1009900000901748019017480021CDE902014FF45B
:1009A0007A70CDE904012015CDE906018010CDE96A
:1009B00008104FF44030CDE90A010320CDE90C01C5
:1009C0000E9169462046FFF7A9FF4FF0815120465E
:1009D000FFF7D2FE012204212046FFF789FF012103
:1009E0002046FFF7DFFE10B010BD0000406402405B
:1009F000041001400402002038B5114C00212046AB
:100A0000FFF7D0FE4FF081512046FFF7B5FE4FF4BF
:100A10007A712046FFF7ACFF01212046FFF7C2FEA6
:100A200008486946006804F051FF0098002806D085
:100A30000549A0050860BFF34F8FBFF36F8F38BD26
:100A4000406402403400002004ED00E0F0B50121D4
:100A500087B0084600F056FC0121102000F06AFC27
:100A6000022500248DF8064001268DF80760280233
:100A7000264F8DF8055000908DF804506946384691
:100A800000F0A2F9680200908DF8045069463846DB
:100A900000F09AF907220A21384600F0D1F907221E
:100AA0000921384600F0CCF94FF4E1300290ADF85E
:100AB00010400C20164DADF80C40ADF81200ADF80A
:100AC0000E40ADF8144002A9284601F08FFD252004
:100AD0008DF8180007208DF819008DF81A408DF850
:100AE0001B6006A800F0D2FB012240F224412846F8
:100AF00001F064FD01224021284601F031FD012171
:100B0000284601F023FD07B0F0BD000000000240C0
:100B10000010014010B51EA001F006FE012223A125
:100B2000234802F0F3FE234C0D28207009D0002842
:100B300028D0014620A001F0F7FD28A001F0F4FD27
:100B4000FEE72FA001F0F0FD0022114617A002F0F1
:100B500025FC207030B135490220088034A001F016
:100B6000E3FDFEE738A001F0DFFD01220FA1002028
:100B700002F0CCFE207001220CA10D4802F0C6FE4E
:100B8000207010BDBDE8104037A001F0CDBD0000C1
:100B90000D0A2A2A2A2A2A2A20736420746573746B
:100BA000202A2A2A2A2A2A0D0A000000303A0000A8
:100BB000BC06002018010020A3A1A3A15344BFA894
:100BC000B9D2D4D8CEC4BCFECFB5CDB3CAA7B0DCA1
:100BD000A1A3282564290D0A00000000A3A1A3A158
:100BE000BFC9C4DCD4ADD2F2A3BA5344BFA8B3F595
:100BF000CABCBBAFB2BBB3C9B9A6A1A30D0A000062
:100C0000A1B75344BFA8BBB9C3BBD3D0CEC4BCFEAD
:100C1000CFB5CDB3A3ACBCB4BDABBDF8D0D0B8F1AB
:100C2000CABDBBAF2E2E2E0D0A0000001A080240CE
:100C3000A1B6A1B6B8F1CABDBBAFCAA7B0DCA1A32B
:100C4000A1B7A1B70D0A0000A1B75344BFA8D2D1E4
:100C5000B3C9B9A6B8F1CABDBBAFCEC4BCFECFB54F
:100C6000CDB3A1A30D0A0000A1B7CEC4BCFECFB581
:100C7000CDB3B9D2D4D8B3C9B9A6A3ACBFC9D2D465
:100C8000BDF8D0D0B6C1D0B4B2E2CAD40D0A0000CB
:100C90002DE9FC5F0024494F00944FF480680194D3
:100CA0004025C7F81080C7E902540E464FF0080BE4
:100CB0001021C7E900B1A146384600F099FC102088
:100CC000FFF784FC00284ED13D48AA464D460089D6
:100CD000000438603720C7E9010AC7E9039838469D
:100CE00000F086FC3720FFF771FC00283BD1411E45
:100CF00007F11400C0E9001B302181600221C0E926
:100D000003150121416100F0EDFB3320C7F808A075
:100D1000C7E90050C7E90358384600F069FC3320A2
:100D2000FFF754FC05001ED1DFF898804FF4001A3D
:100D30006F4640F22A69D8F8000010EA090F0AD17C
:100D4000504600F0F9FB0028F5D000F04BFC47F8C6
:100D50002400641CEFE7082000F0EEFB28B1082017
:100D600000F0A8FB0420BDE8FC9F022000F0E4FB9B
:100D700020B1022000F09EFB0220F4E7202000F0CA
:100D8000DBFB20B1202000F095FB0620EBE74FF4C1
:100D90000074204600F0D0FB20B1204600F08AFB12
:100DA0000720E0E740F2FF5000F084FB009800BA13
:100DB0007060019800BA30602846D4E790060020A1
:100DC00000010020342C0140F0B5002201274FF033
:100DD000030C0B6807FA02F52B40AB422CD10668D6
:100DE00053000CFA03F4A64306600E79D0F800E035
:100DF0009E4046EA0E0606600E79012E01D0022EB4
:100E000012D18668A64386604E79D0F808E09E40ED
:100E100046EA0E0686604668AE43466045688E79AF
:100E20009640B6B235434560C568A543C560CC79E8
:100E30009C40C3681C43C460521C102AC9D3F0BD37
:100E40004B07DB0E9A40C90810B500EB8100016A20
:100E50000F249C40A1430162016A1143016210BD4D
:100E60002DE9F041ADF5007D0D460746FF244FF416
:100E70008078264642460D496846FFF72EFA4246DC
:100E80000B4940A8FFF729FA694640AA05E017F880
:100E9000010B60400C5C7440165C6D1EEDB2F6D226
:100EA0000DF5007D46EA0420BDE8F081C45D000830
:100EB000C45E0008FEE700001CB50121042000F01C
:100EC00021FA2020009000208DF80400064C8DF8B7
:100ED000070069462046FFF777FF10210091694619
:100EE0002046FFF771FF1CBD000802402DE9FC41C0
:100EF0000121042000F006FA01248DF804400020AE
:100F00008DF806008DF80740DFF84C8002258DF83B
:100F10000500009569464046FFF756FF04266946DE
:100F200040460096FFF750FF082769464046009765
:100F3000FFF74AFF694640460094FFF745FF064821
:100F40001A300580068007800480801E0580068098
:100F500007800480BDE8FC810008024010B5012133
:100F600090B0480500F0CEF9194C2046FFF724FC5C
:100F70004FF0006000901748019017480021CDE91C
:100F800002014FF47A70CDE904012015CDE9060184
:100F90008010CDE908104FF44030CDE90A0103205C
:100FA000CDE90C010E9169462046FFF7B7FC4FF0E2
:100FB00081512046FFF7E0FB012204212046FFF784
:100FC00097FC01212046FFF7EDFB10B010BD00009B
:100FD00088600240044400401427002038B5114CBA
:100FE00000212046FFF7DEFB4FF081512046FFF73E
:100FF000C3FB4FF47A712046FFF7BAFC012120466B
:10100000FFF7D0FB08486946006804F05FFC0098D1
:10101000002806D0054960060860BFF34F8FBFF374
:101020006F8F38BD886002403800002004ED00E07A
:10103000F0B5012187B0084600F064F901214804A9
:1010400000F06CF900248DF8064001268DF8076049
:1010500002250420264F8DF8055000908DF804508D
:1010600069463846FFF7B0FE082000908DF804501E
:1010700069463846FFF7A8FE072203213846FFF7E6
:10108000DFFE072202213846FFF7DAFE4FF4E13097
:101090000290ADF810400C20164DADF80C40ADF8A4
:1010A0001200ADF80E40ADF8144002A9284601F038
:1010B0009DFA26208DF8180007208DF819008DF86C
:1010C0001A408DF81B6006A800F0E0F8012240F2FB
:1010D0002441284601F072FA01224021284601F0FD
:1010E0003FFA0121284601F031FA07B0F0BD0000B7
:1010F00000000240004400400727DFF83C91DFF881
:101100003CA1DFF83CB10026002426B1012E0FD00F
:10111000022E28D11AE04B48002500EBC4084846AF
:1011200018F8051001F0EBFA6D1C082DF7DB1AE03A
:1011300044480025403000EBC408484618F8051024
:1011400001F0DDFA6D1C082DF7DB0CE03D480025B1
:10115000803000EBC408484618F8051001F0CFFABB
:101160006D1C082DF7DB374800231C385A1E194622
:10117000406904F0CFF9012845D1DBF8001081F077
:101180000801CBF80010304D2878012801D02FA09D
:1011900032E0B81EC1B22C48FFF762FEC0F307214F
:1011A000C2B2E81910F8023C8B4224D110F8010CAD
:1011B000904220D1687803280AD028A001F0B4FA20
:1011C0000AEB061030F8141028A001F0ADFA15E073
:1011D000AB7800200AEB06110AE005EB000C31F8B1
:1011E00014209CF803C0401C4CEA122221F8142061
:1011F0009842F2DBE4E721A001F096FA4FF47A710D
:101200001148FFF783F8641CE4B2082CFFF47DAFAB
:10121000761CF6B2032EFFF477AFDBF8001081F0F6
:101220000101CBF80010074800231C381A46194664
:10123000806904F08DFA66E700440040D401002084
:101240001408024040000020142700206572722C10
:1012500020C9E8B1B8BAC50D0A000000657272A3D2
:10126000ACB9A6C4DCC2EB0D0A000000CAD5B5BDFE
:10127000CAFDBEDD3A2564200D0A00006572722C9D
:10128000204352430D0A0000FEE7704730B50F239C
:10129000C27801780125FAB1144A126801F1E021FF
:1012A00002F4E062C2F5E062C2F30722C2F1040474
:1012B000D3404278A24084781C401443220181F834
:1012C0000024007800F01F018D404009800000F1EB
:1012D000E020C0F8005130BD01F01F0085404809F2
:1012E000800000F1E020C0F8805130BD0CED00E03E
:1012F0000249084302490860704700000000FA05EF
:101300000CED00E0044A0029116801D0014300E01F
:10131000814311607047000030380240044A0029C0
:10132000116801D0014300E0814311607047000063
:1013300040380240044A0029116801D0014300E00E
:10134000814311607047000044380240044A00297C
:10135000116801D0014300E0814311607047000033
:101360002438024070B5204B1968204C11F00C0154
:1013700004D06610042903D0082903D004601BE0C0
:10138000066019E0184A121F1168C1F380551168F0
:1013900001F03F0115B1B6FBF1F101E0B4FBF1F151
:1013A00014681268C4F388146143C2F30142521CEA
:1013B0005200B1FBF2F1016019680F2202EA11112B
:1013C0000B4A545C0168E14041601C68072505EA4E
:1013D0009424145D21FA04F484601B6805EA5333F5
:1013E000D25CD140C16070BD083802400024F400D6
:1013F000140000202DE9FC4700248146009420467B
:10140000019400F0B5F8800102D50E20BDE8FC87FC
:10141000264D6946288980B2FFF73AFC0028F5D1AD
:101420003720234E01994FF0060A4FF040084FF441
:101430008067B9F1010F1ED0C90334D52989C6F8D8
:1014400008800904C6E90010C6E90347304600F0E9
:10145000CFF83720FFF7BAF80028D7D1C6F80880B0
:10146000C6E9004AC6E90347114800F0C1F8062062
:10147000FFF7ACF8CAE7490315D52989C6F80880F3
:101480000904C6E90010C6E90347094800F0B0F8AE
:101490003720FFF79BF80028B8D10220C6F8088053
:1014A000C6E9000ADEE72520B0E7000000010020C1
:1014B000900600200149086070470000382C014068
:1014C0000149086070470000382C01400149C1F80B
:1014D000A000704700802542014908607047000065
:1014E0008C85254210B50A4A01681160121D4168B9
:1014F0001160131D1968D0E902242243D0E9044089
:10150000044321F0F70122430A431A6010BD000092
:10151000242C014010B50121CC022046FFF716FF14
:101520002046BDE810400021FFF710BF01480068C9
:10153000C0B27047102C0140034A014600201268D7
:101540000A4200D001207047342C0140034A014672
:10155000002012680A4200D001207047342C01405C
:101560000248006800F0030070470000002C0140B2
:1015700008B5024908440090006808BD142C0140D9
:1015800010B55020EFF3118480F31188BFF34F8F13
:10159000BFF36F8F00F0A2FC84F3118810BD000030
:1015A000044A0029116801D0014300E08143116021
:1015B000704700003C2C014030B5094B1A6847F6D3
:1015C000FF618A43017D8468C568214344682C43D8
:1015D000214304680069214301431143196030BD70
:1015E000042C01400148006870470000802C014035
:1015F00010B5084A01681160131D1968D0E901246B
:101600002243D0E9034004436FF30A0122430A4313
:101610001A6010BD082C01400149086070470000A5
:10162000002C01402DE9F041014619480024406892
:10163000032813D018B1012801D0022825D1B1F513
:10164000805F0BD04FF400670025124EB9420ED1D7
:101650000120FFF7CFFE040003D016E02720BDE8ED
:10166000F081357535607560C6E9025709E00020E4
:10167000FFF7C0FE040008D1357535607560B560B0
:10168000F56004483561FFF797FF2046E7E7000063
:1016900000010020780600202DE9F0439549DFF88D
:1016A00058924F6880F856700989A0F85410D9F8FC
:1016B00000100A0E94090470C2F38304447002F00F
:1016C000030282700A0CC2700A0A02714171D9F8D1
:1016D0000430190E0901C180C288C3F3074142EAF0
:1016E0001112C28001F00F010172C3F30721CA0970
:1016F0004272C1F380128272C1F34012C272C1F30E
:1017000000120273002545734A464FF001089268A3
:10171000140EC2F30746C2F3072C27B1012F02D0E3
:10172000022F39D050E08907090D0161D9B2036950
:1017300043EA81010161016941EA94110161C4F345
:10174000C201017504F00701417571098175C6F385
:101750008201C175B107490F0176037E614643EAF4
:10176000D11303760469067EB61C08FA06F3DF1768
:10177000641CA4FB036C05FB03C304FB0734077A5A
:1017800008FA07F3A6FB037C036504FB03C306FB0F
:101790000533C0E9127317E09906890A01610169EE
:1017A00041EA042101610169314301610369614634
:1017B0005B1C45F10004E40444EA5334DB04C0E953
:1017C00012344FF400730365C1F380134376890626
:1017D000490E00F81A1FD1B2027842EAD11200F87D
:1017E000012B01F07F0100F8011BD9F80C20110E2C
:1017F000CB0900F8013BC1F3411300F8013BC1F3F1
:10180000820300F8013B8907090F01700378C2F3D6
:10181000074143EA911300F8013BC1F34013037001
:10182000457001F001018170C2F30721CB09C3703B
:10183000C1F380130371C1F340134371C1F300136B
:101840008371C1F38103C37101F003010172C2F31B
:101850004601417280F80A80274A103211680B0E47
:1018600003730B0C1B02C381C489C1F307231C4300
:10187000C48109060161516804690B0E44EA0343FF
:1018800003610469C1F3074344EA03230361046964
:10189000C1F307231C430461017591680B0E437566
:1018A0000B0C1B0683618469C1F3072344EA0343DD
:1018B00083618369C9B243EA01218161D168836987
:1018C00043EA11638361037FC1F3074243EA1213C2
:1018D00003771207120DC283C38BC1F30722134390
:1018E000C383C1F3460180F8201080F82180284688
:1018F000BDE8F08300010020F00500201CB50020A9
:10190000009001208DF804009DF80400012803D107
:10191000684600F0A5FB08B1FF201CBD0098C0F38D
:1019200043201CBD10B5FFF7E9FF042803D0FF28B2
:1019300003D0012010BD002010BD022010BD00000A
:101940001CB500248DF800404FF44070FFF7D0FC28
:1019500031208DF8040006208DF805008DF8064032
:1019600001208DF8070001A8FFF790FC3B208DF8BF
:10197000040005208DF8050001A8FFF787FC00F0A2
:1019800043F9FFF7C7FD00F091F98DF800009DF8CD
:10199000000058BB00F030F88DF800009DF8000002
:1019A00020BB14480475046044608460C460046112
:1019B000FFF702FE0F485838FFF76EFE8DF8000063
:1019C0009DF8000048B90B4800215838B0F8540081
:1019D000000400F02FFB8DF800009DF8000028B9EE
:1019E0004FF40060FFF71EFE8DF800009DF8000028
:1019F0001CBD0000780600202DE9F84F01200024CE
:101A0000ADF80000FFF7ACFDA8B3DFF8E090D9F81F
:101A10000400042868D0364D4FF0C00A002602208A
:101A2000C5F808A0C5E900604FF48068C5E90368FF
:101A30002846FFF7DDFDFEF73DFE04001DD1FFF750
:101A400097FDA5F1900738600420FFF791FD7860BD
:101A50000820FFF78DFDB8600C20FFF789FDF860C6
:101A6000D9F804004F4650B1012808D0062806D006
:101A7000022804D013E0FFE72520BDE8F88F0320FB
:101A8000E5E80260402085E841011948083DFFF77C
:101A9000AFFD69460320FEF727FE0400EDD178680C
:101AA000042821D0BDF80000B86000042860092097
:101AB000C5E9010AC5E903680D48FFF799FDFEF77E
:101AC000F9FD0400D9D1FFF753FD094DA03D286071
:101AD0000420FFF74DFD68600820FFF749FDA8606E
:101AE0000C20FFF745FDE8602046C6E70001002016
:101AF0009006002030B51F4D04468FB04FF0FA51CC
:101B00002846FEF739FE00212846FEF74BFE284600
:101B1000FEF752FE4FF0006000901748CDE9010437
:101B200000200121CDE903018902CDE905018900E9
:101B300007918900CDE908104FF440300A90042045
:101B40000B9003200C9048020D9080100E90694677
:101B50002846FEF7E3FE012210212846FEF7C8FEC4
:101B600020212846FEF7BAFE01212846FEF71AFE7C
:101B70000FB030BD58640240802C014030B5204D7C
:101B800004468FB04FF0FA512846FEF7F5FD0021CC
:101B90002846FEF707FE2846FEF70EFE4FF00060CF
:101BA00000901848CDE901044020039001200490E2
:101BB00000202915CDE90501890007918900CDE9AB
:101BC00008104FF440300A9004200B9003200C9032
:101BD00048020D9080100E9069462846FEF79EFE42
:101BE000012210212846FEF783FE20212846FEF719
:101BF00075FE01212846FEF7D5FD0FB030BD00006F
:101C000058640240802C01407CB501210C20FFF774
:101C100079FB244D0C2208212846FFF711F90C22EC
:101C200009212846FFF70CF90C220A212846FFF764
:101C300007F90C220B212846FFF702F90C22114666
:101C40002846FFF7FDF8184E0C2202213046FFF718
:101C5000F7F84FF47060009002208DF805008DF8C1
:101C6000040000248DF8064001208DF80700694625
:101C70002846FFF7A9F80420009069463046FFF790
:101C8000A3F8A81400908DF8074069462846FFF78E
:101C90009BF80121C802FFF74DFB01218805FFF7E2
:101CA00031FB7CBD00080240000C02402DE9FC5FC6
:101CB00000248DF800407B4876212746017504609A
:101CC00044608460C46025462646A0460461FFF750
:101CD00073FC0320FFF7A0FC0120FFF7F7FBDFF800
:101CE000C4A14FF480610AF1180A5046CAF80040B6
:101CF000CAF80440CAF80840CAE90341FFF778FC73
:101D0000A1464FF4803401E0641E11D08020FFF71B
:101D100013FC0028F8D05CB140F2FF50FFF7CAFB7B
:101D200048468DF800009DF8000000285FD101E0D2
:101D30000320F6E74FF4D5705446CAF80000082097
:101D40004FF0400BC4E9010B4FF00009C001C4E99A
:101D5000039054481830FFF74BFC534B00224FF4CC
:101D6000803019689A4602E0DAF80010401E11F03F
:101D7000450F06D008B1480706D50322042001927A
:101D800007E00028F0D1F8E7480605D500224020FA
:101D90000192FFF78FFB019A8DF800209DF800005B
:101DA00030B34846372184E803084FF48060C4E923
:101DB00003903C481830FFF71BFC3720FEF706FC69
:101DC0008DF800003748D94618300021372280E8C6
:101DD00006024FF4806BC0E9031BFFF709FC3720B4
:101DE000FEF7F4FB8DF800009DF8000098B355E075
:101DF0002E4801214FF080484160E3E7294C00263E
:101E000018343720C4F80890C4E90060C4E9036BB3
:101E10005F462046FFF7ECFB3720FEF7D7FB8DF837
:101E200000009DF8000090BB214948EA01002060B5
:101E30002920C4E90109C4E903672046FFF7D8FB5C
:101E400000245146086810F0450FFBD0400703D529
:101E50000324042002E00EE040F2FF50FFF72AFBCB
:101E60008DF800409DF8000088B90020FFF780FB46
:101E7000C60F07466D1C1EB94FF6FF708542BDD3D5
:101E80004FF6FF70854203D31B208DF8000005E05C
:101E900017F0804F02D00548022141609DF80000F4
:101EA000BDE8FC9F78060020342C01400001002092
:101EB000000010800748006810F0C05F08D0064995
:101EC0000120486103484FF0C2515830FEF754BC1E
:101ED00070470000006402400001002070B54FF41C
:101EE00080752846FFF732FB1F4C38B10020207068
:101EF0002846FFF7E5FA012020612EE00220FFF7D7
:101F000025FB20B10220FFF7DBFA022024E00820A5
:101F1000FFF71CFB20B10820FFF7D2FA04201BE0DA
:101F20002020FFF713FB20B12020FFF7C9FA06207D
:101F300012E01020FFF70AFB20B11020FFF7C0FAD3
:101F4000052009E04FF400752846FFF7FFFA20B19D
:101F50002846FFF7B5FA0720207000214CF23A30EE
:101F6000FFF71EFB207870BD000100202DE9F05F17
:101F70002D4FDDE90A464FF0000815469946824686
:101F800087F80080C7F810804FF0010BC7F80CB03D
:101F90002649C1F80080594640F22A30FFF700FB7D
:101FA00006FB04F15046FFF7A5FD0120FFF794FA68
:101FB0007868022803D104026D0A45EAC9551C4F0E
:101FC0004FF0400A1020C7F808A0C7E900404FF4BE
:101FD00080693846C7E90389FFF70AFB1020FEF73E
:101FE000F5FA00281ED1411E07F114006643E0E80F
:101FF0000216902102C00221444680E8120807F12F
:102000001400FFF76FFA1220C7F808A0C7E90050C4
:10201000C7E903493846FFF7EBFABDE8F05F122045
:10202000FEF7D4BABDE8F09F000100202C2C01403F
:1020300090060020094910B508600720486040203C
:1020400088600020C8604FF4806008610846FFF790
:10205000CFFABDE810400720FEF7B8BA900600207E
:1020600070B5050019D00E48008901040D480160C3
:102070000D214160402181600021C1604FF48061E9
:102080000161FFF7B5FA0D20FEF7A0FA040003D1B5
:10209000FFF76EFA2860204670BD262070BD000054
:1020A0000001002090060020084810B500210C22F5
:1020B000C0E900124022C0E9022111010161FFF7CD
:1020C00097FABDE810400C20FEF780BA9006002079
:1020D0002DE9F04100256C1E2146154E00E0491EF9
:1020E000706928B9306918B9307808B90029F6D173
:1020F000002777610F4800E0641E0168890401D55C
:10210000002CF9D1F068012803D1FFF7CDFF054677
:10211000F7602C4300D1042540F2FF50FFF7CAF9C5
:10212000307810B13078BDE8F0812846FBE7000038
:1021300000010020342C01402DE9F04100256C1EE7
:102140002146154E00E0491E706928B9306918B95A
:10215000307808B90029F6D1002777610F4800E0F0
:10216000641E0168C90401D5002CF9D1F06801286A
:1021700003D1FFF799FF0546F7602C4300D10425F2
:1021800040F2FF50FFF796F9307810B13078BDE893
:10219000F0812846FBE7000000010020342C0140BC
:1021A0002DE9F05F3F4FDDE90A454FF00008164684
:1021B0009946824687F80080C7F810800121F960AF
:1021C0003949C1F80080012140F21A30FFF7E8F9DF
:1021D00005FB04F15046FFF7D1FC0120FFF77CF925
:1021E0007868022803D10402760A46EAC9562F4FBE
:1021F00010204FF0400910C7C2464FF4806B87E8AB
:10220000010E381F3F1FFFF7F3F91020FEF7DEF92C
:10221000002844D12348C846391D0089D946000406
:1022200038603720C7F810B081E801053846FFF75D
:10223000DFF93720FEF7CAF9002830D1C7F8088047
:102240001720C7E90050C7E903A9C346D04638465E
:10225000FFF7CEF91720FEF7B9F900281FD1192092
:10226000C7F808B0C7E900604646C7E903893846A1
:10227000FFF7BEF91920FEF7A9F900280FD107F1E1
:102280001402401E6543C2E900059020C2E902061F
:102290000120C2E904601046FFF724F93046BDE88A
:1022A000F09F0000000100202C2C0140900600202F
:1022B0000CB50022274900920192086840F4803052
:1022C00008604FF4A043086800F4003001900098C3
:1022D000401C0090019810B900989842F3D108680A
:1022E000800334D5012001901A484030026842F042
:1022F000805202601848026842F440420260154869
:10230000083002680260026842F40042026002681B
:1023100042F4A0520260031F104A1A600A6842F099
:1023200080720A600A689201FCD50D4940F205727C
:102330000A60016821F003010160016841F00201B7
:1023400001600168C1F381010229FAD10CBD01923B
:102350000CBD0000003802400070004008544007E7
:10236000003C024010B503F083FB012803D0BDE818
:10237000104003F06FB810BD124810B5016841F469
:10238000700101601048016841F0010101600E4ACE
:1023900000210832116002680C4B1A400260031DD4
:1023A0000B4A1A60026822F48022026006480C3050
:1023B0000160FFF77DFF03494FF00060803908603E
:1023C00010BD000088ED00E000380240FFFFF6FE7F
:1023D00010300024ADF5825DFEF79CFB1DA000F0DF
:1023E000A3F901AC0A2223A1204601F0C9FA204634
:1023F00000F00EFF224D4FF0FF3600233246194603
:10240000A86903F087F80128F7D11E48016881F018
:1024100002010160022217A1204601F0B1FA204614
:10242000049900F007FF10B917A000F07DF96B4682
:1024300030221849204601F0A0FB38B916A00099B7
:1024400000F072F913491DA000F06EF9204600F06B
:10245000DFFED2E70D0A2A2A2A2A2A2A20D0C2BD64
:10246000A87478742E2E2E202A2A2A2A2A2A0D0AA7
:1024700000000000303A64617461302E747874009A
:102480002400002014080240C6ABD2C6CDEAB1CF6A
:1024900000000000D4010020A1B7CEC4BCFED0B41F
:1024A000C8EBB3C9B9A6A3ACD0B4C8EBD7D6BDDAD4
:1024B000CAFDBEDDA3BA25640A000000A1B7CFF2B1
:1024C000CEC4BCFED0B4C8EBB5C4CAFDBEDDCEAA36
:1024D000A3BA0D0A25730D0A0000000070B5502044
:1024E000EFF3118480F31188BFF34F8FBFF36F8F29
:1024F000074D40F22441284600F041F820B1FEF794
:102500007BFA284600F0C8F884F3118870BD0000FB
:102510000010014070B55020EFF3118480F3118852
:10252000BFF34F8FBFF36F8F074D40F22441284612
:1025300000F025F820B1FEF751FD284600F0ACF878
:1025400084F3118870BD0000004400400029818997
:1025500002D041F4005101E021F400518181704723
:10256000002A828A01D00A4300E08A4382827047AF
:102570000246002012880A4200D00120704770B540
:1025800001F01F0501260024C1F3421306FA05F2EB
:10259000012B0FD0022B0FD0838A4FEA1121008824
:1025A000134206FA01F600EA060001D000B1012448
:1025B000204670BD8389F0E7038AEEE710B5C1F3CA
:1025C000421301F01F040121A140012B07D0022B6F
:1025D00007D01430002A026805D00A4304E00C300A
:1025E000F8E71030F6E78A43026010BD7FB5044675
:1025F000008A0D46C98820F4405001432182A089F9
:1026000041F20C618843A9882A8911436A890243EF
:102610001143A181A08A20F44071A8890843A082B7
:102620006846FEF79FFE1A48844202D01948844249
:1026300001D1039800E00298A189090400EBC001D0
:1026400001EB0010296801D5490000E08900B0FBCA
:10265000F1F06422B0FBF2F109010B096FF01805EB
:102660006B4300EB8300A3891D044FF0320306D5B2
:1026700003EBC000B0FBF2F000F0070005E003EB55
:102680000010B0FBF2F000F00F00084320817FBD86
:1026900000100140001401408088C0F3080070471A
:1026A000C1F30801818070474FF0FF360C4D0D4C8F
:1026B0004FF47A77002332461946286902F02AFF40
:1026C0000128F7D1206880F004002060064907A0A7
:1026D00000F02AF839460448FDF718FEEAE7000042
:1026E000240000201408024004020020CAD5B5BD11
:1026F000CAFDBEDD3A25730A00000000FEE770B592
:102700000D46044640212046FFF732FF0128F9D14B
:1027100029462046FFF7C4FF80212046FFF728FF07
:102720000028F9D070BD00000FB4054B10B503A907
:10273000044A029800F018F810BC5DF814FB000081
:10274000FD400008D001002002E008C8121F08C1A7
:10275000002AFAD170477047002001E001C1121F22
:10276000002AFBD1704700002DE9FF4F8BB09A463D
:102770000F460546002606E025280BD052460D9947
:1027800090476D1C761C28780028F5D10FB0304694
:10279000BDE8F08F0024A0460122604900E0044318
:1027A00015F8013F203B02FA03F00842F7D12878E0
:1027B0002E2817D115F8010F44F004042A280ED052
:1027C0006FF02F022878A0F1300109290AD808EB10
:1027D000880102EB410100EB01086D1CF2E757F89C
:1027E000048B6D1C287869283ED006DC0028CDD0EB
:1027F00063280BD0642804D136E0732810D07528E4
:102800004BD052460D999047761C85E017F8040B83
:102810008DF8000000208DF80100E946012003E05A
:1028200057F8049B4FF0FF3061074FF0000401D4CC
:102830000AE0641C44450DDA8442FADB19F80410FE
:102840000029F6D106E0641C8442FCDB19F8041070
:102850000029F8D1264404E019F8010B52460D99DD
:102860009047641EF8D257E001CF4FF00A0B0028C2
:1028700002DA40422D2102E0210504D52B218DF8FA
:102880002410012103E0E10705D02021F7E70DF135
:10289000200908910CE00021F9E701CF4FF00A0B65
:1028A000F9E75946FDF73DFD01F1300209F8012D28
:1028B0000028F6D1ADEB090000F1200B600701D430
:1028C0004FF00108D84502DDA8EB0B0000E0002026
:1028D0008046002406E009A85246005D0D99904705
:1028E000641C761C08988442F5DB04E030205246D4
:1028F0000D999047761CB8F10001A8F10108F5DCAC
:1029000005E019F8010B52460D999047761CBBF172
:102910000001ABF1010BF4DC6D1C34E70928010068
:1029200010B5044600202071401E2063204601F0AF
:1029300032FD08B1032010BDB4F83202A0F52A41DF
:10294000553901D0022010BD94F86A00B4F86B101C
:1029500040EA01210848B0EB012F08D094F8861016
:10296000B4F8872041EA0221B0EB012F01D1002009
:1029700010BD012010BD00000046415400E0401C85
:1029800002780AB18A42FAD1D0B270478269891EB0
:10299000921E8A4201D800207047C26A807801FBEB
:1029A000002070472DE9F05F8146488B884680BB48
:1029B00098F80000DFF864A000F03F00401E00EB34
:1029C000800101EBC004012000254FF6FF7B1AF8BF
:1029D000052002EB08010E8870B1FF2C19D2304699
:1029E00001F0F8F9074639F81400641C01F0F2F917
:1029F00087420ED1304601E05E450AD16D1C0D2D97
:102A0000E5D398F80010490606D528B139F8140026
:102A100010B10020BDE8F09F0120FBE7C45F000873
:102A20002DE9F0410F00064606D001F0BFFB022859
:102A300009D20120BDE8F081356915B1B069A8421D
:102A400007D8012505E0411CF4D0B1698142F1D8D5
:102A50003D462C46B069641CA04202D80224022DD7
:102A60000AD32146304601F0A1FB38B1411CE1D028
:102A70000128DFD0AC42EDD10020DBE76FF07042DF
:102A80002146304601F001FF30B957B122463946A0
:102A9000304601F0FAFE20B101280DD00124204675
:102AA000C8E734617069411CF9D0401E70617079CB
:102AB00040F001007071F2E74FF0FF34EFE70000E3
:102AC0002DE9F35F88460E6800E0761C30782F28E9
:102AD000FBD05C28F9D0009800242546D0F81CB023
:102AE000705D6D1C202825D32F2823D05C2821D091
:102AF000FF2C3FD2A0F181017D290BD8715D6D1CA7
:102B000001EB0020A1F1400280B23F2A02D38039BC
:102B10007F292FD2012101F017F907002AD0802F39
:102B200004D2014667A0FFF729FF18BB2BF81470E9
:102B3000641CD5E77219C8F80020202801D20425AA
:102B400016E0002514E00BEB440030F8020C2028BE
:102B50000DD02E280BD06CB100212BF8141000984A
:102B60000B222021806901F00FFC002706E0641E83
:102B7000002CE8D10620BDE8FC9F7F1C3BF8170025
:102B80002028FAD02E28F8D01FB145F0030500E028
:102B9000641E2CB10BEB440030F8020C2E28F7D148
:102BA0004FF00008C1464FF0080A3BF817607F1C41
:102BB00006B3202E03D02E2E04D1A74202D045F01A
:102BC0000305F2E7D04501D2A74219D1BAF10B0FA4
:102BD0000ED0A74201D045F003050BD84FEA89601B
:102BE00027464FF008084FF00B0A4FEA1069DCE760
:102BF00045F00305009880690178E5293DD03EE065
:102C0000802E08D3304601F0E5F8002101F09CF851
:102C1000064645F00205FF2E0FD9AAF101008045B6
:102C200003D345F00305D046BFE70098310A826917
:102C300002F8081008F1010818E026B1314624A076
:102C4000FFF79CFE18B15F2645F003050EE0A6F1E4
:102C50004100192802D849F0020907E0A6F16100F5
:102C6000192803D8203E49F00109B6B200988169BD
:102C700001F8086008F1010897E705210170BAF131
:102C8000080F03D14FEA89604FEA1069C9F3810048
:102C9000032803D06FEA0901890701D145F0020535
:102CA000A90709D409F00301012901D145F0100554
:102CB000012801D145F0080500988069C5720020FF
:102CC00059E70000222A3A3C3E3F7C7F000000008A
:102CD0002B2C3B3D5B5D00002DE9F04704460021B5
:102CE00000F0A8F9002857D1FF254FF6FF79A84634
:102CF000A4F820902169206801F04DFB07004AD11B
:102D00006669307848B1F17AE52801F03F0139D0A1
:102D10000A0704D50F2935D105E004273BE00F2928
:102D200001D0D5B11EE0E2697AB3410606D596F826
:102D30000D8020F04000E18805462184A84209D199
:102D4000717B414506D131461046FFF72BFE08B195
:102D50006D1E00E0FF25EDB217E0304601F00BFFDD
:102D6000404518D0A069C17AC9070BD10B210022B8
:102D7000491E06D316F8012B10F8013BD21AF7D0E2
:102D800000E042B1FF25A4F820900021204600F089
:102D900005F80700AED03846BDE8F0872DE9F041D0
:102DA000C78804467F1C38040E46000C33D02169C6
:102DB00089B3206842895209B7FBF2F302FB137210
:102DC000002A59D1491C2161E16809B342898378FD
:102DD0005209B7FBF2F25B1E1A424DD101F0E6F93F
:102DE000054601281CD9681C32D020688169A94297
:102DF0003CD886B1E168FFF713FE05000ED0012D27
:102E00000ED0681C24D0206801F01AFF00BB09E036
:102E10000089B84230D80420BDE8F0810720FBE7E4
:102E20000220F9E7206800214289343001F0ACFA31
:102E300029462068FFF7AAFD216800264FF0010807
:102E400008630CE080F80480206801F0F9FE08B106
:102E50000120E1E72068016B491C761C01632068B2
:102E60008178B142EED8016B891B0163E560294688
:102E70002068FFF78BFD2061E780206841894909C0
:102E8000B7FBF1F201FB1271342202EB411108444D
:102E900060610020C0E700002DE9FF5F04460C22BE
:102EA000D4E906763946684601F066FA9DF80B00CB
:102EB000C00718D00020F8720125E0612B46324689
:102EC0006946384601F02CF92046FFF705FF10B996
:102ED0006D1C642DF2D3642D0BD004280AD19DF80B
:102EE0000B00F872E6619DF80B0080070FD50020FB
:102EF00004E0072004B0BDE8F09F401C36F8101035
:102F00000029FAD10D211930B0FBF1F500E00125BF
:102F10000021204600F08EF888B90027216920683A
:102F200001F039FA58B961690978E5290AD049B13F
:102F3000002701212046FFF731FF0028EED00428AA
:102F400004D004E07F1CAF4201D0F2E70720060066
:102F50006BD16D1E50D0E088411B204600F06AF80E
:102F6000060062D1A06901F006FE4FF6FF7A0390D9
:102F70002169206801F00FFA060056D16169D4F882
:102F80001C90039848730F20C8720020087388763D
:102F9000EEB2C876701E00EB800202EBC003002286
:102FA000DFF88CB001F1010801E0504502D039F89A
:102FB00013005B1C1BF802C001F80C001BF8027028
:102FC0004FEA102C07F808C000B95046521C0D2AD1
:102FD000EBD3504502D039F8130008B946F040064B
:102FE0000E7021680120087100212046FFF7D6FEEF
:102FF00006001AD16D1EBBD12169206801F0CBF902
:10300000060012D120220021606901F0BDF9D4E947
:1030100005010B2201F0B0F9A0696169C07A00F0E6
:1030200018000873216801200871304662E700002B
:10303000C45F000870B5C18083680D460446012B4B
:103040003ED02068816999423AD923B90178032991
:1030500007D1836A2BB141898078490911FB00F6B9
:1030600010E00189A9422BD9806A11E001F09EF895
:103070000346401C22D0022B22D32068806998424C
:103080001ED9AD1B2068B5421946EFD2FFF77EFC72
:10309000E360A8B121684A895209B5FBF2F21044F5
:1030A000206148894009B5FBF0F200FB1250342240
:1030B00002EB401008446061002070BD012070BD2B
:1030C000022070BD10B5012418B9FEF739FC00B913
:1030D0000024204610BD000010B5144602004FF039
:1030E000040014D191B101290AD0022902D0032988
:1030F0000CD103E04FF40070208007E0012004E0D1
:103100000349002307C9FDF7B7F82060002010BD70
:10311000680600202DE9F0410E460100ADF5007D66
:103120001D4614464FF0040019D1B1074FF400704A
:1031300019D0002780460FE02246641C012369460F
:103140000020FFF7E7FF070008D1424669463046F6
:10315000FDF7C3F806F500766D1EEDD238460DF585
:10316000007DBDE8F081CDE9000352020023304626
:10317000FEF7FCFE38B9FEF7ABFF0446FEF7D2FBC4
:103180000028FBD10CB10420E9E70020E7E70100AB
:103190004FF0010000D100207047F0B50E46014607
:1031A000ADF5017D1D0014464FF004002CD0002920
:1031B00017D1B0074FF4007716D000200FE03A4641
:1031C00031466846FDF789F82246641C01236946AA
:1031D0000020FFF7E2FF002803D106F500766D1E00
:1031E000EDD20DF5017DF0BDCDE900735202002353
:1031F0003046FEF7D5FF38B9FEF79EFF0446FEF7CE
:1032000091FB0028FBD10CB10420EAE70020E8E79D
:1032100070B5054600F05CFC040009D1284602F0B8
:1032200075F8040004D100212868296001F031FDFF
:10323000204670BD2DE9F0470D46044602F066F8C1
:103240005FEA00087CD1E17929B1206801F021FD15
:10325000E079BDE8F087E068A84203D2A179890748
:1032600000D405460027A1684FF00109A7600DB3FF
:1032700020684FF0020A86784289564369B16A1E77
:10328000491EB2FBF6F2B1FBF6F39A4205D3701E6B
:1032900081436D1AA16061690BE0216941B9002188
:1032A000FFF7BEFB014601284BD0481C5DD02161D1
:1032B0006161D1B92DE0A0798007206805D5FFF7BD
:1032C000AFFB010004D1354611E000F06FFF01466D
:1032D000481C4AD0012934D920688069884230D9F5
:1032E0006161A068AD1B3044A060B542E3D8A0681E
:1032F0002844A06020684289B5FBF2F302FB135218
:103300003AB1FFF743FBE0B121684989B5FBF1F120
:103310000F182068A1684289B1FBF2F302FB131178
:1033200061B3A269BA4229D0A17904F12405490602
:1033300013D5407801232946FFF72FFFA8B908E0ED
:1033400025E084F807A00221206801F0A2FC0220F9
:103350007FE7A07920F04000A071206801233A4661
:1033600040782946FFF7D6FE38B184F8079001214E
:10337000206801F08EFC01206BE7A761D4E902010F
:10338000884204D9E060A07940F02000A071414655
:10339000206801F07EFC40465BE700002DE9F74F16
:1033A00086B090460798012803D9132009B0BDE8DC
:1033B000F08F06A800F072FF002801DA0B20F5E775
:1033C000F84951F820604EB100213170C0B202902E
:1033D000FFF778FEC10703D00320E7E70C20E5E7FD
:1033E000400701D50A20E1E706F10A02022102980E
:1033F000FFF772FE002876D17089B0F5805F72D831
:10340000B0F5007F6FD303AA01210298FFF764FE95
:103410000028F0D103988028F4D3079909B100213E
:1034200000E03F218A46A0EB0A01A8F1010218EA58
:10343000020F039102D1B8F1000F13D170894FF43C
:10344000FA62400AB2FBF0F0B1FBF0F20020D64B7A
:1034500000E0401C33F810509542FAD8D24A163298
:1034600032F81080B8F5007F02D37289B8FBF2F809
:10347000B8F1000F12D0B8F1800F01D9802080463A
:10348000B1FBF8F0012740F6F672904200D3022714
:103490004FF6F672904203D3032725E00120EEE7B2
:1034A000032F21D0012F29D04200121D7089521EF6
:1034B0000244B2FBF0F90125AA03B2FBF0F004903C
:1034C0000AEB050B049A0BEB0900841804EB0802C5
:1034D000A2EB0A00884244D86A4603210298FFF70B
:1034E000FBFDB0B910E0FFE07289072303EB800019
:1034F0001044B0FBF2F920250020E0E700EB40008B
:10350000401C4208D21CD1E7009810B1B0F5004F22
:1035100001D9012000902118401E491E8143081B3B
:103520000090032F10D0814403980499421BA2EB12
:103530000902521AB2FBF8F10591022F07D0032FAE
:103540000AD0012F11D015E005448344ECE740F682
:10355000F672914205D30DE008464FF6F6718842A7
:1035600001D20E2022E70C240AE0B0F5803F06D2FB
:10357000012405E0B0F5803F01D2042400E00624D8
:10358000079808B1F02038E0728906F13400002174
:10359000019000F0F9FE06F5F9700121417081708B
:1035A0000022C2700471FE214171039B0AEB0301EA
:1035B00043F6C163B1FBF3F13F2343EA9104009169
:1035C0008471C171037242728272C2720399017373
:1035D0000A0A42730A0C8273090EC173552086F8D9
:1035E0003202AA2086F83302DDE90110012300220D
:1035F000FFF7D3FD002877D1F820019006F13404BD
:1036000072890021204600F0BFFE0B2267A12046F0
:1036100000F0B2FE7089E072000A207384F80D8019
:10362000A573280AE07301202074032F0BD04002F9
:103630006074000AA0740398B0F5803F05D2E0746E
:10364000000A20750CE00020F2E784F82000010A4F
:1036500084F82110010C84F82210000E84F8230055
:10366000019860753F20207600206076FF21A176CA
:10367000E07684F81CA04FEA1A2060774FEA1A40DF
:10368000A0774FEA1A60E07700F004FE802129223B
:103690000090032F29D084F82700030A84F82830EB
:1036A000030C84F82930000E84F82A0084F8169060
:1036B0004FEA1920E07584F8241084F8262013229C
:1036C0003DA104F12B0000F057FE552084F8FE01C7
:1036D000AA2084F8FF010123524621460298FFF7F1
:1036E0005CFD002800D136E0D9E084F84300030AED
:1036F00084F84430030C84F84530000E84F846000A
:1037000084F824904FEA192084F825004FEA1940E4
:1037100084F826004FEA196084F82700022084F814
:103720002C00002084F82D0084F82E0084F82F004F
:10373000012384F8303084F83100062384F83230D5
:1037400084F8330084F8401084F8422013221FA12B
:1037500004F14700B7E7032F06D101230AF106025F
:1037600021460298FFF719FD5D464FF0000B728964
:103770000021204600F008FE01980090032F31D070
:10378000012F2DD06FF0FF010143009121700098AF
:10379000000A60700098000CA0700098000EE070A5
:1037A00037E0000068010020D25F0008EBFE904D7A
:1037B00053444F53352E30004E4F204E414D45203F
:1037C0002020204641542020202020004E4F204E13
:1037D000414D4520202020464154333220202000F6
:1037E0004949D1E760F0FF00009020700098000A7E
:1037F00060700098000CA0700098000EE070FF2030
:1038000020716071A071E07120726072A0720F204F
:10381000E0722A466D1C012321460298FFF7BDFC89
:10382000E8BB72890021204600F0AEFD012009E0CE
:103830002A466D1C012321460298FFF7AEFC70BB9F
:103840000098401C00904845F2D30BF101005FEA5C
:10385000000B8CD0032F09D0049E2A466D1C012337
:1038600021460298FFF799FCC8B901E04646F4E703
:10387000761EF2D1032F3CD152202070607061225D
:10388000A2704120E070722184F8E41184F8E511FF
:1038900084F8E60184F8E7210598401E00E030E056
:1038A00084F8E801010A84F8E911010C84F8EA11AE
:1038B000000E84F8EB01022084F8EC01002084F86B
:1038C000ED0184F8EE0184F8EF01552084F8FE0143
:1038D000AA2084F8FF0101230AF10102214602987F
:1038E000FFF75BFC01230AF1070221460298FFF76C
:1038F00054FC002211460298FFF7EEFB00283FF42B
:103900005EAD012052E5000000FFFF002DE9F74108
:1039100081B0904602980090684600F0BFFC040019
:1039200003D50B2004B0BDE8F081144E002756F8F3
:10393000245025B1E86800F037FA88B12F7001995A
:1039400029B101F80C7BE0B200F024FA40B10198F3
:1039500046F8240010B1B8F1010F03D00020E1E7D0
:103960000220DFE7002202A901A800F05BFA04466A
:103970000146019801F08DF92046D3E76801002047
:103980002DE9F747ADF50D7D06000ED04FF000088C
:1039900002F01F0727F001028EA980A8C6F8008058
:1039A00000F040FA050005D08CE009200DF5107DEF
:1039B000BDE8F08789A88690CDF81CD280A88E99A2
:1039C00000F068FB859C050001D104B9062517F0BD
:1039D0001C0F4ED055B1042D03D180A8FFF75CFA1F
:1039E0000546859C47F0080745B16BE0E07A10F08A
:1039F000110F48D1780701D5082563E0380748D56D
:103A000000F048FCA073010AE173020C2274030E5B
:103A10006374A075E1752276637684F80B8084F870
:103A20001C8084F81D8084F81E8084F81F80214645
:103A3000809800F051FC81460021204601F093F867
:103A400080990120B9F1000F087120D08098494673
:103A5000D0F830A001F056F8050033D18099A9F1D3
:103A6000010008615146809800F095FC05000CD0DB
:103A700028E03DBBE07AC10601D5042522E0B90764
:103A800003D5C00701D007251CE0380701D547F052
:103A9000200780982146006BC6E90704B77186F8B5
:103AA00007804746809800F017FC3061207FD4F8EB
:103AB0001D1040EA0120C6E90270B76180983060AD
:103AC000C088B0802946809801F0E3F828466DE769
:103AD00070B5044601F01AFC050048D1A0798106B2
:103AE00045D5400612D52068012304F12401407811
:103AF000A269FFF752FB28B10121206801F0C9F843
:103B0000012070BDA07920F04000A071E16920681B
:103B100000F041FC05002AD1256AE87A40F0200037
:103B2000E872207B2877A089000A6877E068000C9B
:103B3000A877E068000EE8772846216901F013F8BD
:103B400000F0A8FBA875010AE975010C2976000EA2
:103B500068760020A874E874A07920F02000A07195
:103B6000216801200871206801F012F805462946F5
:103B7000206801F08EF8284670BD2DE9F84F89467F
:103B800000219A4615460446196001F0BFFB060065
:103B900006D03146206801F07CF83046BDE8F88F49
:103BA000E17921B1206801F074F8E079F6E7A079B5
:103BB000800705D40721206801F06BF80720EDE7A6
:103BC000A06804F1240142194FF0010B00918242D8
:103BD0006AD3A6E02268A0685189B0FBF1F301FB2B
:103BE0001303002B7AD1B0FBF1F193785B1E1940DF
:103BF00011F0FF0612D108B1616902E0206928B90D
:103C000000211046FEF70CFF00284DD001282DD0D2
:103C1000411C58D06061216901B92061A07940063A
:103C20000BD520680123A26940780099FFF7B5FA07
:103C3000C0BBA07920F04000A07161692068FEF748
:103C4000A5FE98B100EB060820684189B5FBF1F7A5
:103C50004FB38178F2198A4200D98F1B40783B46D6
:103C600042464946FFF799FAE0B907E00220E071C1
:103C70000221206801F00DF802208FE7A169A1EB75
:103C80000800B8420AD221684A8900FB02910098D4
:103C900000F072FBA07920F04000A07120684689F6
:103CA0007E4334E00FE000E03EE0A269424513D0DD
:103CB000D4E9021291420FD2407801234246009982
:103CC000FFF728FA40B184F807B00121206800F01E
:103CD000E0FF012062E701E0C4F818802068A168D5
:103CE0004089B1FBF0F200FB1212861AAE4200D9F5
:103CF0002E46B1FBF0F200FB12102044324649463A
:103D0000243000F039FBA07940F04000A071A06899
:103D1000B1443044A060DAF800008119AD1BCAF844
:103D20000010002D7FF456AFD4E90201884200D97B
:103D3000E060A079002140F02000A071206800F030
:103D4000A8FF00202AE7000070B580281BD345F2A9
:103D5000205409B10D4D00E00D4D00231022E11A51
:103D600001EBD17103EB610135F82160864206D089
:103D700001D20B4600E00C46521EF0D104E01AB10D
:103D800005EB8100408870BD002070BD82B4010841
:103D9000FE5F000810B50C46012001F071FB2060A9
:103DA000002800D0012010BD10B501F0D7F8012087
:103DB00010BD00231A46194601F0CABC10B50023F5
:103DC0004FF47A72194601F0A5FB012800D00020BB
:103DD00010BD000070B5802806D2A0F1610119293C
:103DE00001D8203880B270BD0C230C4D00224FF456
:103DF000F774A11A02EB510135F81160864206D022
:103E000001D20A4600E00C465B1EF2D170BD002BC9
:103E1000FCD0034830F8110070BD0000060903080B
:103E2000E20C03082DE9FF474FF0000A0746C0F8EF
:103E300000A01646084600F031FA050003D50B2015
:103E400004B0BDE8F087904850F82540ACB120465A
:103E500000F04BFA98B13C60207820B16078FFF711
:103E600096F9C1070DD084F800A0E8B26070FFF7A2
:103E700029F9C1070AD00320E2E70C20E0E70F2070
:103E8000DEE70EB1400704D40020D9E71EB1400799
:103E900001D50A20D4E7607804F10A020221FFF775
:103EA0001BF9A0BB6089B0F5007F31D3B0F5805F0E
:103EB0002ED8002529462046FEF732FD012822D1C2
:103EC00000206E4604EB001191F8F62101F5F9711E
:103ED0002AB10A7AD1F8091042EA012100E0002152
:103EE00046F82010401C0428ECD3002756F8275031
:103EF00025B129462046FEF713FD00E0022048B117
:103F00007F1C042FF2D3032802D0E8BB02E0FFE7B6
:103F1000012095E7B4F83F006289904263D1B4F87C
:103F20004A0028B994F85800D4F8591040EA012002
:103F3000E06194F844708146E770012F01D0022FB0
:103F400051D194F841604743A670EEB1701E06420D
:103F500049D1B4F845104FEA521CB1FBFCF00CFB00
:103F60001010218180B9B4F8470028B994F85400A2
:103F7000D4F8553040EA0320B4F8423023B1B1FB05
:103F8000FCFC03EB070800E02DE0C44460452AD3A5
:103F9000A0EB0C00B0FBF6F028B3012640F6F67853
:103FA000404500D302264FF6F678404500D303265D
:103FB000801CAC44C4F82CC02B44A061C4E9085355
:103FC000032E12D079B1D919A162022E18D000F0B7
:103FD000010100EB400001EB5000401E1044B0FB1B
:103FE000F2F149450ED90D202AE70029FBD194F8BA
:103FF0006010D4F86130800041EA0321A162ECE74F
:104000004000EAE74FF0FF3060612061802060717E
:10401000032E30D1B4F8640001282CD12046691C4D
:1040200000F0B9F938BB84F805A0B4F83202A0F565
:104030002A4155391FD194F83400D4F8351040EA9C
:1040400001201249884216D194F81802D4F81912A6
:1040500040EA01200E4988420DD194F81C02D4F8A0
:104060001D1240EA0120606194F82002D4F8211268
:1040700040EA0120206104492670091F0888401C7D
:104080000880E08000E70000680100205252614192
:104090007272416173B50446019908782F2801D0E6
:1040A0005C2801D1491C01910025A5600198007888
:1040B000202805D200212046FEF7BCFF65617CBDAB
:1040C00001A92046FEF7FCFC0028F8D12046FEF7A7
:1040D00003FEA169C97A28B10428F0D14907EED4BA
:1040E00005207CBD4907FCD46169C87AC006F7D5B4
:1040F000206800F0F1F8A060E2E7000070B5074D1D
:104100000446C1B22846FEF7CBFA80212846FEF7C6
:104110002FFA0028F9D0204670BD000000100140A1
:104120007CB516461C4605460B2200F025F9052CE9
:1041300011D91D4A0CE00021B61C2346044663F346
:104140005F044008E30300D55440491C1029F4D310
:1041500030880028EFD107226B4604F00F00303082
:10416000392800D9C01D9854521E2409F5D17E204B
:1041700000219854541E06E081387D2802D8A142BF
:1041800006D0491C491C914202D2685C2028F3D118
:10419000082A02D2985C521C00E020206854491C76
:1041A0000829F5D37CBD0000211001002DE9F04164
:1041B0000D46044602290BD3A069A84208D92078ED
:1041C0004FF0FF36012807D0022834D0032846D00C
:1041D00001263046BDE8F081608905EB5507B7FB45
:1041E000F0F0616A0144204600F0D5F80028F0D1D3
:1041F0006089B7FBF0F100FB11717F1CB7FBF0F099
:10420000214491F83480616A0144204600F0C3F8EB
:104210000028DED16089B7FBF0F100FB117020446B
:1042200090F8341048EA0120E90701D00609D0E7E8
:10423000C0F30B06CDE76089616A4008B5FBF0F07A
:104240000144204600F0A7F80028C2D16189680027
:10425000B0FBF1F201FB12002044868EB9E76089C1
:10426000616A8008B5FBF0F00144204600F093F845
:104270000028AED16189A800B0FBF1F201FB120069
:10428000204490F83410D0F8350041EA002020F0A6
:1042900070469EE7004870470000214610B503466F
:1042A0004FF0FF301C68002C13D0214600E0491C61
:1042B0000A78202A0ED33A2AF9D114F8012B303A81
:1042C0000A2A06D28C4204D1022A02D2491C104684
:1042D000196010BD002010BD0246488B1278032AD9
:1042E00002D1898A40EA01407047C068FFF766BD85
:1042F0001CB54FF44070FCF7FBFFFCF7F7FDFCF733
:104300003BFBFCF7A3FBFCF729FEFCF791FEFCF757
:10431000D3FD0CA0FEF708FA0EA0FEF705FA10492F
:104320000120CDE90001420200230EA1114801F055
:1043300073FB012802D04FF0FF301CBD00F052FF8C
:10434000FEE70000496E69742066696E6973680D46
:104350000A00000052544F535F496E69740A0A0004
:10436000240000204170705461736B437265617466
:10437000650000000904000803E011F8013B00F8A3
:10438000013B521EF9D27047C9B201E000F8011B8F
:10439000521EFBD2704770B50446006B0E460025D6
:1043A000B0420FD0204600F04BFC05000AD16078E7
:1043B0000123324604F13401FEF7ACFE08B16E1E53
:1043C00001252663284670BD2DE9F041184E0F46A1
:1043D0000446F5683068001D00F069FC38B93068A3
:1043E00090F82C1001208840316981433161601CB4
:1043F00007D137B13168BDE8F0410E48091D00F022
:104400008EBC30682C44AC424460316805D2B06B3D
:10441000BDE8F041091D00F06ABC706B091D00F099
:1044200066FCB06A844200D2B462BDE8F08100004C
:10443000700100201C2E00202DE9F041054600F0FF
:104440007BFC2D4EB068401CB06030682B4F10B123
:10445000706930B32BE03560B068012827D10024A3
:1044600004EB840007EB800000F033FC641C202C7C
:10447000F6D3234800F02DFC2148143000F029FC2D
:104480001F48283000F025FC1D483C3000F021FC7E
:104490001B48503000F01DFC194870631430B063A5
:1044A00005E03068E96AC06A884200D83560706A01
:1044B0000121401C7062E86A326981401143316118
:1044C00000EB800007EB8000291D00F028FC00F0C5
:1044D0006FFC706900280CD03068E96AC06A8842B5
:1044E00007D208494FF080500860BFF34F8FBFF3E9
:1044F0006F8FBDE8F0810000700100204C2B002080
:10450000CC2D002004ED00E070B5124E124D1CE0E1
:1045100000F0B2FE306820B1002401F0DDFBA4B948
:1045200001E00124F9E700F007FCF068C468201DF1
:1045300000F0BDFBA868401EA8606868401E686067
:1045400000F036FC204600F052F868680028DFD101
:1045500070BD0000082E00207001002030B4026CF5
:104560000B46002A0BD0C1681144C1604468A142C7
:1045700001D30168C16030BC1846FBF7AEBE30BC49
:1045800070472DE9F041856B174604460026026C02
:1045900082B1C7B1E068FBF7A0FEE168206C091AA0
:1045A000E1602268914202D26168081AE060022F3D
:1045B00016D017E02068A8B9606801F0DFFA064657
:1045C000002060600EE0A068FBF787FE216CA06809
:1045D0000844A0606168884204D32068A06001E0BC
:1045E00005B16D1E6D1CA5633046BDE8F08110B5A8
:1045F0000446006B00F00EFC2046BDE8104000F0C1
:1046000009BC000010484FF41041420706D0C01DFD
:104610000D4920F00700411AC1F510410B4A002353
:104620000144C2E900030839103A21F00701116082
:104630004B600B600B1AC0E9001393604FF0004011
:104640005360D06070470000302E0020BC01002075
:10465000074E4FF08054074DFFF756FF3068012892
:10466000FAD92C60BFF34F8FBFF36F8FF4E70000D0
:104670004C2B002004ED00E02DE9F047DDE9098432
:104680000E4682466FF00301206B01EB8201084465
:10469000089D20F007079946780705D040F22B3295
:1046A00019A120A0FEF740F800202218315C82F802
:1046B0003410315C11B1401C1028F6D3002684F868
:1046C0004360202D00D31F25E562C4E91156201D4B
:1046D00000F00AFB04F1180000F006FB2461C5F1AC
:1046E00020006462A061E66484F850604A46514646
:1046F000384600F0F1F92060B8F1000F01D0C8F899
:104700000040BDE8F08700002E2E5C2E2E5C467225
:10471000656552544F535C7372635C7461736B7361
:104720002E6300004572726F723A25732C25640D5A
:104730000A00000030B5114900E011460A688242C3
:10474000FBD34B685C18844203D14068184448602E
:10475000084643681C18944209D1084C103C246850
:10476000A24209D052681A4442600A681268026084
:10477000814200D0086030BD0460F9E7BC01002030
:1047800010B5044600F0D8FAA06B20B1002400F068
:104790000FFB204610BD0124F9E700000648416BDD
:1047A000096829B1416BC968C96849688162704765
:1047B0004FF0FF31FAE70000700100200848406820
:1047C000401C05D040F20F1206A111A0FDF7ACFF6E
:1047D000502080F31188BFF34F8FBFF36F8FFEE738
:1047E000C40100202E2E5C2E2E5C4672656552544C
:1047F0004F535C706F72745C525644535C41524D1F
:104800005F434D34465C706F72742E63000000008D
:104810004572726F723A25732C25640D0A000000F0
:104820002DE9F041044600F087FA94F9455004F16F
:10483000240609E0606A48B1304601F0FDF908B18C
:1048400000F032FC6D1E6DB2002DF3DC4FF0FF3630
:1048500084F8456000F0ACFA00F06EFA94F9445028
:1048600004F1100709E0206948B1384601F0E4F985
:1048700008B100F019FC6D1E6DB2002DF3DC84F858
:104880004460BDE8F04100F093BA2DE9F0471646C8
:104890000D460446022902D3A069A84202D802208C
:1048A000BDE8F087207806F0FF084FF001090128E5
:1048B00025D002285FD00328F1D16089616A800881
:1048C000B5FBF0F001442046FFF765FD0028E7D175
:1048D0006289A900B1FBF2F302FB131121444FF0EE
:1048E0007043D1F8352003EA0222324301F8342F15
:1048F000130A4B70130C8B70120ECA7052E0608951
:1049000005EB5507B7FBF0F0616A01442046FFF75D
:1049100042FD0028C4D16089B7FBF0F100FB1170A3
:10492000204434307F1CE90703D0017868F31F115D
:1049300000E03146017084F804906089616AB7FB39
:10494000F0F001442046FFF726FD0028A8D1618938
:10495000B7FBF1F201FB127121443431EA0702D0B6
:10496000C6F3071205E00A78C6F3032302F0F0024B
:104970001A430A7016E06089616A4008B5FBF0F0DE
:1049800001442046FFF707FD002889D162896900AC
:10499000B1FBF2F302FB13112144320A81F8348097
:1049A00081F8352084F804907AE700002DE9F04181
:1049B0000546002600F060FC324F386808B9FFF762
:1049C00021FEF86805424FD1002D4DD0083568070B
:1049D0000BD005F00700C0F108000544680704D0BB
:1049E000BF2229A132A0FDF79FFE002D3CD07868A0
:1049F000854239D8234910310846046801E0214630
:104A000004466068A84202D220680028F7D13868BE
:104A1000B846844228D00E6820680860606808366E
:104A2000401B10280ED96719780704D0EC2216A174
:104A30001FA0FDF779FE6068401B7860384665600E
:104A4000FFF778FE6168D8F804004246401AC8F8BB
:104A50000400D8F80830984200D29060D8F80C00D2
:104A600001430020C4E9000101F036F9700705D0C8
:104A70004FF4967204A10EA0FDF756FE3046BDE835
:104A8000F0810000AC0100202E2E5C2E2E5C4672C0
:104A9000656552544F535C706F72745C4D656D4D1B
:104AA000616E675C686561705F342E6300000000B2
:104AB0004572726F723A25732C25640D0A0000004E
:104AC0000449086818B10868826C521C826408683E
:104AD000704700007001002010B5031F4FF0807474
:104AE0001C601B1F21F001011960191F044B0B6092
:104AF00014390A60091F6FF0020244380A6010BDC1
:104B0000BD4700082DE9F0410F460446022916D39F
:104B1000A069B84213D900261FE039462046FFF7A6
:104B200045FB05001CD0012D09D0681C09D00022CE
:104B300039462046FFF7A9FE060011D103E0022600
:104B40000EE001260CE06069411C05D0401C60614C
:104B5000607940F0010060712F46A069B842DCD84E
:104B60003046BDE8F08181760A0AC2760A0C0275E9
:104B7000090E41757047014600200B22430803EBE4
:104B8000C01011F8013B521E1844C0B2F6D1704754
:104B900070B5044600F054F805004FD12078032882
:104BA00045D16079012842D104F1340062890021A5
:104BB0000646FFF7E9FB552084F83202AA2084F864
:104BC0003302522084F8340084F83500612284F8DE
:104BD0003620412084F83700722184F8181284F8B6
:104BE000191284F81A0284F81B22606984F81C02E6
:104BF000010A84F81D12010C84F81E12000E84F8BC
:104C00001F02206984F82002010A84F82112010C95
:104C100084F82212000E84F82302226A0123521C17
:104C2000226360783146FEF7B8FA002060710022F6
:104C300060781146FEF750FA00B10125284670BD94
:104C40002DE9F041044600790027F8B1266B04F104
:104C500034016078012332468846FEF79EFA08B197
:104C6000012713E000202071606AE169301A884250
:104C70000CD2E57808E0E06901230644607832460A
:104C80004146FEF78AFA6D1E022DF4D23846BDE881
:104C9000F08100280AD00C2908D00B2906D0092958
:104CA00004D00F2902D0C068FFF783B87047D0E95D
:104CB000013201699A60D0E901235A604A68824250
:104CC00001D182684A60002202610868401E0860C3
:104CD000704700F108014FF0FF32C0E90112C160D6
:104CE000016100210160704700210161704730B50A
:104CF0000C68621C02D000F1080202E0026904E0C4
:104D00001A4653681D68A542FAD953684B609960EA
:104D10008A60516008610168491C016030BD4268C9
:104D20004A6093688B60936859609160086101687C
:104D3000491C016070470000502080F31188BFF3C8
:104D40004F8FBFF36F8F09494868401C48600128A6
:104D50000AD10748006810F0FF0F05D040F2B912E1
:104D600004A10FA0FDF7E0BC70470000C4010020C3
:104D700004ED00E02E2E5C2E2E5C467265655254CA
:104D80004F535C706F72745C525644535C41524D89
:104D90005F434D34465C706F72742E6300000000F8
:104DA0004572726F723A25732C25640D0A0000005B
:104DB00010B5084C606828B94FF4E07206A111A044
:104DC000FDF7B2FC6068401E606001D180F311887D
:104DD00010BD0000C40100202E2E5C2E2E5C4672F9
:104DE000656552544F535C706F72745C52564453F5
:104DF0005C41524D5F434D34465C706F72742E635C
:104E0000000000004572726F723A25732C25640D04
:104E10000A00000070B500282AD0164DA0F1080441
:104E20006068E968084205D14FF4A07212A11CA085
:104E3000FDF77AFC206828B140F241120EA118A0BB
:104E4000FDF772FC6068E968084211D02268002A08
:104E50000ED18843606000F00FFA6068696808440A
:104E600068602046FFF766FCBDE8704000F034BF84
:104E700070BD0000AC0100202E2E5C2E2E5C467210
:104E8000656552544F535C706F72745C4D656D4D27
:104E9000616E675C686561705F342E6300000000BE
:104EA0004572726F723A25732C25640D0A0000005A
:104EB00006484FF47A710068B0FBF1F14FF0E02042
:104EC000491E416107210161704700000000002078
:104ED00010B5FBF7BBF9104C10280CD300F1E02003
:104EE00090F8F0032178884205D24FF440720BA16C
:104EF00015A0FDF719FC18480068A16800F4E060EF
:104F0000884207D9BDE810404FF4447203A10EA0B7
:104F1000FDF70ABC10BD0000C40100202E2E5C2E3F
:104F20002E5C4672656552544F535C706F72745CB0
:104F3000525644535C41524D5F434D34465C706F52
:104F400072742E63000000004572726F723A25730E
:104F50002C25640D0A0000000CED00E010B50400E3
:104F600005D140F25D6206A10CA0FDF7DDFB2046F5
:104F700000F01CF82046BDE81040FFF74BBF0000D2
:104F80002E2E5C2E2E5C4672656552544F535C7318
:104F900072635C71756575652E6300004572726F92
:104FA000723A25732C25640D0A000000084A00217E
:104FB00002EBC1035B68834206D1002042F8310056
:104FC00002EBC10148607047491C0A29F0D37047C1
:104FD000FC2A002070B50446FFF7AEFE234D04B94D
:104FE0002C68201DFFF763FE58B9E06A204A00EBE9
:104FF000800152F8211021B901218140286988439C
:105000002861A06A18B104F11800FFF750FE686A21
:10501000401C68622868844207D1211D1548FFF7AB
:105020007EFE6868401C686007E0A868401EA860B3
:105030002046FFF7DCFAFFF7B1FBFFF7B9FE68691E
:10504000002812D0286884420FD1286B28B140F282
:10505000654209A10FA0FDF767FB12494FF0805090
:105060000860BFF34F8FBFF36F8F70BD70010020DA
:105070004C2B0020082E00202E2E5C2E2E5C46721B
:10508000656552544F535C7372635C7461736B73E8
:105090002E6300004572726F723A25732C25640DE1
:1050A0000A00000004ED00E001490120C8617047DA
:1050B0007001002070B50D46040005D140F606329F
:1050C00007A10EA0FDF730FB1048016820461831FB
:1050D000FFF70DFE2846BDE870400121FFF774B9C7
:1050E0002E2E5C2E2E5C4672656552544F535C73B7
:1050F00072635C7461736B732E6300004572726F30
:10510000723A25732C25640D0A00000070010020FE
:1051100070B5040039D01D4DE06A2968C96A88421B
:1051200033D2A069002804DB2868C06AC0F12000DF
:10513000A061E06A164E00EB8000616906EB80001A
:1051400081421FD1201DFFF7B2FD012150B9E06A55
:1051500000EB800256F8222022B92A6901FA00F0F9
:1051600082432A612868C06AE0622A69814011434B
:10517000296100EB800006EB8000211DBDE8704036
:10518000FFF7CDBD2868C06AE06270BD70010020E5
:105190004C2B002010B5040005D140F6C13205A10A
:1051A0000BA0FDF7C1FA0E48016A2160C06860607B
:1051B00010BD00002E2E5C2E2E5C4672656552548A
:1051C0004F535C7372635C7461736B732E63000086
:1051D0004572726F723A25732C25640D0A00000027
:1051E000700100201CB515480024CDE9004023467D
:1051F000802213A1144800F00FFC01280AD0401CA3
:105200001BD102B040F28472BDE810400FA116A07D
:10521000FDF78ABA502080F31188BFF34F8FBFF398
:105220006F8F06484FF0FF312C38816201214161B8
:10523000C460BDE81C4000F083B81CBD9C01002088
:1052400049444C4500000000514600082E2E5C2EBB
:105250002E5C4672656552544F535C7372635C7486
:1052600061736B732E6300004572726F723A25731F
:105270002C25640D0A0000000248016B491C0163E3
:10528000704700007001002070B5134D286B10B1FD
:105290000120E86170BD0020E86128690F4EB0FA76
:1052A00080F0C0F11F0000EB800456F8240028B9FC
:1052B00040F6F6220AA111A0FDF736FA06EB8400AB
:1052C00000F10802416849684160914201D1496892
:1052D0004160C868286070BD700100204C2B002020
:1052E0002E2E5C2E2E5C4672656552544F535C73B5
:1052F00072635C7461736B732E6300004572726F2E
:10530000723A25732C25640D0A00000010B50400C4
:105310000CD0206850B1017841B1C188A288914277
:1053200004D14078FDF733FFC00701D0092010BD3C
:105330002068FEF7DAFF08B1002010BD0F2010BD75
:105340001CB5304C20683049884205D140F25912D2
:105350002EA139A0FDF7E8F920682B49491E8842A3
:1053600005D14FF4AD7229A133A0FDF7DDF9364C1C
:1053700020780190FF20207020788DF800009DF8A3
:1053800000009DF8001000F0F000884205D040F2C7
:1053900073121EA128A0FDF7C7F99DF800002B4A43
:1053A00000F0500010700720906007E09068401EE9
:1053B00090609DF8000040008DF800009DF800000E
:1053C0000006F3D4107A000200F4E06090600198C7
:1053D00020700C482030016841F4700101600168C0
:1053E00041F070410160FFF763FD00205060FAF763
:1053F000F5FE1748016841F040410160FAF7DEFE12
:1054000000201CBD00ED00E071C20F412E2E5C2E6D
:105410002E5C4672656552544F535C706F72745CBB
:10542000525644535C41524D5F434D34465C706F5D
:1054300072742E63000000004572726F723A257319
:105440002C25640D0A00000000E400E0C4010020E7
:1054500034EF00E010B5502080F31188BFF34F8F78
:10546000BFF36F8F00F012FB18B104494FF080506A
:105470000860002080F3118810BD000004ED00E0FA
:1054800010B502460021012000F00CF8041E07D0E0
:105490000021416001600B460A46C16000F058F9E6
:1054A000204610BD70B50E46050005D14FF4C472FC
:1054B0000DA114A0FDF738F996B105FB06F04830B0
:1054C000FFF774FA040009D004F1480120464EB1F8
:1054D0000160C0E90F56012100F0E2F8204670BDDE
:1054E0000020ECE70060F4E72E2E5C2E2E5C467266
:1054F000656552544F535C7372635C717565756575
:105500002E6300004572726F723A25732C25640D6C
:105510000A0000002DE9FF4F83B09B468A46040035
:105520004FF0000605D140F2DC4251A157A0FDF733
:10553000FBF8BAF1000F07D1206C28B140F2DD4230
:105540004BA152A0FDF7F0F800F092FA38B9059897
:1055500028B14FF49C6246A14CA0FDF7E5F84FF04E
:1055600000094FF08057DFF83481FFF7E5FBA56BAA
:1055700045B351462046E668FEF7F0FFBBF1000F49
:1055800013D0E660606A50B104F1240000F054FBCF
:1055900028B1C8F80070BFF34F8FBFF36F8FFFF7CC
:1055A00007FC012007B0BDE8F08F6D1EA5632068E1
:1055B00010B9FFF785FA606020690028EFD004F188
:1055C0001000E3E7059808B11EB106E0FFF7F0FB15
:1055D00027E06846FFF7DEFD0126FFF7E9FBFFF74E
:1055E0004BFEFFF7A9FB94F94400401C01D184F85D
:1055F000449094F94500401C01D184F84590FFF790
:10560000D7FB05A9684600F0BFF9002820460AD05C
:10561000FFF706F900F060FB2046FFF7B1F800281D
:10562000A3D00020BEE7FFF7ABF8D8B1206830B9AF
:10563000FFF782FB6068FFF76BFDFFF7B9FB04F132
:1056400024000599FFF736FD2046FFF7E9F800F042
:1056500043FB002889D1C8F80070BFF34F8FBFF318
:105660006F8F82E72046FFF7DBF800F035FB7CE721
:105670002E2E5C2E2E5C4672656552544F535C7321
:1056800072635C71756575652E6300004572726F9B
:10569000723A25732C25640D0A00000004ED00E029
:1056A00070B50D46040005D140F21B121CA123A0C9
:1056B000FDF73AF8FFF740FBD4E90F20216802FB21
:1056C000001161600021A1632168A1600A46D4E94C
:1056D0000F01401E00FB0121E16021464FF0FF3029
:1056E00001F8440F487004F110004DB1FFF7F1FAD2
:1056F00004F12400FFF7EDFAFFF75AFB012070BD1B
:1057000021690029F8D000F097FA0028F4D00F4959
:105710004FF080500860BFF34F8FBFF36F8FEBE700
:105720002E2E5C2E2E5C4672656552544F535C7370
:1057300072635C71756575652E6300004572726FEA
:10574000723A25732C25640D0A00000004ED00E078
:105750002DE9FF4F83B01F468B4604004FF0000633
:1057600005D140F2D9224DA153A0FCF7DDFFBBF1DA
:10577000000F07D1206C28B140F2DA2247A14EA0D9
:10578000FCF7D2FF022F08D1E06B012805D040F2D0
:10579000DB2242A148A0FCF7C7FF00F069F938B945
:1057A000059828B140F2DE223CA143A0FCF7BCFFE3
:1057B0004FF0000A4FF08058DFF80C91FFF7BCFA69
:1057C000A06BE16B884205D3022F03D00598C8B1C6
:1057D000DEB11EE03A4659462046FEF7D2FE616A27
:1057E00019B104F1240000F027FA28B1C9F80080AB
:1057F000BFF34F8FBFF36F8FFFF7DAFA012007B0C7
:10580000BDE8F08FFFF7D4FA21E06846FFF7C2FC4D
:105810000126FFF7CDFAFFF72FFDFFF78DFA94F978
:105820004400401C01D184F844A094F94500401C78
:1058300001D184F845A0FFF7BBFA05A9684600F03E
:10584000A3F830B12046FEF7EBFF00F045FA002048
:10585000D5E7FFF771FAA06BE16B884201D1012512
:1058600000E00025FFF7A4FA95B104F110000599B6
:10587000FFF720FC2046FEF7D3FF00F02DFA0028AA
:105880009CD1C9F80080BFF34F8FBFF36F8F95E7AE
:105890002046FEF7C5FF00F01FFA8FE72E2E5C2E84
:1058A0002E5C4672656552544F535C7372635C7133
:1058B000756575652E6300004572726F723A2573C7
:1058C0002C25640D0A00000004ED00E070B50E46C2
:1058D000040005D140F23C4220A127A0FCF724FFA0
:1058E000206C28B14FF488621CA123A0FCF71CFF98
:1058F000206838B9606828B140F2454217A11EA05F
:10590000FCF712FFFFF7E4FA5020EFF3118580F364
:105910001188BFF34F8FBFF36F8FA16BE06B88428D
:1059200018D994F94500491CA163411C04D0401CBE
:1059300084F8450001200EE0606A0028FAD004F1E6
:10594000240000F079F90028F4D0002EF2D00120D4
:105950003060EFE7002085F3118870BD2E2E5C2E9D
:105960002E5C4672656552544F535C7372635C7172
:10597000756575652E6300004572726F723A257306
:105980002C25640D0A00000070B50D46040005D1F9
:1059900040F6CB3214A11BA0FCF7C6FE2DB940F691
:1059A000CC3211A117A0FCF7BFFEFFF7C5F9194AC9
:1059B000D06829684B1C0FD02368126A934202D02A
:1059C000626882420AD96268801A884206D2081A3E
:1059D00028602046FFF7DEFB002400E00124FFF7EB
:1059E000E7F9204670BD00002E2E5C2E2E5C46721C
:1059F000656552544F535C7372635C7461736B736F
:105A00002E6300004572726F723A25732C25640D67
:105A10000A000000700100202DE9FF5F8346DDE9E8
:105A20000E87994616468A469000FEF7BFFF05008E
:105A30001AD05420FEF7BAFF040012D025630021CB
:105A4000CDE90241CDE900874B46324651465846E2
:105A5000FEF712FE2046FEF7EFFC012004B0BDE881
:105A6000F09F2846FFF7D6F94FF0FF30F6E7000029
:105A70000548416919B1006B18B100207047012039
:105A80007047022070470000700100202DE9F041AE
:105A90002D4F0026386B40B1B869401CB861F869D9
:105AA00000B101263046BDE8F081FD686D1CFD6047
:105AB00011D1786B006828B140F6D91223A12AA031
:105AC000FCF732FE786BB96B7963B863386A401CB7
:105AD0003862FEF763FEB86ADFF89C80854209D31E
