:020000040800F2
:10000000A0040020091D0008251D0008291D000866
:100010002D1D0008311D0008351D000800000000DE
:10002000000000000000000000000000391D000872
:100030003D1D000800000000411D0008451D00088E
:10004000491D00084D1D0008511D0008551D0008E0
:10005000591D00085D1D0008611D0008F919000800
:100060003D1A00086D1D0008711D0008751D00086F
:10007000791D00087D1D0008811D0008851D0008F0
:10008000891D00088D1D0008911D0008951D0008A0
:10009000991D00089D1D0008A11D0008B519000844
:1000A000A91D000871130008B11D0008B51D000846
:1000B0009B130008AF130008D9130008C51D0008E2
:1000C000C91D0008CD1D0008D11D0008D51D000860
:1000D000D91D0008AB140008DD140008E51D000858
:1000E000E91D0008ED1D0008F11D0008F51D0008C0
:1000F00081140008FD1D0008011E0008051E0008EF
:10010000091E00080D1E000803140008151E000833
:10011000191E00081D1E00082D14000857140008A1
:10012000291E00082D1E0008311E0008351E00087B
:10013000DFF8C802006850F00100DFF8C012086064
:10014000DFF8BC020068DFF8BC120840DFF8B0122C
:100150000860DFF8A8020068DFF8AC120840DFF89A
:100160009C120860DFF89402006830F48020DFF809
:100170008C120860DFF88802006830F4FE00DFF8B7
:1001800080120860DFF884025FF41F01016070478D
:10019000DFF86812096831F48031DFF860221160FD
:1001A000DFF85812096831F48021DFF8502211601D
:1001B000B0F5803F03D0B0F5802F09D011E0DFF813
:1001C0003C02006850F48030DFF83012086008E02C
:1001D000DFF82802006850F4A020DFF82012086041
:1001E000FFE7704780B500200090002000213120FB
:1001F00000F0E2F801000098401C00900098B0F573
:10020000A06F02D0C9B20029F1D0312000F0D4F89B
:10021000002801D0012000E00020C0B202BD002271
:10022000774B1B681A0032F47C120843024374486F
:10023000026070477649C0B2086070470021704A7A
:10024000126811008908890001436D4801607047F8
:100250006B48006810F00C0070470021684A126873
:10026000110031F0F0010143654801607047002141
:10027000634A1268110031F4E06101436048016093
:10028000704700215E4A1268110031F4605151EA52
:10029000C0015B480160704730B400220021002398
:1002A0000024574D2D6815F00C052A00002A04D0B3
:1002B000042A05D0082A06D021E05749016020E031
:1002C000554901601DE04E49096811F470114C4A0E
:1002D000126812F48033890C891C002B03D14F4A19
:1002E000514301600AE0464A1268920303D54B4A23
:1002F0005143016002E0484A5143016001E0464930
:1003000001603F49096811F0F00212094449545C48
:100310000168E14041603A49096811F4E062120A5B
:100320003F49545C4168E14081603549096811F4F6
:100330006052D20A3A49545C4168E140C160304998
:10034000096811F44042920B3649545CC168B1FB14
:10035000F4F1016130BC7047C9B2002905D03249BF
:10036000096808433049086005E02F49096831EA07
:1003700000002D4908607047C9B2002905D02B49FB
:10038000096808432949086005E02849096831EAF5
:100390000000264908607047C9B2002905D02449E9
:1003A000096808432249086005E02149096831EAE3
:1003B00000001F490860704710B40022002300218C
:1003C000C0B24409E4B22200012A02D10B490B68F1
:1003D00006E0022A02D10F490B6801E015490B68BB
:1003E000C0B210F01F0201209040034201D0012151
:1003F00000E000210800C0B210BC704700100240AD
:10040000041002400000FFF8FFFFF6FE0810024053
:10041000600042422010024000127A0000093D00B4
:1004200000000020100000201410024018100240AC
:100430001C1002402410024010B586B004000121B7
:100440004FF48040FFF798FF01210120FFF794FF50
:100450004FF40070ADF8000003208DF80200182062
:100460008DF8030000A9AD4800F06AF94FF48060F0
:10047000ADF8000004208DF8030000A9A74800F0A3
:100480005FF902940020ADF80C000020ADF80E00DA
:100490000020ADF810000020ADF814000C20ADF8DD
:1004A000120002A99C4800F0CDF9012240F225512A
:1004B000994800F037FA0121974800F025FA4021C9
:1004C000954800F06EFA4FF4C06000F0B9FA2520AC
:1004D0008DF8040000208DF8050001208DF806003D
:1004E00001208DF8070001A800F0AFFA06B010BD9A
:1004F0008B49097801291ED38A490978884A1278DC
:10050000914207D0874886490978017086480021C2
:10051000017013E08449097802290FD282490978D1
:1005200040188149087080480078012806D37F4828
:100530000121017002E07B48002101707047784A78
:100540001278C9B28A4201D275490978002205E0C1
:10055000D2B2774BD35C0370401C521CD2B2C9B2EA
:100560008A42F5D36E48002202700800C0B270477C
:1005700010B56E4800780128C0F0CD806B4800218E
:1005800001703C216B48FFF7DAFF6B49087069483E
:100590000078012840F0BF8067480078811EC9B20A
:1005A000644800F08FFA010A634A1278614BD2184E
:1005B00012F8022CC9B28A4240F0AD805E49097837
:1005C0005C4A891811F8011CC0B2814240F0A38036
:1005D00058484078032802D006284BD072E055488E
:1005E000807800283CD15348C078062838D251483A
:1005F000C078052827D24F48C0784E4949794D4ADE
:10060000C9B24B0093704C4A032313700A00511E69
:10061000D2B2002A23D0484A1278464B0024D45440
:10062000454A1278521C444B1A70434A1278414B87
:10063000C0B2424C045DD454401C3F4A1278521C54
:100640003D4B1A70E2E73B48022181703948002196
:10065000C1703848002101713748052101703DE023
:10066000344883214170334802218170324803218C
:10067000017033E02F488078002819D12D48C078C8
:10068000062815D22B48C07805280BD22948C078F7
:10069000C0B22A49274A52794254C0B22749405C25
:1006A000C0B2010924480078801E2349087015E073
:1006B0002048862141701F48022181701E48032175
:1006C00001700BE01B48407850F0800019494870D9
:1006D00018480121817018480321017016480178DB
:1006E000144800F0EFF914490978124A030A8B54B0
:1006F00011490978491C104A11700F4909780D4AAF
:1007000088540D480078401C0B4908700A4801784D
:10071000084800F070FB10BD00380140000801409F
:10072000980000209A0000209B00002099000020E3
:1007300014000020540000209C00002090000020A5
:10074000F0B400220026002400250023002791F8A1
:1007500003C01CF00F0C624691F803C05FEACC6C3A
:1007600001D58B781A430B781B0621D0036800242F
:1007700006E0CD78482D02D10125A5400561641C15
:10078000082C14D20125A5400E882E40AE42F6D189
:10079000A5000F2616FA05F7BB4312FA05F52B4301
:1007A000CD78282DE5D10125A5404561E7E7036017
:1007B0000B884FF48074A34226D34368002420E0C2
:1007C000012514F10806B5400E882E40AE4217D11F
:1007D000A5000F2616FA05F7BB4312FA05F52B43C1
:1007E000CD78282D04D1012514F10806B5404561C6
:1007F000CD78482D04D1012514F10806B5400561D6
:10080000641C082CDCD34360F0BC70470022806875
:1008100080B2084201D0012200E000221000C0B2E4
:1008200070470022C06880B2084201D0012200E077
:1008300000221000C0B2704789B20161704789B2CE
:1008400041617047F0B585B004000D000020002123
:10085000002200230026AF89002F2600208A4CF6B4
:10086000FF710840E98808432082A0894EF6F31101
:100870000840A9882A8911436A8911430843A08145
:10088000A08A4FF6FF410840A9890843A08200A82A
:10089000FFF702FD1B48864201D1039900E002994F
:1008A000A089000407D5192000FB01F02968490040
:1008B000B0FBF1F206E0192000FB01F02968890085
:1008C000B0FBF1F26420B2FBF0F0000101096423F7
:1008D00003FB1123A189090408D5D9003231642210
:1008E000B1FBF2F111F00701084307E019013231C1
:1008F0006422B1FBF2F111F00F010843208105B031
:10090000F0BD000000380140C9B2002904D081893F
:1009100051F40051818104E081894DF6FF7211404C
:1009200081817047F0B4002300240025002640F6A2
:100930006A1789B2B94206000800C0B24309DBB2A7
:1009400089B211F01F04012010FA04F5012B01D126
:100950000C3604E0022B01D1103600E01436D2B27E
:10096000002A03D030682843306002E03068A84392
:100970003060F0BC7047C905C90D81807047808820
:10098000C005C00D704700224FF4007389B2994230
:100990000088084201D0012200E000221000C0B20D
:1009A000704789B28A0589B2C9430180704770B423
:1009B000002300240025002240F66A1689B2B142C5
:1009C0000A00D2B25509EDB289B211F01F0401221A
:1009D00012FA04F4012D02D18289144006E0022D9E
:1009E00002D1028A144001E0828A144089B20B0AC3
:1009F0009BB2012111FA03F300880340002C03D0BD
:100A0000002B01D0012200E000221000C0B270BC17
:100A1000704710B450F8041B81B102681218001D11
:100A200050F8043BDC0744BFA9F10104E31852F875
:100A3000044B43F8044B091FF9D1EBE710BC704796
:100A40001B4908431B490860704710B4002100226D
:100A50000F23C478002C1ED01649096811F4E061F8
:100A6000D1F5E061090AD1F10402CB40417891400F
:100A700082781A401143090102780F4BD154017852
:100A800049110E4A0123007810F01F0013FA00F0FC
:100A900042F821000AE001784911094A012300784F
:100AA00010F01F0013FA00F042F8210010BC70474C
:100AB0000000FA050CED00E000E400E000E100E0D9
:100AC00080E100E0F0B5ADF5007D05000C00FF27EA
:100AD000FF2640A80FF248014FF4807200F0C3F9DE
:100AE00000A80FF23C114FF4807200F0BCF90BE04B
:100AF000FFB2287878406D1C80B240A9415C91EA31
:100B0000060780B200A9465C2000441EC0B200283F
:100B1000EED1FFB2F6B256EA07200DF5007DF0BD2A
:100B200000C1814001C0804101C0804100C18140BD
:100B300001C0804100C1814000C1814001C08041AD
:100B400001C0804100C1814000C1814001C080419D
:100B500000C1814001C0804101C0804100C181408D
:100B600001C0804100C1814000C1814001C080417D
:100B700000C1814001C0804101C0804100C181406D
:100B800000C1814001C0804101C0804100C181405D
:100B900001C0804100C1814000C1814001C080414D
:100BA00001C0804100C1814000C1814001C080413D
:100BB00000C1814001C0804101C0804100C181402D
:100BC00000C1814001C0804101C0804100C181401D
:100BD00001C0804100C1814000C1814001C080410D
:100BE00000C1814001C0804101C0804100C18140FD
:100BF00001C0804100C1814000C1814001C08041ED
:100C000001C0804100C1814000C1814001C08041DC
:100C100000C1814001C0804101C0804100C18140CC
:100C200000C0C101C30302C2C60607C705C5C4048C
:100C3000CC0C0DCD0FCFCE0E0ACACB0BC90908C8FC
:100C4000D81819D91BDBDA1A1EDEDF1FDD1D1CDCEC
:100C500014D4D515D71716D6D21213D311D1D0105C
:100C6000F03031F133F3F23236F6F737F53534F44C
:100C70003CFCFD3DFF3F3EFEFA3A3BFB39F9F838BC
:100C800028E8E929EB2B2AEAEE2E2FEF2DEDEC2CAC
:100C9000E42425E527E7E62622E2E323E12120E01C
:100CA000A06061A163A3A26266A6A767A56564A40C
:100CB0006CACAD6DAF6F6EAEAA6A6BAB69A9A8687C
:100CC00078B8B979BB7B7ABABE7E7FBF7DBDBC7C6C
:100CD000B47475B577B7B67672B2B373B17170B0DC
:100CE00050909151935352929656579755959454CC
:100CF0009C5C5D9D5F9F9E5E5A9A9B5B995958983C
:100D0000884849894B8B8A4A4E8E8F4F8D4D4C8C2B
:100D1000448485458747468682424383418180409B
:100D200010B586B0040001215FF40030FFF734FBFA
:100D300001210120FFF720FB2020ADF80000032057
:100D40008DF8020010208DF8030000A93C48FFF741
:100D5000F7FC0420ADF8000003208DF802001820F5
:100D60008DF8030000A93748FFF7EAFC0820ADF82A
:100D7000000004208DF8030000A93248FFF7E0FCD2
:100D800002940020ADF80C000020ADF80E00002009
:100D9000ADF810000020ADF814000C20ADF81200E2
:100DA00002A92948FFF74EFD012240F225512648AD
:100DB000FFF7B8FD01212448FFF7A6FD4021224896
:100DC000FFF7EFFD4FF4C060FFF73AFE26208DF8E5
:100DD000040001208DF8050001208DF80600012097
:100DE0008DF8070001A8FFF730FE20211448FFF717
:100DF00026FD06B010BD70B504000D0000262021B0
:100E00000F48FFF719FD032000F058F800200600F6
:100E10000CE0F6B2315D89B20B48FFF7ACFD8021E2
:100E20000948FFF7B0FD0028F9D0761CEDB2F6B204
:100E3000B542EED220210248FFF701FD70BD00004F
:100E40000018014000080140004400404AB38B07ED
:100E500007D0521E11F8013B00F8013B21D08B074F
:100E6000F7D183071ED1103A07D330B4B1E8381058
:100E7000103AA0E83810F9D230BC530724BFB1E8CB
:100E80000810A0E8081044BF51F8043B40F8043BA8
:100E9000D20724BF31F8022B20F8022B44BF0B7875
:100EA00003707047083A07D3B1E80810083A40F8D1
:100EB000043B40F804CBF7D25307E4E780B242F298
:100EC000283148430A4908600A48002101600A485D
:100ED000012101600848006810F001100128F9D0D4
:100EE00005480021016003480021016070470000AF
:100EF00014E000E018E000E010E000E05FF0C04126
:100F0000088070479B490880704701B402E0009850
:100F1000401E009000980028F9D101B070472DE9DB
:100F2000F84F002440F2DF10ADF8020040F2132524
:100F30002B26082740F20F184FF490795FF00C0A27
:100F40005FF0040B01208DF801000A208DF80000ED
:100F500002218948FFF773FC8848FFF7D6FF02217A
:100F60008548FFF769FC8548FFF7CFFFE220FFF7D0
:100F7000C5FF2320FFF7C6FF0220FFF7C3FF0420B1
:100F8000FFF7C0FFE020FFF7B9FF0120FFF7BAFF2E
:100F90007A48FFF7BAFFE020FFF7B0FF0320FFF722
:100FA000B1FF7648FFF7B1FF0120FFF7A7FF7348B5
:100FB000FFF7ABFFE620FFF7A1FF0120FFF7A2FF3D
:100FC0003320FFF79FFF3220FFF79CFFB020FFF791
:100FD00095FF0020FFF796FF0020FFF793FFBDF875
:100FE000020080B2000AFFF78DFFBDF80200C0B218
:100FF000FFF788FF1FFA88F85FEA1820FFF782FFE3
:101000005FFA88F0FFF77EFF0020FFF77BFFB42038
:10101000FFF774FFADB2280AFFF774FFE8B2FFF7DD
:1010200071FFB6B2300AFFF76DFFF0B2FFF76AFF4B
:101030009DF8010080B2FFF765FFBFB2380AFFF7E5
:1010400061FFF8B2FFF75EFF0020FFF75BFFB620FD
:10105000FFF754FF1FFA89F95FEA1920FFF752FFE3
:101060005FFA89F0FFF74EFF1FFA8AFA5FEA1A204B
:10107000FFF748FF5FFA8AF0FFF744FF9DF8000092
:1010800080B2FFF73FFF1FFA8BFB5FEA1B20FFF7E1
:1010900039FF5FFA8BF0FFF735FFBA20FFF72EFF1D
:1010A0000F20FFF72FFFB820FFF728FF0720FFF7DB
:1010B00029FF0120FFF726FF3620FFF71FFF002042
:1010C000FFF720FFF020FFF719FF0320FFF71AFFBB
:1010D0002A48FFF71AFF2920FFF710FFBE20FFF76D
:1010E0000DFF0620FFF70EFF8020FFF70BFF01200A
:1010F000FFF708FFF020FFF705FF0020FFF702FFD2
:101100000020FFF7FFFED020FFF7F8FE0D20FFF7CD
:10111000F9FE2A20FFF7F2FE0020FFF7F3FE002081
:10112000FFF7F0FE0120FFF7EDFE40F2DF10FFF7C2
:10113000E9FE2B20FFF7E2FE0020FFF7E3FE002090
:10114000FFF7E0FE0120FFF7DDFE40F20F10FFF792
:10115000D9FE2C20FFF7D2FE5FF4FF30040003E03D
:101160004FF6FF70FFF7CEFE2000441E0028F7D197
:10117000BDE8F18F0000026000180140FFFF0A0087
:1011800070B504000D0016002A20FFF7B7FEA4B2C8
:10119000200AFFF7B7FE200080B2FFF7B3FEA4B22B
:1011A000200AFFF7AFFE200080B2FFF7ABFE2B2036
:1011B000FFF7A4FEADB2280AFFF7A4FE280080B214
:1011C000FFF7A0FEADB2280AFFF79CFE280080B210
:1011D000FFF798FE2C20FFF791FE300080B2FFF75A
:1011E00091FE70BD2DE9F84304000D001E0000279C
:1011F000D2B29046D2B25000D0F1030903E0B80059
:10120000801D10EB0909B84554DB320092B2B5EBF2
:10121000080189B2381980B2FFF7B2FF320092B2EA
:10122000E91B89B218EB040080B2FFF7A9FF320076
:1012300092B2791989B218EB040080B2FFF7A0FFCF
:10124000320092B218EB050189B2381980B2FFF76B
:1012500097FF320092B218EB050189B2E01B80B211
:10126000FFF78EFF320092B2791989B2B4EB080011
:1012700080B2FFF785FF320092B2B5EB080189B268
:10128000E01B80B2FFF77CFF320092B2E91B89B20B
:10129000B4EB080080B2FFF773FF7F1CB9F1000FB9
:1012A000ADD4B7EB080080000A3010EB0909B8F1A3
:1012B0000108A8E7BDE8F1832DE9F04F83B00700EE
:1012C00088460024002592B2BFB2B2EB07099BB258
:1012D0001FFA88F8B3EB0806BFB21FFA88F8B9F115
:1012E000010F02DB012001900AE0B9F1000F02D1E9
:1012F0000020019004E05FF0FF300190D9F1000977
:10130000012E02DB0120009008E0002E02D1002017
:10131000009003E05FF0FF30009076424E4501DA26
:10132000CA4600E0B2465FF0000B19E0BDF830207D
:10133000414689B2380080B2FFF722FF19EB04045E
:101340007519A24503DAB4EB0A040198C719AA4536
:1013500004DAB5EB0A05009810EB08081BF1010B45
:101360001AF101001FFA8BFB5845DFDABDE8F78F51
:1013700080B50121664800F049F920216548FFF752
:1013800050FA002804D120216248FFF755FA03E003
:1013900020216048FFF753FA01BD80B501215FF0BD
:1013A000804000F033F90120FFF7A2F801BD80B5BD
:1013B0000121594800F02AF908215848FFF731FA6D
:1013C000002804D108215548FFF736FA03E0082128
:1013D0005248FFF734FA01BD80B50121504800F0B2
:1013E00015F908214D48FFF71CFA002804D10821FF
:1013F0004A48FFF721FA03E008214848FFF71FFA9F
:1014000001BD80B50121474800F000F94021434863
:10141000FFF707FA002804D140214048FFF70CFAF3
:1014200003E040213D48FFF70AFA01BD80B50121E4
:101430003D4800F0EBF840213848FFF7F2F900286A
:1014400004D140213548FFF7F7F903E04021334844
:10145000FFF7F5F901BD80B50121344800F0D6F859
:1014600040212E48FFF7DDF9002804D140212B4808
:10147000FFF7E2F903E040212848FFF7E0F901BD5A
:1014800080B501212A4800F0C1F840212348FFF728
:10149000C8F9002804D140212048FFF7CDF903E026
:1014A00040211E48FFF7CBF901BD80B540F2255120
:1014B0002048FFF77CFA00280FD01E48FFF75FFA9C
:1014C0001D490978402908D21B4909781B4A8854CC
:1014D00019480078401C1849087001BD80B540F2D9
:1014E00025511748FFF763FA00280FD01448FFF77B
:1014F00046FA11490978402908D20F4909780F4A5C
:1015000088540D480078401C0B49087001BD00004C
:10151000002C0140000C0140000400400014014078
:1015200000080040000C0040001000400014004083
:1015300000340140003801409800002014000020D1
:1015400000440040002203881A00DFF8C8309842A7
:1015500012D0DFF8D83098420ED0B0F1804F0BD0C7
:10156000DFF8B430984207D0DFF8B030984203D0AB
:10157000DFF8AC30984204D14FF68F731A404B8895
:101580001A43DFF8A030984208D0DFF89C30984228
:1015900004D04FF6FF431A40CB881A4302808A8852
:1015A00082850A880285DFF86C2090420FD0DFF830
:1015B0007C2090420BD0DFF87820904207D0DFF8F3
:1015C0007420904203D0DFF87020904201D1097A54
:1015D0000186012181827047C9B2002904D00188A7
:1015E00051F00101018004E001884FF6FE721140C4
:1015F00001807047D2B2002A03D0828911438181D1
:1016000003E0828932EA01018181704789B2C943CE
:1016100001827047002C0140000400400008004097
:10162000000C004000100040001400400034014055
:1016300000400140004401400048014080B54F484F
:10164000006850F001004D4908604D4800684D4960
:1016500008404B490860494800684B4908404749E1
:1016600008604648006830F48020444908604448D7
:10167000006830F4FE004249086044485FF41F01EE
:10168000016000F005F842485FF00061016001BDB3
:1016900080B500F001F801BD82B00020019000206B
:1016A00000903648006850F4803034490860334870
:1016B000006810F4003000900198401C01900098E0
:1016C000002803D10198B0F5A06FF0D12B48006835
:1016D000800302D50120009001E0002000900098D6
:1016E000012847D12B48006850F0100029490860B4
:1016F000284800688008800026490860254800685E
:1017000050F00200234908601D481D490968016026
:101710001B481B49096801601948006850F4806043
:10172000174908601648006830F47C1014490860B6
:101730001348006850F4E810114908600F48006829
:1017400050F080700D4908600C4800688001FBD59E
:101750000B48006880088000094908600848006854
:1017600050F00200064908600548006810F00C00BF
:101770000828F9D102B070470000000000100240B4
:10178000041002400000FFF8FFFFF6FE08100240C0
:1017900008ED00E000200240416882681143C26801
:1017A0001143026911434269114382691143C269BD
:1017B0001143026A1143426A1143826A1143C26AA9
:1017C0001143026B114302689200B2F1C0421160F2
:1017D000816808290BD101688900B1F1C04109680D
:1017E00051F0400102689200B2F1C0421160416BB9
:1017F0000968426B526851EA0211426B926851EAE1
:101800000221426BD26851EA0241426B126951EAED
:101810000251426B526951EA0261426B9269114373
:1018200002689200B2F1C0425160C16AB1F5804FC6
:101830001AD1816B0968826B526851EA0211826B7E
:10184000926851EA0221826B126951EA0251826B5D
:10185000526951EA0261826B926911430068DFF8B4
:101860004C2042F8201006E00068DFF840107FF0BE
:10187000704241F820207047C9B200290AD0810087
:10188000B1F1C041096851F001018000B0F1C040E0
:10189000016009E08100B1F1C0410968044A1140CA
:1018A0008000B0F1C040016070470000040100A05A
:1018B000FEFF0F0000B597B001214FF48070FEF7D6
:1018C0004BFD4FF40050ADF8000003208DF80200EE
:1018D00010208DF8030000A93448FEF731FF0220E4
:1018E000ADF8000000A93248FEF72AFF4CF2337031
:1018F000ADF8000003208DF8020018208DF80300D9
:1019000000A92A48FEF71CFF4FF68070ADF80000D2
:1019100000A92748FEF714FF8020ADF8000000A9B9
:101920002248FEF70DFF4FF40060ADF8000000A95B
:101930001E48FEF705FF4FF400511C48FEF77CFFE0
:1019400002200190002002900520039000200490C6
:1019500000200590002006905FF080500790002046
:1019600008900020099008200A9010200B90002079
:101970000C9000200E9000200F90002010904FF44B
:10198000805011900020129000201390002014909D
:1019900001A8159001A8169008A8FFF7FDFE0121E7
:1019A0000020FFF769FF17B000BD00BF0014014021
:1019B0000018014080B5202000F066F801281AD1F7
:1019C000202000F073F80A20FFF778FA20212C4835
:1019D000FEF71CFF00280ED120212A48FEF721FF28
:1019E000002804D120212748FEF726FF03E020210C
:1019F0002448FEF724FF01BD80B5022000F044F822
:101A000001281AD1022000F051F80A20FFF756FAF7
:101A100002211B48FEF7FAFE00280ED120211948AA
:101A2000FEF7FFFE002804D120211648FEF704FF30
:101A300003E020211348FEF702FF01BD80B504201A
:101A400000F022F801281AD1042000F02FF80A2013
:101A5000FFF734FA04210A48FEF7D8FE00280ED119
:101A600020210848FEF7DDFE002804D1202105488A
:101A7000FEF7E2FE03E020210248FEF7E0FE01BD92
:101A800000100140000C014000210022094B1B689E
:101A900003401A00084B1B68034203D0002A01D000
:101AA000012100E000210800C0B27047024908602F
:101AB00070470000000401401404014080B500F0AC
:101AC00001F801BD00B585B001210120FEF764FCDD
:101AD00001215FF08040FFF799FD0120ADF808007B
:101AE00048F69F40ADF804000020ADF80A00002041
:101AF000ADF8060001A95FF08040FFF723FD012249
:101B000001215FF08040FFF775FD01215FF080400B
:101B1000FFF762FD1C208DF8000005208DF8010004
:101B200005208DF8020001208DF8030000A8FEF7C3
:101B30008CFF05B000BD80B5FFF780FD00F005F813
:101B400001217D20FEF718FC01BD80B5FEF7F0FAFB
:101B50005FF48030FEF71CFBFEF744FB01281ED12A
:101B60000020FEF77AFB0020FEF78BFB4FF480602D
:101B7000FEF77DFB5FF4E0115FF48030FEF74FFB72
:101B80000120FEF757FB3920FEF716FC0028FAD09B
:101B90000220FEF753FBFEF75BFB0828FBD101BDDB
:101BA00080B52020ADF8000010208DF80300032040
:101BB0008DF8020000A90E48FEF7C2FD4820ADF8DE
:101BC000000000A90B48FEF7BBFD20210848FEF7E6
:101BD00033FE48210748FEF72FFE2E20ADF8000007
:101BE00048208DF8030000A90348FEF7A9FD01BDB8
:101BF000000C0140001401400010014080B5FFF7C7
:101C00009AFFFFF757FEFFF78AF94FF478400090EC
:101C10006423642200210020FFF74EFB4FF4784339
:101C2000322264216420FFF7DDFA4FF47A70FFF767
:101C300045F95FF4E130FEF7FFFB5FF4E130FFF7B9
:101C40006FF8FFF73BFFFFF7ABFFFEF791FCFCE7F8
:101C500010B5084979441C31074C7C441A34A14220
:101C600006D0081D0A68511888470146A142F8D1DC
:101C700010BD00BF2C0000004C00000050F8041BF9
:101C800061B150F8042BD30744BFA9F101039A189E
:101C9000002342F8043B091FFAD1EFE77047000028
:101CA000DDFFFFFF8C00000014000020000000009A
:101CB00063EDFFFF14000000800100000000002021
:101CC0000000000000F009F8002801D0FFF7C0FF75
:101CD0000020FFF793FF00F002F80120704780B565
:101CE00000F002B800BF00000746384600F002F8D6
:101CF000FBE7000080B5C046C046024A110018202C
:101D0000ABBEFBE7260002000148804701480047C0
:101D10003D160008191D0008C046C046C046C04612
:101D2000FFF7D0FFFFF7FEBFFFF7FEBFFFF7FEBFD5
:101D3000FFF7FEBFFFF7FEBFFFF7FEBFFFF7FEBFD7
:101D4000FFF7FEBFFFF7FEBFFFF7FEBFFFF7FEBFC7
:101D5000FFF7FEBFFFF7FEBFFFF7FEBFFFF7FEBFB7
:101D6000FFF7FEBFFFF748BEFFF768BEFFF7FEBFF5
:101D7000FFF7FEBFFFF7FEBFFFF7FEBFFFF7FEBF97
:101D8000FFF7FEBFFFF7FEBFFFF7FEBFFFF7FEBF87
:101D9000FFF7FEBFFFF7FEBFFFF7FEBFFFF7FEBF77
:101DA000FFF7FEBFFFF706BEFFF7FEBFFFF7E0BA83
:101DB000FFF7FEBFFFF7FEBFFFF7EFBAFFF7F7BA77
:101DC000FFF70ABBFFF7FEBFFFF7FEBFFFF7FEBF3F
:101DD000FFF7FEBFFFF7FEBFFFF7FEBFFFF765BBD4
:101DE000FFF77CBBFFF7FEBFFFF7FEBFFFF7FEBFAD
:101DF000FFF7FEBFFFF7FEBFFFF742BBFFF7FEBFD7
:101E0000FFF7FEBFFFF7FEBFFFF7FEBFFFF7FEBF06
:101E1000FFF7F7BAFFF7FEBFFFF7FEBFFFF7FEBF02
:101E2000FFF704BBFFF717BBFFF7FEBFFFF7FEBFCF
:101E3000FFF7FEBFFFF7FEBF000000000102030432
:0C1E40000102030406070809020406085A
:0400000508001D19B9
:00000001FF
